{
	"contracts/Twitter.sol": {
		"Twitter": {
			"abi": [
				{
					"inputs": [],
					"stateMutability": "nonpayable",
					"type": "constructor"
				},
				{
					"inputs": [],
					"name": "MAX_TWEET_LENGTH",
					"outputs": [
						{
							"internalType": "uint16",
							"name": "",
							"type": "uint16"
						}
					],
					"stateMutability": "view",
					"type": "function"
				},
				{
					"inputs": [
						{
							"internalType": "uint16",
							"name": "newTweetLength",
							"type": "uint16"
						}
					],
					"name": "changeTweetLength",
					"outputs": [],
					"stateMutability": "nonpayable",
					"type": "function"
				},
				{
					"inputs": [
						{
							"internalType": "string",
							"name": "_tweet",
							"type": "string"
						}
					],
					"name": "createTweet",
					"outputs": [],
					"stateMutability": "nonpayable",
					"type": "function"
				},
				{
					"inputs": [
						{
							"internalType": "address",
							"name": "_owner",
							"type": "address"
						}
					],
					"name": "getAllTweet",
					"outputs": [
						{
							"components": [
								{
									"internalType": "uint256",
									"name": "id",
									"type": "uint256"
								},
								{
									"internalType": "address",
									"name": "author",
									"type": "address"
								},
								{
									"internalType": "string",
									"name": "tweet",
									"type": "string"
								},
								{
									"internalType": "uint256",
									"name": "timestamp",
									"type": "uint256"
								},
								{
									"internalType": "uint256",
									"name": "likes",
									"type": "uint256"
								}
							],
							"internalType": "struct Twitter.Tweet[]",
							"name": "",
							"type": "tuple[]"
						}
					],
					"stateMutability": "view",
					"type": "function"
				},
				{
					"inputs": [
						{
							"internalType": "uint256",
							"name": "_i",
							"type": "uint256"
						}
					],
					"name": "getTweet",
					"outputs": [
						{
							"components": [
								{
									"internalType": "uint256",
									"name": "id",
									"type": "uint256"
								},
								{
									"internalType": "address",
									"name": "author",
									"type": "address"
								},
								{
									"internalType": "string",
									"name": "tweet",
									"type": "string"
								},
								{
									"internalType": "uint256",
									"name": "timestamp",
									"type": "uint256"
								},
								{
									"internalType": "uint256",
									"name": "likes",
									"type": "uint256"
								}
							],
							"internalType": "struct Twitter.Tweet",
							"name": "",
							"type": "tuple"
						}
					],
					"stateMutability": "view",
					"type": "function"
				},
				{
					"inputs": [
						{
							"internalType": "uint256",
							"name": "id",
							"type": "uint256"
						},
						{
							"internalType": "address",
							"name": "author",
							"type": "address"
						}
					],
					"name": "likeTweet",
					"outputs": [],
					"stateMutability": "nonpayable",
					"type": "function"
				},
				{
					"inputs": [],
					"name": "owner",
					"outputs": [
						{
							"internalType": "address",
							"name": "",
							"type": "address"
						}
					],
					"stateMutability": "view",
					"type": "function"
				},
				{
					"inputs": [
						{
							"internalType": "address",
							"name": "",
							"type": "address"
						},
						{
							"internalType": "uint256",
							"name": "",
							"type": "uint256"
						}
					],
					"name": "tweets",
					"outputs": [
						{
							"internalType": "uint256",
							"name": "id",
							"type": "uint256"
						},
						{
							"internalType": "address",
							"name": "author",
							"type": "address"
						},
						{
							"internalType": "string",
							"name": "tweet",
							"type": "string"
						},
						{
							"internalType": "uint256",
							"name": "timestamp",
							"type": "uint256"
						},
						{
							"internalType": "uint256",
							"name": "likes",
							"type": "uint256"
						}
					],
					"stateMutability": "view",
					"type": "function"
				},
				{
					"inputs": [
						{
							"internalType": "uint256",
							"name": "id",
							"type": "uint256"
						},
						{
							"internalType": "address",
							"name": "author",
							"type": "address"
						}
					],
					"name": "unlikeTweet",
					"outputs": [],
					"stateMutability": "nonpayable",
					"type": "function"
				}
			],
			"devdoc": {
				"kind": "dev",
				"methods": {},
				"version": 1
			},
			"evm": {
				"assembly": "    /* \"contracts/Twitter.sol\":60:2335  contract Twitter {... */\n  mstore(0x40, 0x80)\n    /* \"contracts/Twitter.sol\":119:122  280 */\n  0x0118\n    /* \"contracts/Twitter.sol\":86:122  uint16 public MAX_TWEET_LENGTH = 280 */\n  0x00\n  dup1\n  0x0100\n  exp\n  dup2\n  sload\n  dup2\n  0xffff\n  mul\n  not\n  and\n  swap1\n  dup4\n  0xffff\n  and\n  mul\n  or\n  swap1\n  sstore\n  pop\n    /* \"contracts/Twitter.sol\":360:411  constructor() {... */\n  callvalue\n  dup1\n  iszero\n  tag_1\n  jumpi\n  0x00\n  dup1\n  revert\ntag_1:\n  pop\n    /* \"contracts/Twitter.sol\":393:403  msg.sender */\n  caller\n    /* \"contracts/Twitter.sol\":385:390  owner */\n  0x02\n  0x00\n    /* \"contracts/Twitter.sol\":385:403  owner = msg.sender */\n  0x0100\n  exp\n  dup2\n  sload\n  dup2\n  0xffffffffffffffffffffffffffffffffffffffff\n  mul\n  not\n  and\n  swap1\n  dup4\n  0xffffffffffffffffffffffffffffffffffffffff\n  and\n  mul\n  or\n  swap1\n  sstore\n  pop\n    /* \"contracts/Twitter.sol\":60:2335  contract Twitter {... */\n  dataSize(sub_0)\n  dup1\n  dataOffset(sub_0)\n  0x00\n  codecopy\n  0x00\n  return\nstop\n\nsub_0: assembly {\n        /* \"contracts/Twitter.sol\":60:2335  contract Twitter {... */\n      mstore(0x40, 0x80)\n      callvalue\n      dup1\n      iszero\n      tag_1\n      jumpi\n      0x00\n      dup1\n      revert\n    tag_1:\n      pop\n      jumpi(tag_2, lt(calldatasize, 0x04))\n      shr(0xe0, calldataload(0x00))\n      dup1\n      0x8da5cb5b\n      gt\n      tag_12\n      jumpi\n      dup1\n      0x8da5cb5b\n      eq\n      tag_7\n      jumpi\n      dup1\n      0xa1488f7c\n      eq\n      tag_8\n      jumpi\n      dup1\n      0xb64988b8\n      eq\n      tag_9\n      jumpi\n      dup1\n      0xc3ad5ecb\n      eq\n      tag_10\n      jumpi\n      dup1\n      0xd04ddaa0\n      eq\n      tag_11\n      jumpi\n      jump(tag_2)\n    tag_12:\n      dup1\n      0x05a1b4a9\n      eq\n      tag_3\n      jumpi\n      dup1\n      0x58bfa4ab\n      eq\n      tag_4\n      jumpi\n      dup1\n      0x6eb10797\n      eq\n      tag_5\n      jumpi\n      dup1\n      0x7c9cd2bc\n      eq\n      tag_6\n      jumpi\n    tag_2:\n      0x00\n      dup1\n      revert\n        /* \"contracts/Twitter.sol\":282:324  mapping(address => Tweet[] ) public tweets */\n    tag_3:\n      tag_13\n      0x04\n      dup1\n      calldatasize\n      sub\n      dup2\n      add\n      swap1\n      tag_14\n      swap2\n      swap1\n      tag_15\n      jump\t// in\n    tag_14:\n      tag_16\n      jump\t// in\n    tag_13:\n      mload(0x40)\n      tag_17\n      swap6\n      swap5\n      swap4\n      swap3\n      swap2\n      swap1\n      tag_18\n      jump\t// in\n    tag_17:\n      mload(0x40)\n      dup1\n      swap2\n      sub\n      swap1\n      return\n        /* \"contracts/Twitter.sol\":552:671  function changeTweetLength(uint16 newTweetLength) public onlyOwner {... */\n    tag_4:\n      tag_19\n      0x04\n      dup1\n      calldatasize\n      sub\n      dup2\n      add\n      swap1\n      tag_20\n      swap2\n      swap1\n      tag_21\n      jump\t// in\n    tag_20:\n      tag_22\n      jump\t// in\n    tag_19:\n      stop\n        /* \"contracts/Twitter.sol\":86:122  uint16 public MAX_TWEET_LENGTH = 280 */\n    tag_5:\n      tag_23\n      tag_24\n      jump\t// in\n    tag_23:\n      mload(0x40)\n      tag_25\n      swap2\n      swap1\n      tag_26\n      jump\t// in\n    tag_25:\n      mload(0x40)\n      dup1\n      swap2\n      sub\n      swap1\n      return\n        /* \"contracts/Twitter.sol\":679:1392  function createTweet(string memory _tweet) public {... */\n    tag_6:\n      tag_27\n      0x04\n      dup1\n      calldatasize\n      sub\n      dup2\n      add\n      swap1\n      tag_28\n      swap2\n      swap1\n      tag_29\n      jump\t// in\n    tag_28:\n      tag_30\n      jump\t// in\n    tag_27:\n      stop\n        /* \"contracts/Twitter.sol\":331:351  address public owner */\n    tag_7:\n      tag_31\n      tag_32\n      jump\t// in\n    tag_31:\n      mload(0x40)\n      tag_33\n      swap2\n      swap1\n      tag_34\n      jump\t// in\n    tag_33:\n      mload(0x40)\n      dup1\n      swap2\n      sub\n      swap1\n      return\n        /* \"contracts/Twitter.sol\":1581:1826  function unlikeTweet(uint256 id, address author) external {... */\n    tag_8:\n      tag_35\n      0x04\n      dup1\n      calldatasize\n      sub\n      dup2\n      add\n      swap1\n      tag_36\n      swap2\n      swap1\n      tag_37\n      jump\t// in\n    tag_36:\n      tag_38\n      jump\t// in\n    tag_35:\n      stop\n        /* \"contracts/Twitter.sol\":2211:2324  function getAllTweet(address _owner) public view returns (Tweet[] memory){... */\n    tag_9:\n      tag_39\n      0x04\n      dup1\n      calldatasize\n      sub\n      dup2\n      add\n      swap1\n      tag_40\n      swap2\n      swap1\n      tag_41\n      jump\t// in\n    tag_40:\n      tag_42\n      jump\t// in\n    tag_39:\n      mload(0x40)\n      tag_43\n      swap2\n      swap1\n      tag_44\n      jump\t// in\n    tag_43:\n      mload(0x40)\n      dup1\n      swap2\n      sub\n      swap1\n      return\n        /* \"contracts/Twitter.sol\":1968:2077  function getTweet(uint _i) public view returns (Tweet memory){... */\n    tag_10:\n      tag_45\n      0x04\n      dup1\n      calldatasize\n      sub\n      dup2\n      add\n      swap1\n      tag_46\n      swap2\n      swap1\n      tag_47\n      jump\t// in\n    tag_46:\n      tag_48\n      jump\t// in\n    tag_45:\n      mload(0x40)\n      tag_49\n      swap2\n      swap1\n      tag_50\n      jump\t// in\n    tag_49:\n      mload(0x40)\n      dup1\n      swap2\n      sub\n      swap1\n      return\n        /* \"contracts/Twitter.sol\":1400:1573  function likeTweet(uint256 id, address author) external {... */\n    tag_11:\n      tag_51\n      0x04\n      dup1\n      calldatasize\n      sub\n      dup2\n      add\n      swap1\n      tag_52\n      swap2\n      swap1\n      tag_37\n      jump\t// in\n    tag_52:\n      tag_53\n      jump\t// in\n    tag_51:\n      stop\n        /* \"contracts/Twitter.sol\":282:324  mapping(address => Tweet[] ) public tweets */\n    tag_16:\n      mstore(0x20, 0x01)\n      dup2\n      0x00\n      mstore\n      keccak256(0x00, 0x40)\n      dup2\n      dup2\n      sload\n      dup2\n      lt\n      tag_54\n      jumpi\n      0x00\n      dup1\n      revert\n    tag_54:\n      swap1\n      0x00\n      mstore\n      keccak256(0x00, 0x20)\n      swap1\n      0x05\n      mul\n      add\n      0x00\n      swap2\n      pop\n      swap2\n      pop\n      pop\n      dup1\n      0x00\n      add\n      sload\n      swap1\n      dup1\n      0x01\n      add\n      0x00\n      swap1\n      sload\n      swap1\n      0x0100\n      exp\n      swap1\n      div\n      0xffffffffffffffffffffffffffffffffffffffff\n      and\n      swap1\n      dup1\n      0x02\n      add\n      dup1\n      sload\n      tag_56\n      swap1\n      tag_57\n      jump\t// in\n    tag_56:\n      dup1\n      0x1f\n      add\n      0x20\n      dup1\n      swap2\n      div\n      mul\n      0x20\n      add\n      mload(0x40)\n      swap1\n      dup2\n      add\n      0x40\n      mstore\n      dup1\n      swap3\n      swap2\n      swap1\n      dup2\n      dup2\n      mstore\n      0x20\n      add\n      dup3\n      dup1\n      sload\n      tag_58\n      swap1\n      tag_57\n      jump\t// in\n    tag_58:\n      dup1\n      iszero\n      tag_59\n      jumpi\n      dup1\n      0x1f\n      lt\n      tag_60\n      jumpi\n      0x0100\n      dup1\n      dup4\n      sload\n      div\n      mul\n      dup4\n      mstore\n      swap2\n      0x20\n      add\n      swap2\n      jump(tag_59)\n    tag_60:\n      dup3\n      add\n      swap2\n      swap1\n      0x00\n      mstore\n      keccak256(0x00, 0x20)\n      swap1\n    tag_61:\n      dup2\n      sload\n      dup2\n      mstore\n      swap1\n      0x01\n      add\n      swap1\n      0x20\n      add\n      dup1\n      dup4\n      gt\n      tag_61\n      jumpi\n      dup3\n      swap1\n      sub\n      0x1f\n      and\n      dup3\n      add\n      swap2\n    tag_59:\n      pop\n      pop\n      pop\n      pop\n      pop\n      swap1\n      dup1\n      0x03\n      add\n      sload\n      swap1\n      dup1\n      0x04\n      add\n      sload\n      swap1\n      pop\n      dup6\n      jump\t// out\n        /* \"contracts/Twitter.sol\":552:671  function changeTweetLength(uint16 newTweetLength) public onlyOwner {... */\n    tag_22:\n        /* \"contracts/Twitter.sol\":473:478  owner */\n      0x02\n      0x00\n      swap1\n      sload\n      swap1\n      0x0100\n      exp\n      swap1\n      div\n      0xffffffffffffffffffffffffffffffffffffffff\n      and\n        /* \"contracts/Twitter.sol\":459:478  msg.sender == owner */\n      0xffffffffffffffffffffffffffffffffffffffff\n      and\n        /* \"contracts/Twitter.sol\":459:469  msg.sender */\n      caller\n        /* \"contracts/Twitter.sol\":459:478  msg.sender == owner */\n      0xffffffffffffffffffffffffffffffffffffffff\n      and\n      eq\n        /* \"contracts/Twitter.sol\":451:524  require(msg.sender == owner, \"You are not the owner of this contract!!!\") */\n      tag_63\n      jumpi\n      mload(0x40)\n      0x08c379a000000000000000000000000000000000000000000000000000000000\n      dup2\n      mstore\n      0x04\n      add\n      tag_64\n      swap1\n      tag_65\n      jump\t// in\n    tag_64:\n      mload(0x40)\n      dup1\n      swap2\n      sub\n      swap1\n      revert\n    tag_63:\n        /* \"contracts/Twitter.sol\":649:663  newTweetLength */\n      dup1\n        /* \"contracts/Twitter.sol\":630:646  MAX_TWEET_LENGTH */\n      0x00\n      dup1\n        /* \"contracts/Twitter.sol\":630:663  MAX_TWEET_LENGTH = newTweetLength */\n      0x0100\n      exp\n      dup2\n      sload\n      dup2\n      0xffff\n      mul\n      not\n      and\n      swap1\n      dup4\n      0xffff\n      and\n      mul\n      or\n      swap1\n      sstore\n      pop\n        /* \"contracts/Twitter.sol\":552:671  function changeTweetLength(uint16 newTweetLength) public onlyOwner {... */\n      pop\n      jump\t// out\n        /* \"contracts/Twitter.sol\":86:122  uint16 public MAX_TWEET_LENGTH = 280 */\n    tag_24:\n      0x00\n      dup1\n      sload\n      swap1\n      0x0100\n      exp\n      swap1\n      div\n      0xffff\n      and\n      dup2\n      jump\t// out\n        /* \"contracts/Twitter.sol\":679:1392  function createTweet(string memory _tweet) public {... */\n    tag_30:\n        /* \"contracts/Twitter.sol\":774:790  MAX_TWEET_LENGTH */\n      0x00\n      dup1\n      sload\n      swap1\n      0x0100\n      exp\n      swap1\n      div\n      0xffff\n      and\n        /* \"contracts/Twitter.sol\":750:790  bytes(_tweet).length <= MAX_TWEET_LENGTH */\n      0xffff\n      and\n        /* \"contracts/Twitter.sol\":756:762  _tweet */\n      dup2\n        /* \"contracts/Twitter.sol\":750:770  bytes(_tweet).length */\n      mload\n        /* \"contracts/Twitter.sol\":750:790  bytes(_tweet).length <= MAX_TWEET_LENGTH */\n      gt\n      iszero\n        /* \"contracts/Twitter.sol\":742:816  require(bytes(_tweet).length <= MAX_TWEET_LENGTH, \"Tweet is too long bro\") */\n      tag_68\n      jumpi\n      mload(0x40)\n      0x08c379a000000000000000000000000000000000000000000000000000000000\n      dup2\n      mstore\n      0x04\n      add\n      tag_69\n      swap1\n      tag_70\n      jump\t// in\n    tag_69:\n      mload(0x40)\n      dup1\n      swap2\n      sub\n      swap1\n      revert\n    tag_68:\n        /* \"contracts/Twitter.sol\":1118:1139  Tweet memory newTweet */\n      tag_71\n      tag_72\n      jump\t// in\n    tag_71:\n        /* \"contracts/Twitter.sol\":1164:1170  tweets */\n      0x01\n        /* \"contracts/Twitter.sol\":1164:1182  tweets[msg.sender] */\n      0x00\n        /* \"contracts/Twitter.sol\":1171:1181  msg.sender */\n      caller\n        /* \"contracts/Twitter.sol\":1164:1182  tweets[msg.sender] */\n      0xffffffffffffffffffffffffffffffffffffffff\n      and\n      0xffffffffffffffffffffffffffffffffffffffff\n      and\n      dup2\n      mstore\n      0x20\n      add\n      swap1\n      dup2\n      mstore\n      0x20\n      add\n      0x00\n      keccak256\n        /* \"contracts/Twitter.sol\":1164:1189  tweets[msg.sender].length */\n      dup1\n      sload\n      swap1\n      pop\n        /* \"contracts/Twitter.sol\":1150:1158  newTweet */\n      dup2\n        /* \"contracts/Twitter.sol\":1150:1161  newTweet.id */\n      0x00\n      add\n        /* \"contracts/Twitter.sol\":1150:1189  newTweet.id = tweets[msg.sender].length */\n      dup2\n      dup2\n      mstore\n      pop\n      pop\n        /* \"contracts/Twitter.sol\":1218:1228  msg.sender */\n      caller\n        /* \"contracts/Twitter.sol\":1200:1208  newTweet */\n      dup2\n        /* \"contracts/Twitter.sol\":1200:1215  newTweet.author */\n      0x20\n      add\n        /* \"contracts/Twitter.sol\":1200:1228  newTweet.author = msg.sender */\n      swap1\n      0xffffffffffffffffffffffffffffffffffffffff\n      and\n      swap1\n      dup2\n      0xffffffffffffffffffffffffffffffffffffffff\n      and\n      dup2\n      mstore\n      pop\n      pop\n        /* \"contracts/Twitter.sol\":1256:1262  _tweet */\n      dup2\n        /* \"contracts/Twitter.sol\":1239:1247  newTweet */\n      dup2\n        /* \"contracts/Twitter.sol\":1239:1253  newTweet.tweet */\n      0x40\n      add\n        /* \"contracts/Twitter.sol\":1239:1262  newTweet.tweet = _tweet */\n      dup2\n      swap1\n      mstore\n      pop\n        /* \"contracts/Twitter.sol\":1294:1309  block.timestamp */\n      timestamp\n        /* \"contracts/Twitter.sol\":1273:1281  newTweet */\n      dup2\n        /* \"contracts/Twitter.sol\":1273:1291  newTweet.timestamp */\n      0x60\n      add\n        /* \"contracts/Twitter.sol\":1273:1309  newTweet.timestamp = block.timestamp */\n      dup2\n      dup2\n      mstore\n      pop\n      pop\n        /* \"contracts/Twitter.sol\":1337:1338  0 */\n      0x00\n        /* \"contracts/Twitter.sol\":1320:1328  newTweet */\n      dup2\n        /* \"contracts/Twitter.sol\":1320:1334  newTweet.likes */\n      0x80\n      add\n        /* \"contracts/Twitter.sol\":1320:1338  newTweet.likes = 0 */\n      dup2\n      dup2\n      mstore\n      pop\n      pop\n        /* \"contracts/Twitter.sol\":1351:1357  tweets */\n      0x01\n        /* \"contracts/Twitter.sol\":1351:1369  tweets[msg.sender] */\n      0x00\n        /* \"contracts/Twitter.sol\":1358:1368  msg.sender */\n      caller\n        /* \"contracts/Twitter.sol\":1351:1369  tweets[msg.sender] */\n      0xffffffffffffffffffffffffffffffffffffffff\n      and\n      0xffffffffffffffffffffffffffffffffffffffff\n      and\n      dup2\n      mstore\n      0x20\n      add\n      swap1\n      dup2\n      mstore\n      0x20\n      add\n      0x00\n      keccak256\n        /* \"contracts/Twitter.sol\":1375:1383  newTweet */\n      dup2\n        /* \"contracts/Twitter.sol\":1351:1384  tweets[msg.sender].push(newTweet) */\n      swap1\n      dup1\n      0x01\n      dup2\n      sload\n      add\n      dup1\n      dup3\n      sstore\n      dup1\n      swap2\n      pop\n      pop\n      0x01\n      swap1\n      sub\n      swap1\n      0x00\n      mstore\n      keccak256(0x00, 0x20)\n      swap1\n      0x05\n      mul\n      add\n      0x00\n      swap1\n      swap2\n      swap1\n      swap2\n      swap1\n      swap2\n      pop\n      0x00\n      dup3\n      add\n      mload\n      dup2\n      0x00\n      add\n      sstore\n      0x20\n      dup3\n      add\n      mload\n      dup2\n      0x01\n      add\n      exp(0x0100, 0x00)\n      dup2\n      sload\n      dup2\n      0xffffffffffffffffffffffffffffffffffffffff\n      mul\n      not\n      and\n      swap1\n      dup4\n      0xffffffffffffffffffffffffffffffffffffffff\n      and\n      mul\n      or\n      swap1\n      sstore\n      pop\n      0x40\n      dup3\n      add\n      mload\n      dup2\n      0x02\n      add\n      swap1\n      dup2\n      tag_74\n      swap2\n      swap1\n      tag_75\n      jump\t// in\n    tag_74:\n      pop\n      0x60\n      dup3\n      add\n      mload\n      dup2\n      0x03\n      add\n      sstore\n      0x80\n      dup3\n      add\n      mload\n      dup2\n      0x04\n      add\n      sstore\n      pop\n      pop\n        /* \"contracts/Twitter.sol\":729:1392  {... */\n      pop\n        /* \"contracts/Twitter.sol\":679:1392  function createTweet(string memory _tweet) public {... */\n      pop\n      jump\t// out\n        /* \"contracts/Twitter.sol\":331:351  address public owner */\n    tag_32:\n      0x02\n      0x00\n      swap1\n      sload\n      swap1\n      0x0100\n      exp\n      swap1\n      div\n      0xffffffffffffffffffffffffffffffffffffffff\n      and\n      dup2\n      jump\t// out\n        /* \"contracts/Twitter.sol\":1581:1826  function unlikeTweet(uint256 id, address author) external {... */\n    tag_38:\n        /* \"contracts/Twitter.sol\":1683:1685  id */\n      dup2\n        /* \"contracts/Twitter.sol\":1658:1664  tweets */\n      0x01\n        /* \"contracts/Twitter.sol\":1658:1672  tweets[author] */\n      0x00\n        /* \"contracts/Twitter.sol\":1665:1671  author */\n      dup4\n        /* \"contracts/Twitter.sol\":1658:1672  tweets[author] */\n      0xffffffffffffffffffffffffffffffffffffffff\n      and\n      0xffffffffffffffffffffffffffffffffffffffff\n      and\n      dup2\n      mstore\n      0x20\n      add\n      swap1\n      dup2\n      mstore\n      0x20\n      add\n      0x00\n      keccak256\n        /* \"contracts/Twitter.sol\":1673:1675  id */\n      dup4\n        /* \"contracts/Twitter.sol\":1658:1676  tweets[author][id] */\n      dup2\n      sload\n      dup2\n      lt\n      tag_77\n      jumpi\n      tag_78\n      tag_79\n      jump\t// in\n    tag_78:\n    tag_77:\n      swap1\n      0x00\n      mstore\n      keccak256(0x00, 0x20)\n      swap1\n      0x05\n      mul\n      add\n        /* \"contracts/Twitter.sol\":1658:1679  tweets[author][id].id */\n      0x00\n      add\n      sload\n        /* \"contracts/Twitter.sol\":1658:1685  tweets[author][id].id == id */\n      eq\n        /* \"contracts/Twitter.sol\":1650:1711  require(tweets[author][id].id == id, \"TWEET DOES NOT EXIST!\") */\n      tag_81\n      jumpi\n      mload(0x40)\n      0x08c379a000000000000000000000000000000000000000000000000000000000\n      dup2\n      mstore\n      0x04\n      add\n      tag_82\n      swap1\n      tag_83\n      jump\t// in\n    tag_82:\n      mload(0x40)\n      dup1\n      swap2\n      sub\n      swap1\n      revert\n    tag_81:\n        /* \"contracts/Twitter.sol\":1757:1758  0 */\n      0x00\n        /* \"contracts/Twitter.sol\":1730:1736  tweets */\n      0x01\n        /* \"contracts/Twitter.sol\":1730:1744  tweets[author] */\n      0x00\n        /* \"contracts/Twitter.sol\":1737:1743  author */\n      dup4\n        /* \"contracts/Twitter.sol\":1730:1744  tweets[author] */\n      0xffffffffffffffffffffffffffffffffffffffff\n      and\n      0xffffffffffffffffffffffffffffffffffffffff\n      and\n      dup2\n      mstore\n      0x20\n      add\n      swap1\n      dup2\n      mstore\n      0x20\n      add\n      0x00\n      keccak256\n        /* \"contracts/Twitter.sol\":1745:1747  id */\n      dup4\n        /* \"contracts/Twitter.sol\":1730:1748  tweets[author][id] */\n      dup2\n      sload\n      dup2\n      lt\n      tag_84\n      jumpi\n      tag_85\n      tag_79\n      jump\t// in\n    tag_85:\n    tag_84:\n      swap1\n      0x00\n      mstore\n      keccak256(0x00, 0x20)\n      swap1\n      0x05\n      mul\n      add\n        /* \"contracts/Twitter.sol\":1730:1754  tweets[author][id].likes */\n      0x04\n      add\n      sload\n        /* \"contracts/Twitter.sol\":1730:1758  tweets[author][id].likes > 0 */\n      gt\n        /* \"contracts/Twitter.sol\":1722:1781  require(tweets[author][id].likes > 0, \"There are no likes\") */\n      tag_87\n      jumpi\n      mload(0x40)\n      0x08c379a000000000000000000000000000000000000000000000000000000000\n      dup2\n      mstore\n      0x04\n      add\n      tag_88\n      swap1\n      tag_89\n      jump\t// in\n    tag_88:\n      mload(0x40)\n      dup1\n      swap2\n      sub\n      swap1\n      revert\n    tag_87:\n        /* \"contracts/Twitter.sol\":1792:1798  tweets */\n      0x01\n        /* \"contracts/Twitter.sol\":1792:1806  tweets[author] */\n      0x00\n        /* \"contracts/Twitter.sol\":1799:1805  author */\n      dup3\n        /* \"contracts/Twitter.sol\":1792:1806  tweets[author] */\n      0xffffffffffffffffffffffffffffffffffffffff\n      and\n      0xffffffffffffffffffffffffffffffffffffffff\n      and\n      dup2\n      mstore\n      0x20\n      add\n      swap1\n      dup2\n      mstore\n      0x20\n      add\n      0x00\n      keccak256\n        /* \"contracts/Twitter.sol\":1807:1809  id */\n      dup3\n        /* \"contracts/Twitter.sol\":1792:1810  tweets[author][id] */\n      dup2\n      sload\n      dup2\n      lt\n      tag_90\n      jumpi\n      tag_91\n      tag_79\n      jump\t// in\n    tag_91:\n    tag_90:\n      swap1\n      0x00\n      mstore\n      keccak256(0x00, 0x20)\n      swap1\n      0x05\n      mul\n      add\n        /* \"contracts/Twitter.sol\":1792:1816  tweets[author][id].likes */\n      0x04\n      add\n      0x00\n        /* \"contracts/Twitter.sol\":1792:1818  tweets[author][id].likes-- */\n      dup2\n      sload\n      dup1\n      swap3\n      swap2\n      swap1\n      tag_93\n      swap1\n      tag_94\n      jump\t// in\n    tag_93:\n      swap2\n      swap1\n      pop\n      sstore\n      pop\n        /* \"contracts/Twitter.sol\":1581:1826  function unlikeTweet(uint256 id, address author) external {... */\n      pop\n      pop\n      jump\t// out\n        /* \"contracts/Twitter.sol\":2211:2324  function getAllTweet(address _owner) public view returns (Tweet[] memory){... */\n    tag_42:\n        /* \"contracts/Twitter.sol\":2269:2283  Tweet[] memory */\n      0x60\n        /* \"contracts/Twitter.sol\":2302:2308  tweets */\n      0x01\n        /* \"contracts/Twitter.sol\":2302:2316  tweets[_owner] */\n      0x00\n        /* \"contracts/Twitter.sol\":2309:2315  _owner */\n      dup4\n        /* \"contracts/Twitter.sol\":2302:2316  tweets[_owner] */\n      0xffffffffffffffffffffffffffffffffffffffff\n      and\n      0xffffffffffffffffffffffffffffffffffffffff\n      and\n      dup2\n      mstore\n      0x20\n      add\n      swap1\n      dup2\n      mstore\n      0x20\n      add\n      0x00\n      keccak256\n        /* \"contracts/Twitter.sol\":2295:2316  return tweets[_owner] */\n      dup1\n      sload\n      dup1\n      0x20\n      mul\n      0x20\n      add\n      mload(0x40)\n      swap1\n      dup2\n      add\n      0x40\n      mstore\n      dup1\n      swap3\n      swap2\n      swap1\n      dup2\n      dup2\n      mstore\n      0x20\n      add\n      0x00\n      swap1\n    tag_96:\n      dup3\n      dup3\n      lt\n      iszero\n      tag_97\n      jumpi\n      dup4\n      dup3\n      swap1\n      0x00\n      mstore\n      keccak256(0x00, 0x20)\n      swap1\n      0x05\n      mul\n      add\n      mload(0x40)\n      dup1\n      0xa0\n      add\n      0x40\n      mstore\n      swap1\n      dup2\n      0x00\n      dup3\n      add\n      sload\n      dup2\n      mstore\n      0x20\n      add\n      0x01\n      dup3\n      add\n      0x00\n      swap1\n      sload\n      swap1\n      0x0100\n      exp\n      swap1\n      div\n      0xffffffffffffffffffffffffffffffffffffffff\n      and\n      0xffffffffffffffffffffffffffffffffffffffff\n      and\n      0xffffffffffffffffffffffffffffffffffffffff\n      and\n      dup2\n      mstore\n      0x20\n      add\n      0x02\n      dup3\n      add\n      dup1\n      sload\n      tag_99\n      swap1\n      tag_57\n      jump\t// in\n    tag_99:\n      dup1\n      0x1f\n      add\n      0x20\n      dup1\n      swap2\n      div\n      mul\n      0x20\n      add\n      mload(0x40)\n      swap1\n      dup2\n      add\n      0x40\n      mstore\n      dup1\n      swap3\n      swap2\n      swap1\n      dup2\n      dup2\n      mstore\n      0x20\n      add\n      dup3\n      dup1\n      sload\n      tag_100\n      swap1\n      tag_57\n      jump\t// in\n    tag_100:\n      dup1\n      iszero\n      tag_101\n      jumpi\n      dup1\n      0x1f\n      lt\n      tag_102\n      jumpi\n      0x0100\n      dup1\n      dup4\n      sload\n      div\n      mul\n      dup4\n      mstore\n      swap2\n      0x20\n      add\n      swap2\n      jump(tag_101)\n    tag_102:\n      dup3\n      add\n      swap2\n      swap1\n      0x00\n      mstore\n      keccak256(0x00, 0x20)\n      swap1\n    tag_103:\n      dup2\n      sload\n      dup2\n      mstore\n      swap1\n      0x01\n      add\n      swap1\n      0x20\n      add\n      dup1\n      dup4\n      gt\n      tag_103\n      jumpi\n      dup3\n      swap1\n      sub\n      0x1f\n      and\n      dup3\n      add\n      swap2\n    tag_101:\n      pop\n      pop\n      pop\n      pop\n      pop\n      dup2\n      mstore\n      0x20\n      add\n      0x03\n      dup3\n      add\n      sload\n      dup2\n      mstore\n      0x20\n      add\n      0x04\n      dup3\n      add\n      sload\n      dup2\n      mstore\n      pop\n      pop\n      dup2\n      mstore\n      0x20\n      add\n      swap1\n      0x01\n      add\n      swap1\n      jump(tag_96)\n    tag_97:\n      pop\n      pop\n      pop\n      pop\n      swap1\n      pop\n        /* \"contracts/Twitter.sol\":2211:2324  function getAllTweet(address _owner) public view returns (Tweet[] memory){... */\n      swap2\n      swap1\n      pop\n      jump\t// out\n        /* \"contracts/Twitter.sol\":1968:2077  function getTweet(uint _i) public view returns (Tweet memory){... */\n    tag_48:\n        /* \"contracts/Twitter.sol\":2016:2028  Tweet memory */\n      tag_104\n      tag_72\n      jump\t// in\n    tag_104:\n        /* \"contracts/Twitter.sol\":2047:2053  tweets */\n      0x01\n        /* \"contracts/Twitter.sol\":2047:2065  tweets[msg.sender] */\n      0x00\n        /* \"contracts/Twitter.sol\":2054:2064  msg.sender */\n      caller\n        /* \"contracts/Twitter.sol\":2047:2065  tweets[msg.sender] */\n      0xffffffffffffffffffffffffffffffffffffffff\n      and\n      0xffffffffffffffffffffffffffffffffffffffff\n      and\n      dup2\n      mstore\n      0x20\n      add\n      swap1\n      dup2\n      mstore\n      0x20\n      add\n      0x00\n      keccak256\n        /* \"contracts/Twitter.sol\":2066:2068  _i */\n      dup3\n        /* \"contracts/Twitter.sol\":2047:2069  tweets[msg.sender][_i] */\n      dup2\n      sload\n      dup2\n      lt\n      tag_106\n      jumpi\n      tag_107\n      tag_79\n      jump\t// in\n    tag_107:\n    tag_106:\n      swap1\n      0x00\n      mstore\n      keccak256(0x00, 0x20)\n      swap1\n      0x05\n      mul\n      add\n        /* \"contracts/Twitter.sol\":2040:2069  return tweets[msg.sender][_i] */\n      mload(0x40)\n      dup1\n      0xa0\n      add\n      0x40\n      mstore\n      swap1\n      dup2\n      0x00\n      dup3\n      add\n      sload\n      dup2\n      mstore\n      0x20\n      add\n      0x01\n      dup3\n      add\n      0x00\n      swap1\n      sload\n      swap1\n      0x0100\n      exp\n      swap1\n      div\n      0xffffffffffffffffffffffffffffffffffffffff\n      and\n      0xffffffffffffffffffffffffffffffffffffffff\n      and\n      0xffffffffffffffffffffffffffffffffffffffff\n      and\n      dup2\n      mstore\n      0x20\n      add\n      0x02\n      dup3\n      add\n      dup1\n      sload\n      tag_109\n      swap1\n      tag_57\n      jump\t// in\n    tag_109:\n      dup1\n      0x1f\n      add\n      0x20\n      dup1\n      swap2\n      div\n      mul\n      0x20\n      add\n      mload(0x40)\n      swap1\n      dup2\n      add\n      0x40\n      mstore\n      dup1\n      swap3\n      swap2\n      swap1\n      dup2\n      dup2\n      mstore\n      0x20\n      add\n      dup3\n      dup1\n      sload\n      tag_110\n      swap1\n      tag_57\n      jump\t// in\n    tag_110:\n      dup1\n      iszero\n      tag_111\n      jumpi\n      dup1\n      0x1f\n      lt\n      tag_112\n      jumpi\n      0x0100\n      dup1\n      dup4\n      sload\n      div\n      mul\n      dup4\n      mstore\n      swap2\n      0x20\n      add\n      swap2\n      jump(tag_111)\n    tag_112:\n      dup3\n      add\n      swap2\n      swap1\n      0x00\n      mstore\n      keccak256(0x00, 0x20)\n      swap1\n    tag_113:\n      dup2\n      sload\n      dup2\n      mstore\n      swap1\n      0x01\n      add\n      swap1\n      0x20\n      add\n      dup1\n      dup4\n      gt\n      tag_113\n      jumpi\n      dup3\n      swap1\n      sub\n      0x1f\n      and\n      dup3\n      add\n      swap2\n    tag_111:\n      pop\n      pop\n      pop\n      pop\n      pop\n      dup2\n      mstore\n      0x20\n      add\n      0x03\n      dup3\n      add\n      sload\n      dup2\n      mstore\n      0x20\n      add\n      0x04\n      dup3\n      add\n      sload\n      dup2\n      mstore\n      pop\n      pop\n      swap1\n      pop\n        /* \"contracts/Twitter.sol\":1968:2077  function getTweet(uint _i) public view returns (Tweet memory){... */\n      swap2\n      swap1\n      pop\n      jump\t// out\n        /* \"contracts/Twitter.sol\":1400:1573  function likeTweet(uint256 id, address author) external {... */\n    tag_53:\n        /* \"contracts/Twitter.sol\":1500:1502  id */\n      dup2\n        /* \"contracts/Twitter.sol\":1475:1481  tweets */\n      0x01\n        /* \"contracts/Twitter.sol\":1475:1489  tweets[author] */\n      0x00\n        /* \"contracts/Twitter.sol\":1482:1488  author */\n      dup4\n        /* \"contracts/Twitter.sol\":1475:1489  tweets[author] */\n      0xffffffffffffffffffffffffffffffffffffffff\n      and\n      0xffffffffffffffffffffffffffffffffffffffff\n      and\n      dup2\n      mstore\n      0x20\n      add\n      swap1\n      dup2\n      mstore\n      0x20\n      add\n      0x00\n      keccak256\n        /* \"contracts/Twitter.sol\":1490:1492  id */\n      dup4\n        /* \"contracts/Twitter.sol\":1475:1493  tweets[author][id] */\n      dup2\n      sload\n      dup2\n      lt\n      tag_115\n      jumpi\n      tag_116\n      tag_79\n      jump\t// in\n    tag_116:\n    tag_115:\n      swap1\n      0x00\n      mstore\n      keccak256(0x00, 0x20)\n      swap1\n      0x05\n      mul\n      add\n        /* \"contracts/Twitter.sol\":1475:1496  tweets[author][id].id */\n      0x00\n      add\n      sload\n        /* \"contracts/Twitter.sol\":1475:1502  tweets[author][id].id == id */\n      eq\n        /* \"contracts/Twitter.sol\":1467:1528  require(tweets[author][id].id == id, \"TWEET DOES NOT EXIST!\") */\n      tag_118\n      jumpi\n      mload(0x40)\n      0x08c379a000000000000000000000000000000000000000000000000000000000\n      dup2\n      mstore\n      0x04\n      add\n      tag_119\n      swap1\n      tag_83\n      jump\t// in\n    tag_119:\n      mload(0x40)\n      dup1\n      swap2\n      sub\n      swap1\n      revert\n    tag_118:\n        /* \"contracts/Twitter.sol\":1539:1545  tweets */\n      0x01\n        /* \"contracts/Twitter.sol\":1539:1553  tweets[author] */\n      0x00\n        /* \"contracts/Twitter.sol\":1546:1552  author */\n      dup3\n        /* \"contracts/Twitter.sol\":1539:1553  tweets[author] */\n      0xffffffffffffffffffffffffffffffffffffffff\n      and\n      0xffffffffffffffffffffffffffffffffffffffff\n      and\n      dup2\n      mstore\n      0x20\n      add\n      swap1\n      dup2\n      mstore\n      0x20\n      add\n      0x00\n      keccak256\n        /* \"contracts/Twitter.sol\":1554:1556  id */\n      dup3\n        /* \"contracts/Twitter.sol\":1539:1557  tweets[author][id] */\n      dup2\n      sload\n      dup2\n      lt\n      tag_120\n      jumpi\n      tag_121\n      tag_79\n      jump\t// in\n    tag_121:\n    tag_120:\n      swap1\n      0x00\n      mstore\n      keccak256(0x00, 0x20)\n      swap1\n      0x05\n      mul\n      add\n        /* \"contracts/Twitter.sol\":1539:1563  tweets[author][id].likes */\n      0x04\n      add\n      0x00\n        /* \"contracts/Twitter.sol\":1539:1565  tweets[author][id].likes++ */\n      dup2\n      sload\n      dup1\n      swap3\n      swap2\n      swap1\n      tag_123\n      swap1\n      tag_124\n      jump\t// in\n    tag_123:\n      swap2\n      swap1\n      pop\n      sstore\n      pop\n        /* \"contracts/Twitter.sol\":1400:1573  function likeTweet(uint256 id, address author) external {... */\n      pop\n      pop\n      jump\t// out\n    tag_72:\n      mload(0x40)\n      dup1\n      0xa0\n      add\n      0x40\n      mstore\n      dup1\n      0x00\n      dup2\n      mstore\n      0x20\n      add\n      and(0xffffffffffffffffffffffffffffffffffffffff, 0x00)\n      dup2\n      mstore\n      0x20\n      add\n      0x60\n      dup2\n      mstore\n      0x20\n      add\n      0x00\n      dup2\n      mstore\n      0x20\n      add\n      0x00\n      dup2\n      mstore\n      pop\n      swap1\n      jump\t// out\n        /* \"#utility.yul\":7:82   */\n    tag_125:\n        /* \"#utility.yul\":40:46   */\n      0x00\n        /* \"#utility.yul\":73:75   */\n      0x40\n        /* \"#utility.yul\":67:76   */\n      mload\n        /* \"#utility.yul\":57:76   */\n      swap1\n      pop\n        /* \"#utility.yul\":7:82   */\n      swap1\n      jump\t// out\n        /* \"#utility.yul\":88:205   */\n    tag_126:\n        /* \"#utility.yul\":197:198   */\n      0x00\n        /* \"#utility.yul\":194:195   */\n      dup1\n        /* \"#utility.yul\":187:199   */\n      revert\n        /* \"#utility.yul\":211:328   */\n    tag_127:\n        /* \"#utility.yul\":320:321   */\n      0x00\n        /* \"#utility.yul\":317:318   */\n      dup1\n        /* \"#utility.yul\":310:322   */\n      revert\n        /* \"#utility.yul\":334:460   */\n    tag_128:\n        /* \"#utility.yul\":371:378   */\n      0x00\n        /* \"#utility.yul\":411:453   */\n      0xffffffffffffffffffffffffffffffffffffffff\n        /* \"#utility.yul\":404:409   */\n      dup3\n        /* \"#utility.yul\":400:454   */\n      and\n        /* \"#utility.yul\":389:454   */\n      swap1\n      pop\n        /* \"#utility.yul\":334:460   */\n      swap2\n      swap1\n      pop\n      jump\t// out\n        /* \"#utility.yul\":466:562   */\n    tag_129:\n        /* \"#utility.yul\":503:510   */\n      0x00\n        /* \"#utility.yul\":532:556   */\n      tag_198\n        /* \"#utility.yul\":550:555   */\n      dup3\n        /* \"#utility.yul\":532:556   */\n      tag_128\n      jump\t// in\n    tag_198:\n        /* \"#utility.yul\":521:556   */\n      swap1\n      pop\n        /* \"#utility.yul\":466:562   */\n      swap2\n      swap1\n      pop\n      jump\t// out\n        /* \"#utility.yul\":568:690   */\n    tag_130:\n        /* \"#utility.yul\":641:665   */\n      tag_200\n        /* \"#utility.yul\":659:664   */\n      dup2\n        /* \"#utility.yul\":641:665   */\n      tag_129\n      jump\t// in\n    tag_200:\n        /* \"#utility.yul\":634:639   */\n      dup2\n        /* \"#utility.yul\":631:666   */\n      eq\n        /* \"#utility.yul\":621:684   */\n      tag_201\n      jumpi\n        /* \"#utility.yul\":680:681   */\n      0x00\n        /* \"#utility.yul\":677:678   */\n      dup1\n        /* \"#utility.yul\":670:682   */\n      revert\n        /* \"#utility.yul\":621:684   */\n    tag_201:\n        /* \"#utility.yul\":568:690   */\n      pop\n      jump\t// out\n        /* \"#utility.yul\":696:835   */\n    tag_131:\n        /* \"#utility.yul\":742:747   */\n      0x00\n        /* \"#utility.yul\":780:786   */\n      dup2\n        /* \"#utility.yul\":767:787   */\n      calldataload\n        /* \"#utility.yul\":758:787   */\n      swap1\n      pop\n        /* \"#utility.yul\":796:829   */\n      tag_203\n        /* \"#utility.yul\":823:828   */\n      dup2\n        /* \"#utility.yul\":796:829   */\n      tag_130\n      jump\t// in\n    tag_203:\n        /* \"#utility.yul\":696:835   */\n      swap3\n      swap2\n      pop\n      pop\n      jump\t// out\n        /* \"#utility.yul\":841:918   */\n    tag_132:\n        /* \"#utility.yul\":878:885   */\n      0x00\n        /* \"#utility.yul\":907:912   */\n      dup2\n        /* \"#utility.yul\":896:912   */\n      swap1\n      pop\n        /* \"#utility.yul\":841:918   */\n      swap2\n      swap1\n      pop\n      jump\t// out\n        /* \"#utility.yul\":924:1046   */\n    tag_133:\n        /* \"#utility.yul\":997:1021   */\n      tag_206\n        /* \"#utility.yul\":1015:1020   */\n      dup2\n        /* \"#utility.yul\":997:1021   */\n      tag_132\n      jump\t// in\n    tag_206:\n        /* \"#utility.yul\":990:995   */\n      dup2\n        /* \"#utility.yul\":987:1022   */\n      eq\n        /* \"#utility.yul\":977:1040   */\n      tag_207\n      jumpi\n        /* \"#utility.yul\":1036:1037   */\n      0x00\n        /* \"#utility.yul\":1033:1034   */\n      dup1\n        /* \"#utility.yul\":1026:1038   */\n      revert\n        /* \"#utility.yul\":977:1040   */\n    tag_207:\n        /* \"#utility.yul\":924:1046   */\n      pop\n      jump\t// out\n        /* \"#utility.yul\":1052:1191   */\n    tag_134:\n        /* \"#utility.yul\":1098:1103   */\n      0x00\n        /* \"#utility.yul\":1136:1142   */\n      dup2\n        /* \"#utility.yul\":1123:1143   */\n      calldataload\n        /* \"#utility.yul\":1114:1143   */\n      swap1\n      pop\n        /* \"#utility.yul\":1152:1185   */\n      tag_209\n        /* \"#utility.yul\":1179:1184   */\n      dup2\n        /* \"#utility.yul\":1152:1185   */\n      tag_133\n      jump\t// in\n    tag_209:\n        /* \"#utility.yul\":1052:1191   */\n      swap3\n      swap2\n      pop\n      pop\n      jump\t// out\n        /* \"#utility.yul\":1197:1671   */\n    tag_15:\n        /* \"#utility.yul\":1265:1271   */\n      0x00\n        /* \"#utility.yul\":1273:1279   */\n      dup1\n        /* \"#utility.yul\":1322:1324   */\n      0x40\n        /* \"#utility.yul\":1310:1319   */\n      dup4\n        /* \"#utility.yul\":1301:1308   */\n      dup6\n        /* \"#utility.yul\":1297:1320   */\n      sub\n        /* \"#utility.yul\":1293:1325   */\n      slt\n        /* \"#utility.yul\":1290:1409   */\n      iszero\n      tag_211\n      jumpi\n        /* \"#utility.yul\":1328:1407   */\n      tag_212\n      tag_126\n      jump\t// in\n    tag_212:\n        /* \"#utility.yul\":1290:1409   */\n    tag_211:\n        /* \"#utility.yul\":1448:1449   */\n      0x00\n        /* \"#utility.yul\":1473:1526   */\n      tag_213\n        /* \"#utility.yul\":1518:1525   */\n      dup6\n        /* \"#utility.yul\":1509:1515   */\n      dup3\n        /* \"#utility.yul\":1498:1507   */\n      dup7\n        /* \"#utility.yul\":1494:1516   */\n      add\n        /* \"#utility.yul\":1473:1526   */\n      tag_131\n      jump\t// in\n    tag_213:\n        /* \"#utility.yul\":1463:1526   */\n      swap3\n      pop\n        /* \"#utility.yul\":1419:1536   */\n      pop\n        /* \"#utility.yul\":1575:1577   */\n      0x20\n        /* \"#utility.yul\":1601:1654   */\n      tag_214\n        /* \"#utility.yul\":1646:1653   */\n      dup6\n        /* \"#utility.yul\":1637:1643   */\n      dup3\n        /* \"#utility.yul\":1626:1635   */\n      dup7\n        /* \"#utility.yul\":1622:1644   */\n      add\n        /* \"#utility.yul\":1601:1654   */\n      tag_134\n      jump\t// in\n    tag_214:\n        /* \"#utility.yul\":1591:1654   */\n      swap2\n      pop\n        /* \"#utility.yul\":1546:1664   */\n      pop\n        /* \"#utility.yul\":1197:1671   */\n      swap3\n      pop\n      swap3\n      swap1\n      pop\n      jump\t// out\n        /* \"#utility.yul\":1677:1795   */\n    tag_135:\n        /* \"#utility.yul\":1764:1788   */\n      tag_216\n        /* \"#utility.yul\":1782:1787   */\n      dup2\n        /* \"#utility.yul\":1764:1788   */\n      tag_132\n      jump\t// in\n    tag_216:\n        /* \"#utility.yul\":1759:1762   */\n      dup3\n        /* \"#utility.yul\":1752:1789   */\n      mstore\n        /* \"#utility.yul\":1677:1795   */\n      pop\n      pop\n      jump\t// out\n        /* \"#utility.yul\":1801:1919   */\n    tag_136:\n        /* \"#utility.yul\":1888:1912   */\n      tag_218\n        /* \"#utility.yul\":1906:1911   */\n      dup2\n        /* \"#utility.yul\":1888:1912   */\n      tag_129\n      jump\t// in\n    tag_218:\n        /* \"#utility.yul\":1883:1886   */\n      dup3\n        /* \"#utility.yul\":1876:1913   */\n      mstore\n        /* \"#utility.yul\":1801:1919   */\n      pop\n      pop\n      jump\t// out\n        /* \"#utility.yul\":1925:2024   */\n    tag_137:\n        /* \"#utility.yul\":1977:1983   */\n      0x00\n        /* \"#utility.yul\":2011:2016   */\n      dup2\n        /* \"#utility.yul\":2005:2017   */\n      mload\n        /* \"#utility.yul\":1995:2017   */\n      swap1\n      pop\n        /* \"#utility.yul\":1925:2024   */\n      swap2\n      swap1\n      pop\n      jump\t// out\n        /* \"#utility.yul\":2030:2199   */\n    tag_138:\n        /* \"#utility.yul\":2114:2125   */\n      0x00\n        /* \"#utility.yul\":2148:2154   */\n      dup3\n        /* \"#utility.yul\":2143:2146   */\n      dup3\n        /* \"#utility.yul\":2136:2155   */\n      mstore\n        /* \"#utility.yul\":2188:2192   */\n      0x20\n        /* \"#utility.yul\":2183:2186   */\n      dup3\n        /* \"#utility.yul\":2179:2193   */\n      add\n        /* \"#utility.yul\":2164:2193   */\n      swap1\n      pop\n        /* \"#utility.yul\":2030:2199   */\n      swap3\n      swap2\n      pop\n      pop\n      jump\t// out\n        /* \"#utility.yul\":2205:2453   */\n    tag_139:\n        /* \"#utility.yul\":2287:2288   */\n      0x00\n        /* \"#utility.yul\":2297:2410   */\n    tag_222:\n        /* \"#utility.yul\":2311:2317   */\n      dup4\n        /* \"#utility.yul\":2308:2309   */\n      dup2\n        /* \"#utility.yul\":2305:2318   */\n      lt\n        /* \"#utility.yul\":2297:2410   */\n      iszero\n      tag_224\n      jumpi\n        /* \"#utility.yul\":2396:2397   */\n      dup1\n        /* \"#utility.yul\":2391:2394   */\n      dup3\n        /* \"#utility.yul\":2387:2398   */\n      add\n        /* \"#utility.yul\":2381:2399   */\n      mload\n        /* \"#utility.yul\":2377:2378   */\n      dup2\n        /* \"#utility.yul\":2372:2375   */\n      dup5\n        /* \"#utility.yul\":2368:2379   */\n      add\n        /* \"#utility.yul\":2361:2400   */\n      mstore\n        /* \"#utility.yul\":2333:2335   */\n      0x20\n        /* \"#utility.yul\":2330:2331   */\n      dup2\n        /* \"#utility.yul\":2326:2336   */\n      add\n        /* \"#utility.yul\":2321:2336   */\n      swap1\n      pop\n        /* \"#utility.yul\":2297:2410   */\n      jump(tag_222)\n    tag_224:\n        /* \"#utility.yul\":2444:2445   */\n      0x00\n        /* \"#utility.yul\":2435:2441   */\n      dup5\n        /* \"#utility.yul\":2430:2433   */\n      dup5\n        /* \"#utility.yul\":2426:2442   */\n      add\n        /* \"#utility.yul\":2419:2446   */\n      mstore\n        /* \"#utility.yul\":2267:2453   */\n      pop\n        /* \"#utility.yul\":2205:2453   */\n      pop\n      pop\n      pop\n      jump\t// out\n        /* \"#utility.yul\":2459:2561   */\n    tag_140:\n        /* \"#utility.yul\":2500:2506   */\n      0x00\n        /* \"#utility.yul\":2551:2553   */\n      0x1f\n        /* \"#utility.yul\":2547:2554   */\n      not\n        /* \"#utility.yul\":2542:2544   */\n      0x1f\n        /* \"#utility.yul\":2535:2540   */\n      dup4\n        /* \"#utility.yul\":2531:2545   */\n      add\n        /* \"#utility.yul\":2527:2555   */\n      and\n        /* \"#utility.yul\":2517:2555   */\n      swap1\n      pop\n        /* \"#utility.yul\":2459:2561   */\n      swap2\n      swap1\n      pop\n      jump\t// out\n        /* \"#utility.yul\":2567:2944   */\n    tag_141:\n        /* \"#utility.yul\":2655:2658   */\n      0x00\n        /* \"#utility.yul\":2683:2722   */\n      tag_227\n        /* \"#utility.yul\":2716:2721   */\n      dup3\n        /* \"#utility.yul\":2683:2722   */\n      tag_137\n      jump\t// in\n    tag_227:\n        /* \"#utility.yul\":2738:2809   */\n      tag_228\n        /* \"#utility.yul\":2802:2808   */\n      dup2\n        /* \"#utility.yul\":2797:2800   */\n      dup6\n        /* \"#utility.yul\":2738:2809   */\n      tag_138\n      jump\t// in\n    tag_228:\n        /* \"#utility.yul\":2731:2809   */\n      swap4\n      pop\n        /* \"#utility.yul\":2818:2883   */\n      tag_229\n        /* \"#utility.yul\":2876:2882   */\n      dup2\n        /* \"#utility.yul\":2871:2874   */\n      dup6\n        /* \"#utility.yul\":2864:2868   */\n      0x20\n        /* \"#utility.yul\":2857:2862   */\n      dup7\n        /* \"#utility.yul\":2853:2869   */\n      add\n        /* \"#utility.yul\":2818:2883   */\n      tag_139\n      jump\t// in\n    tag_229:\n        /* \"#utility.yul\":2908:2937   */\n      tag_230\n        /* \"#utility.yul\":2930:2936   */\n      dup2\n        /* \"#utility.yul\":2908:2937   */\n      tag_140\n      jump\t// in\n    tag_230:\n        /* \"#utility.yul\":2903:2906   */\n      dup5\n        /* \"#utility.yul\":2899:2938   */\n      add\n        /* \"#utility.yul\":2892:2938   */\n      swap2\n      pop\n        /* \"#utility.yul\":2659:2944   */\n      pop\n        /* \"#utility.yul\":2567:2944   */\n      swap3\n      swap2\n      pop\n      pop\n      jump\t// out\n        /* \"#utility.yul\":2950:3705   */\n    tag_18:\n        /* \"#utility.yul\":3175:3179   */\n      0x00\n        /* \"#utility.yul\":3213:3216   */\n      0xa0\n        /* \"#utility.yul\":3202:3211   */\n      dup3\n        /* \"#utility.yul\":3198:3217   */\n      add\n        /* \"#utility.yul\":3190:3217   */\n      swap1\n      pop\n        /* \"#utility.yul\":3227:3298   */\n      tag_232\n        /* \"#utility.yul\":3295:3296   */\n      0x00\n        /* \"#utility.yul\":3284:3293   */\n      dup4\n        /* \"#utility.yul\":3280:3297   */\n      add\n        /* \"#utility.yul\":3271:3277   */\n      dup9\n        /* \"#utility.yul\":3227:3298   */\n      tag_135\n      jump\t// in\n    tag_232:\n        /* \"#utility.yul\":3308:3380   */\n      tag_233\n        /* \"#utility.yul\":3376:3378   */\n      0x20\n        /* \"#utility.yul\":3365:3374   */\n      dup4\n        /* \"#utility.yul\":3361:3379   */\n      add\n        /* \"#utility.yul\":3352:3358   */\n      dup8\n        /* \"#utility.yul\":3308:3380   */\n      tag_136\n      jump\t// in\n    tag_233:\n        /* \"#utility.yul\":3427:3436   */\n      dup2\n        /* \"#utility.yul\":3421:3425   */\n      dup2\n        /* \"#utility.yul\":3417:3437   */\n      sub\n        /* \"#utility.yul\":3412:3414   */\n      0x40\n        /* \"#utility.yul\":3401:3410   */\n      dup4\n        /* \"#utility.yul\":3397:3415   */\n      add\n        /* \"#utility.yul\":3390:3438   */\n      mstore\n        /* \"#utility.yul\":3455:3533   */\n      tag_234\n        /* \"#utility.yul\":3528:3532   */\n      dup2\n        /* \"#utility.yul\":3519:3525   */\n      dup7\n        /* \"#utility.yul\":3455:3533   */\n      tag_141\n      jump\t// in\n    tag_234:\n        /* \"#utility.yul\":3447:3533   */\n      swap1\n      pop\n        /* \"#utility.yul\":3543:3615   */\n      tag_235\n        /* \"#utility.yul\":3611:3613   */\n      0x60\n        /* \"#utility.yul\":3600:3609   */\n      dup4\n        /* \"#utility.yul\":3596:3614   */\n      add\n        /* \"#utility.yul\":3587:3593   */\n      dup6\n        /* \"#utility.yul\":3543:3615   */\n      tag_135\n      jump\t// in\n    tag_235:\n        /* \"#utility.yul\":3625:3698   */\n      tag_236\n        /* \"#utility.yul\":3693:3696   */\n      0x80\n        /* \"#utility.yul\":3682:3691   */\n      dup4\n        /* \"#utility.yul\":3678:3697   */\n      add\n        /* \"#utility.yul\":3669:3675   */\n      dup5\n        /* \"#utility.yul\":3625:3698   */\n      tag_135\n      jump\t// in\n    tag_236:\n        /* \"#utility.yul\":2950:3705   */\n      swap7\n      swap6\n      pop\n      pop\n      pop\n      pop\n      pop\n      pop\n      jump\t// out\n        /* \"#utility.yul\":3711:3800   */\n    tag_142:\n        /* \"#utility.yul\":3747:3754   */\n      0x00\n        /* \"#utility.yul\":3787:3793   */\n      0xffff\n        /* \"#utility.yul\":3780:3785   */\n      dup3\n        /* \"#utility.yul\":3776:3794   */\n      and\n        /* \"#utility.yul\":3765:3794   */\n      swap1\n      pop\n        /* \"#utility.yul\":3711:3800   */\n      swap2\n      swap1\n      pop\n      jump\t// out\n        /* \"#utility.yul\":3806:3926   */\n    tag_143:\n        /* \"#utility.yul\":3878:3901   */\n      tag_239\n        /* \"#utility.yul\":3895:3900   */\n      dup2\n        /* \"#utility.yul\":3878:3901   */\n      tag_142\n      jump\t// in\n    tag_239:\n        /* \"#utility.yul\":3871:3876   */\n      dup2\n        /* \"#utility.yul\":3868:3902   */\n      eq\n        /* \"#utility.yul\":3858:3920   */\n      tag_240\n      jumpi\n        /* \"#utility.yul\":3916:3917   */\n      0x00\n        /* \"#utility.yul\":3913:3914   */\n      dup1\n        /* \"#utility.yul\":3906:3918   */\n      revert\n        /* \"#utility.yul\":3858:3920   */\n    tag_240:\n        /* \"#utility.yul\":3806:3926   */\n      pop\n      jump\t// out\n        /* \"#utility.yul\":3932:4069   */\n    tag_144:\n        /* \"#utility.yul\":3977:3982   */\n      0x00\n        /* \"#utility.yul\":4015:4021   */\n      dup2\n        /* \"#utility.yul\":4002:4022   */\n      calldataload\n        /* \"#utility.yul\":3993:4022   */\n      swap1\n      pop\n        /* \"#utility.yul\":4031:4063   */\n      tag_242\n        /* \"#utility.yul\":4057:4062   */\n      dup2\n        /* \"#utility.yul\":4031:4063   */\n      tag_143\n      jump\t// in\n    tag_242:\n        /* \"#utility.yul\":3932:4069   */\n      swap3\n      swap2\n      pop\n      pop\n      jump\t// out\n        /* \"#utility.yul\":4075:4402   */\n    tag_21:\n        /* \"#utility.yul\":4133:4139   */\n      0x00\n        /* \"#utility.yul\":4182:4184   */\n      0x20\n        /* \"#utility.yul\":4170:4179   */\n      dup3\n        /* \"#utility.yul\":4161:4168   */\n      dup5\n        /* \"#utility.yul\":4157:4180   */\n      sub\n        /* \"#utility.yul\":4153:4185   */\n      slt\n        /* \"#utility.yul\":4150:4269   */\n      iszero\n      tag_244\n      jumpi\n        /* \"#utility.yul\":4188:4267   */\n      tag_245\n      tag_126\n      jump\t// in\n    tag_245:\n        /* \"#utility.yul\":4150:4269   */\n    tag_244:\n        /* \"#utility.yul\":4308:4309   */\n      0x00\n        /* \"#utility.yul\":4333:4385   */\n      tag_246\n        /* \"#utility.yul\":4377:4384   */\n      dup5\n        /* \"#utility.yul\":4368:4374   */\n      dup3\n        /* \"#utility.yul\":4357:4366   */\n      dup6\n        /* \"#utility.yul\":4353:4375   */\n      add\n        /* \"#utility.yul\":4333:4385   */\n      tag_144\n      jump\t// in\n    tag_246:\n        /* \"#utility.yul\":4323:4385   */\n      swap2\n      pop\n        /* \"#utility.yul\":4279:4395   */\n      pop\n        /* \"#utility.yul\":4075:4402   */\n      swap3\n      swap2\n      pop\n      pop\n      jump\t// out\n        /* \"#utility.yul\":4408:4523   */\n    tag_145:\n        /* \"#utility.yul\":4493:4516   */\n      tag_248\n        /* \"#utility.yul\":4510:4515   */\n      dup2\n        /* \"#utility.yul\":4493:4516   */\n      tag_142\n      jump\t// in\n    tag_248:\n        /* \"#utility.yul\":4488:4491   */\n      dup3\n        /* \"#utility.yul\":4481:4517   */\n      mstore\n        /* \"#utility.yul\":4408:4523   */\n      pop\n      pop\n      jump\t// out\n        /* \"#utility.yul\":4529:4747   */\n    tag_26:\n        /* \"#utility.yul\":4620:4624   */\n      0x00\n        /* \"#utility.yul\":4658:4660   */\n      0x20\n        /* \"#utility.yul\":4647:4656   */\n      dup3\n        /* \"#utility.yul\":4643:4661   */\n      add\n        /* \"#utility.yul\":4635:4661   */\n      swap1\n      pop\n        /* \"#utility.yul\":4671:4740   */\n      tag_250\n        /* \"#utility.yul\":4737:4738   */\n      0x00\n        /* \"#utility.yul\":4726:4735   */\n      dup4\n        /* \"#utility.yul\":4722:4739   */\n      add\n        /* \"#utility.yul\":4713:4719   */\n      dup5\n        /* \"#utility.yul\":4671:4740   */\n      tag_145\n      jump\t// in\n    tag_250:\n        /* \"#utility.yul\":4529:4747   */\n      swap3\n      swap2\n      pop\n      pop\n      jump\t// out\n        /* \"#utility.yul\":4753:4870   */\n    tag_146:\n        /* \"#utility.yul\":4862:4863   */\n      0x00\n        /* \"#utility.yul\":4859:4860   */\n      dup1\n        /* \"#utility.yul\":4852:4864   */\n      revert\n        /* \"#utility.yul\":4876:4993   */\n    tag_147:\n        /* \"#utility.yul\":4985:4986   */\n      0x00\n        /* \"#utility.yul\":4982:4983   */\n      dup1\n        /* \"#utility.yul\":4975:4987   */\n      revert\n        /* \"#utility.yul\":4999:5179   */\n    tag_148:\n        /* \"#utility.yul\":5047:5124   */\n      0x4e487b7100000000000000000000000000000000000000000000000000000000\n        /* \"#utility.yul\":5044:5045   */\n      0x00\n        /* \"#utility.yul\":5037:5125   */\n      mstore\n        /* \"#utility.yul\":5144:5148   */\n      0x41\n        /* \"#utility.yul\":5141:5142   */\n      0x04\n        /* \"#utility.yul\":5134:5149   */\n      mstore\n        /* \"#utility.yul\":5168:5172   */\n      0x24\n        /* \"#utility.yul\":5165:5166   */\n      0x00\n        /* \"#utility.yul\":5158:5173   */\n      revert\n        /* \"#utility.yul\":5185:5466   */\n    tag_149:\n        /* \"#utility.yul\":5268:5295   */\n      tag_255\n        /* \"#utility.yul\":5290:5294   */\n      dup3\n        /* \"#utility.yul\":5268:5295   */\n      tag_140\n      jump\t// in\n    tag_255:\n        /* \"#utility.yul\":5260:5266   */\n      dup2\n        /* \"#utility.yul\":5256:5296   */\n      add\n        /* \"#utility.yul\":5398:5404   */\n      dup2\n        /* \"#utility.yul\":5386:5396   */\n      dup2\n        /* \"#utility.yul\":5383:5405   */\n      lt\n        /* \"#utility.yul\":5362:5380   */\n      0xffffffffffffffff\n        /* \"#utility.yul\":5350:5360   */\n      dup3\n        /* \"#utility.yul\":5347:5381   */\n      gt\n        /* \"#utility.yul\":5344:5406   */\n      or\n        /* \"#utility.yul\":5341:5429   */\n      iszero\n      tag_256\n      jumpi\n        /* \"#utility.yul\":5409:5427   */\n      tag_257\n      tag_148\n      jump\t// in\n    tag_257:\n        /* \"#utility.yul\":5341:5429   */\n    tag_256:\n        /* \"#utility.yul\":5449:5459   */\n      dup1\n        /* \"#utility.yul\":5445:5447   */\n      0x40\n        /* \"#utility.yul\":5438:5460   */\n      mstore\n        /* \"#utility.yul\":5228:5466   */\n      pop\n        /* \"#utility.yul\":5185:5466   */\n      pop\n      pop\n      jump\t// out\n        /* \"#utility.yul\":5472:5601   */\n    tag_150:\n        /* \"#utility.yul\":5506:5512   */\n      0x00\n        /* \"#utility.yul\":5533:5553   */\n      tag_259\n      tag_125\n      jump\t// in\n    tag_259:\n        /* \"#utility.yul\":5523:5553   */\n      swap1\n      pop\n        /* \"#utility.yul\":5562:5595   */\n      tag_260\n        /* \"#utility.yul\":5590:5594   */\n      dup3\n        /* \"#utility.yul\":5582:5588   */\n      dup3\n        /* \"#utility.yul\":5562:5595   */\n      tag_149\n      jump\t// in\n    tag_260:\n        /* \"#utility.yul\":5472:5601   */\n      swap2\n      swap1\n      pop\n      jump\t// out\n        /* \"#utility.yul\":5607:5915   */\n    tag_151:\n        /* \"#utility.yul\":5669:5673   */\n      0x00\n        /* \"#utility.yul\":5759:5777   */\n      0xffffffffffffffff\n        /* \"#utility.yul\":5751:5757   */\n      dup3\n        /* \"#utility.yul\":5748:5778   */\n      gt\n        /* \"#utility.yul\":5745:5801   */\n      iszero\n      tag_262\n      jumpi\n        /* \"#utility.yul\":5781:5799   */\n      tag_263\n      tag_148\n      jump\t// in\n    tag_263:\n        /* \"#utility.yul\":5745:5801   */\n    tag_262:\n        /* \"#utility.yul\":5819:5848   */\n      tag_264\n        /* \"#utility.yul\":5841:5847   */\n      dup3\n        /* \"#utility.yul\":5819:5848   */\n      tag_140\n      jump\t// in\n    tag_264:\n        /* \"#utility.yul\":5811:5848   */\n      swap1\n      pop\n        /* \"#utility.yul\":5903:5907   */\n      0x20\n        /* \"#utility.yul\":5897:5901   */\n      dup2\n        /* \"#utility.yul\":5893:5908   */\n      add\n        /* \"#utility.yul\":5885:5908   */\n      swap1\n      pop\n        /* \"#utility.yul\":5607:5915   */\n      swap2\n      swap1\n      pop\n      jump\t// out\n        /* \"#utility.yul\":5921:6069   */\n    tag_152:\n        /* \"#utility.yul\":6019:6025   */\n      dup3\n        /* \"#utility.yul\":6014:6017   */\n      dup2\n        /* \"#utility.yul\":6009:6012   */\n      dup4\n        /* \"#utility.yul\":5996:6026   */\n      calldatacopy\n        /* \"#utility.yul\":6060:6061   */\n      0x00\n        /* \"#utility.yul\":6051:6057   */\n      dup4\n        /* \"#utility.yul\":6046:6049   */\n      dup4\n        /* \"#utility.yul\":6042:6058   */\n      add\n        /* \"#utility.yul\":6035:6062   */\n      mstore\n        /* \"#utility.yul\":5921:6069   */\n      pop\n      pop\n      pop\n      jump\t// out\n        /* \"#utility.yul\":6075:6500   */\n    tag_153:\n        /* \"#utility.yul\":6153:6158   */\n      0x00\n        /* \"#utility.yul\":6178:6244   */\n      tag_267\n        /* \"#utility.yul\":6194:6243   */\n      tag_268\n        /* \"#utility.yul\":6236:6242   */\n      dup5\n        /* \"#utility.yul\":6194:6243   */\n      tag_151\n      jump\t// in\n    tag_268:\n        /* \"#utility.yul\":6178:6244   */\n      tag_150\n      jump\t// in\n    tag_267:\n        /* \"#utility.yul\":6169:6244   */\n      swap1\n      pop\n        /* \"#utility.yul\":6267:6273   */\n      dup3\n        /* \"#utility.yul\":6260:6265   */\n      dup2\n        /* \"#utility.yul\":6253:6274   */\n      mstore\n        /* \"#utility.yul\":6305:6309   */\n      0x20\n        /* \"#utility.yul\":6298:6303   */\n      dup2\n        /* \"#utility.yul\":6294:6310   */\n      add\n        /* \"#utility.yul\":6343:6346   */\n      dup5\n        /* \"#utility.yul\":6334:6340   */\n      dup5\n        /* \"#utility.yul\":6329:6332   */\n      dup5\n        /* \"#utility.yul\":6325:6341   */\n      add\n        /* \"#utility.yul\":6322:6347   */\n      gt\n        /* \"#utility.yul\":6319:6431   */\n      iszero\n      tag_269\n      jumpi\n        /* \"#utility.yul\":6350:6429   */\n      tag_270\n      tag_147\n      jump\t// in\n    tag_270:\n        /* \"#utility.yul\":6319:6431   */\n    tag_269:\n        /* \"#utility.yul\":6440:6494   */\n      tag_271\n        /* \"#utility.yul\":6487:6493   */\n      dup5\n        /* \"#utility.yul\":6482:6485   */\n      dup3\n        /* \"#utility.yul\":6477:6480   */\n      dup6\n        /* \"#utility.yul\":6440:6494   */\n      tag_152\n      jump\t// in\n    tag_271:\n        /* \"#utility.yul\":6159:6500   */\n      pop\n        /* \"#utility.yul\":6075:6500   */\n      swap4\n      swap3\n      pop\n      pop\n      pop\n      jump\t// out\n        /* \"#utility.yul\":6520:6860   */\n    tag_154:\n        /* \"#utility.yul\":6576:6581   */\n      0x00\n        /* \"#utility.yul\":6625:6628   */\n      dup3\n        /* \"#utility.yul\":6618:6622   */\n      0x1f\n        /* \"#utility.yul\":6610:6616   */\n      dup4\n        /* \"#utility.yul\":6606:6623   */\n      add\n        /* \"#utility.yul\":6602:6629   */\n      slt\n        /* \"#utility.yul\":6592:6714   */\n      tag_273\n      jumpi\n        /* \"#utility.yul\":6633:6712   */\n      tag_274\n      tag_146\n      jump\t// in\n    tag_274:\n        /* \"#utility.yul\":6592:6714   */\n    tag_273:\n        /* \"#utility.yul\":6750:6756   */\n      dup2\n        /* \"#utility.yul\":6737:6757   */\n      calldataload\n        /* \"#utility.yul\":6775:6854   */\n      tag_275\n        /* \"#utility.yul\":6850:6853   */\n      dup5\n        /* \"#utility.yul\":6842:6848   */\n      dup3\n        /* \"#utility.yul\":6835:6839   */\n      0x20\n        /* \"#utility.yul\":6827:6833   */\n      dup7\n        /* \"#utility.yul\":6823:6840   */\n      add\n        /* \"#utility.yul\":6775:6854   */\n      tag_153\n      jump\t// in\n    tag_275:\n        /* \"#utility.yul\":6766:6854   */\n      swap2\n      pop\n        /* \"#utility.yul\":6582:6860   */\n      pop\n        /* \"#utility.yul\":6520:6860   */\n      swap3\n      swap2\n      pop\n      pop\n      jump\t// out\n        /* \"#utility.yul\":6866:7375   */\n    tag_29:\n        /* \"#utility.yul\":6935:6941   */\n      0x00\n        /* \"#utility.yul\":6984:6986   */\n      0x20\n        /* \"#utility.yul\":6972:6981   */\n      dup3\n        /* \"#utility.yul\":6963:6970   */\n      dup5\n        /* \"#utility.yul\":6959:6982   */\n      sub\n        /* \"#utility.yul\":6955:6987   */\n      slt\n        /* \"#utility.yul\":6952:7071   */\n      iszero\n      tag_277\n      jumpi\n        /* \"#utility.yul\":6990:7069   */\n      tag_278\n      tag_126\n      jump\t// in\n    tag_278:\n        /* \"#utility.yul\":6952:7071   */\n    tag_277:\n        /* \"#utility.yul\":7138:7139   */\n      0x00\n        /* \"#utility.yul\":7127:7136   */\n      dup3\n        /* \"#utility.yul\":7123:7140   */\n      add\n        /* \"#utility.yul\":7110:7141   */\n      calldataload\n        /* \"#utility.yul\":7168:7186   */\n      0xffffffffffffffff\n        /* \"#utility.yul\":7160:7166   */\n      dup2\n        /* \"#utility.yul\":7157:7187   */\n      gt\n        /* \"#utility.yul\":7154:7271   */\n      iszero\n      tag_279\n      jumpi\n        /* \"#utility.yul\":7190:7269   */\n      tag_280\n      tag_127\n      jump\t// in\n    tag_280:\n        /* \"#utility.yul\":7154:7271   */\n    tag_279:\n        /* \"#utility.yul\":7295:7358   */\n      tag_281\n        /* \"#utility.yul\":7350:7357   */\n      dup5\n        /* \"#utility.yul\":7341:7347   */\n      dup3\n        /* \"#utility.yul\":7330:7339   */\n      dup6\n        /* \"#utility.yul\":7326:7348   */\n      add\n        /* \"#utility.yul\":7295:7358   */\n      tag_154\n      jump\t// in\n    tag_281:\n        /* \"#utility.yul\":7285:7358   */\n      swap2\n      pop\n        /* \"#utility.yul\":7081:7368   */\n      pop\n        /* \"#utility.yul\":6866:7375   */\n      swap3\n      swap2\n      pop\n      pop\n      jump\t// out\n        /* \"#utility.yul\":7381:7603   */\n    tag_34:\n        /* \"#utility.yul\":7474:7478   */\n      0x00\n        /* \"#utility.yul\":7512:7514   */\n      0x20\n        /* \"#utility.yul\":7501:7510   */\n      dup3\n        /* \"#utility.yul\":7497:7515   */\n      add\n        /* \"#utility.yul\":7489:7515   */\n      swap1\n      pop\n        /* \"#utility.yul\":7525:7596   */\n      tag_283\n        /* \"#utility.yul\":7593:7594   */\n      0x00\n        /* \"#utility.yul\":7582:7591   */\n      dup4\n        /* \"#utility.yul\":7578:7595   */\n      add\n        /* \"#utility.yul\":7569:7575   */\n      dup5\n        /* \"#utility.yul\":7525:7596   */\n      tag_136\n      jump\t// in\n    tag_283:\n        /* \"#utility.yul\":7381:7603   */\n      swap3\n      swap2\n      pop\n      pop\n      jump\t// out\n        /* \"#utility.yul\":7609:8083   */\n    tag_37:\n        /* \"#utility.yul\":7677:7683   */\n      0x00\n        /* \"#utility.yul\":7685:7691   */\n      dup1\n        /* \"#utility.yul\":7734:7736   */\n      0x40\n        /* \"#utility.yul\":7722:7731   */\n      dup4\n        /* \"#utility.yul\":7713:7720   */\n      dup6\n        /* \"#utility.yul\":7709:7732   */\n      sub\n        /* \"#utility.yul\":7705:7737   */\n      slt\n        /* \"#utility.yul\":7702:7821   */\n      iszero\n      tag_285\n      jumpi\n        /* \"#utility.yul\":7740:7819   */\n      tag_286\n      tag_126\n      jump\t// in\n    tag_286:\n        /* \"#utility.yul\":7702:7821   */\n    tag_285:\n        /* \"#utility.yul\":7860:7861   */\n      0x00\n        /* \"#utility.yul\":7885:7938   */\n      tag_287\n        /* \"#utility.yul\":7930:7937   */\n      dup6\n        /* \"#utility.yul\":7921:7927   */\n      dup3\n        /* \"#utility.yul\":7910:7919   */\n      dup7\n        /* \"#utility.yul\":7906:7928   */\n      add\n        /* \"#utility.yul\":7885:7938   */\n      tag_134\n      jump\t// in\n    tag_287:\n        /* \"#utility.yul\":7875:7938   */\n      swap3\n      pop\n        /* \"#utility.yul\":7831:7948   */\n      pop\n        /* \"#utility.yul\":7987:7989   */\n      0x20\n        /* \"#utility.yul\":8013:8066   */\n      tag_288\n        /* \"#utility.yul\":8058:8065   */\n      dup6\n        /* \"#utility.yul\":8049:8055   */\n      dup3\n        /* \"#utility.yul\":8038:8047   */\n      dup7\n        /* \"#utility.yul\":8034:8056   */\n      add\n        /* \"#utility.yul\":8013:8066   */\n      tag_131\n      jump\t// in\n    tag_288:\n        /* \"#utility.yul\":8003:8066   */\n      swap2\n      pop\n        /* \"#utility.yul\":7958:8076   */\n      pop\n        /* \"#utility.yul\":7609:8083   */\n      swap3\n      pop\n      swap3\n      swap1\n      pop\n      jump\t// out\n        /* \"#utility.yul\":8089:8418   */\n    tag_41:\n        /* \"#utility.yul\":8148:8154   */\n      0x00\n        /* \"#utility.yul\":8197:8199   */\n      0x20\n        /* \"#utility.yul\":8185:8194   */\n      dup3\n        /* \"#utility.yul\":8176:8183   */\n      dup5\n        /* \"#utility.yul\":8172:8195   */\n      sub\n        /* \"#utility.yul\":8168:8200   */\n      slt\n        /* \"#utility.yul\":8165:8284   */\n      iszero\n      tag_290\n      jumpi\n        /* \"#utility.yul\":8203:8282   */\n      tag_291\n      tag_126\n      jump\t// in\n    tag_291:\n        /* \"#utility.yul\":8165:8284   */\n    tag_290:\n        /* \"#utility.yul\":8323:8324   */\n      0x00\n        /* \"#utility.yul\":8348:8401   */\n      tag_292\n        /* \"#utility.yul\":8393:8400   */\n      dup5\n        /* \"#utility.yul\":8384:8390   */\n      dup3\n        /* \"#utility.yul\":8373:8382   */\n      dup6\n        /* \"#utility.yul\":8369:8391   */\n      add\n        /* \"#utility.yul\":8348:8401   */\n      tag_131\n      jump\t// in\n    tag_292:\n        /* \"#utility.yul\":8338:8401   */\n      swap2\n      pop\n        /* \"#utility.yul\":8294:8411   */\n      pop\n        /* \"#utility.yul\":8089:8418   */\n      swap3\n      swap2\n      pop\n      pop\n      jump\t// out\n        /* \"#utility.yul\":8424:8559   */\n    tag_155:\n        /* \"#utility.yul\":8512:8518   */\n      0x00\n        /* \"#utility.yul\":8546:8551   */\n      dup2\n        /* \"#utility.yul\":8540:8552   */\n      mload\n        /* \"#utility.yul\":8530:8552   */\n      swap1\n      pop\n        /* \"#utility.yul\":8424:8559   */\n      swap2\n      swap1\n      pop\n      jump\t// out\n        /* \"#utility.yul\":8565:8770   */\n    tag_156:\n        /* \"#utility.yul\":8685:8696   */\n      0x00\n        /* \"#utility.yul\":8719:8725   */\n      dup3\n        /* \"#utility.yul\":8714:8717   */\n      dup3\n        /* \"#utility.yul\":8707:8726   */\n      mstore\n        /* \"#utility.yul\":8759:8763   */\n      0x20\n        /* \"#utility.yul\":8754:8757   */\n      dup3\n        /* \"#utility.yul\":8750:8764   */\n      add\n        /* \"#utility.yul\":8735:8764   */\n      swap1\n      pop\n        /* \"#utility.yul\":8565:8770   */\n      swap3\n      swap2\n      pop\n      pop\n      jump\t// out\n        /* \"#utility.yul\":8776:8929   */\n    tag_157:\n        /* \"#utility.yul\":8864:8868   */\n      0x00\n        /* \"#utility.yul\":8887:8890   */\n      dup2\n        /* \"#utility.yul\":8879:8890   */\n      swap1\n      pop\n        /* \"#utility.yul\":8917:8921   */\n      0x20\n        /* \"#utility.yul\":8912:8915   */\n      dup3\n        /* \"#utility.yul\":8908:8922   */\n      add\n        /* \"#utility.yul\":8900:8922   */\n      swap1\n      pop\n        /* \"#utility.yul\":8776:8929   */\n      swap2\n      swap1\n      pop\n      jump\t// out\n        /* \"#utility.yul\":8935:9043   */\n    tag_158:\n        /* \"#utility.yul\":9012:9036   */\n      tag_297\n        /* \"#utility.yul\":9030:9035   */\n      dup2\n        /* \"#utility.yul\":9012:9036   */\n      tag_132\n      jump\t// in\n    tag_297:\n        /* \"#utility.yul\":9007:9010   */\n      dup3\n        /* \"#utility.yul\":9000:9037   */\n      mstore\n        /* \"#utility.yul\":8935:9043   */\n      pop\n      pop\n      jump\t// out\n        /* \"#utility.yul\":9049:9157   */\n    tag_159:\n        /* \"#utility.yul\":9126:9150   */\n      tag_299\n        /* \"#utility.yul\":9144:9149   */\n      dup2\n        /* \"#utility.yul\":9126:9150   */\n      tag_129\n      jump\t// in\n    tag_299:\n        /* \"#utility.yul\":9121:9124   */\n      dup3\n        /* \"#utility.yul\":9114:9151   */\n      mstore\n        /* \"#utility.yul\":9049:9157   */\n      pop\n      pop\n      jump\t// out\n        /* \"#utility.yul\":9163:9322   */\n    tag_160:\n        /* \"#utility.yul\":9237:9248   */\n      0x00\n        /* \"#utility.yul\":9271:9277   */\n      dup3\n        /* \"#utility.yul\":9266:9269   */\n      dup3\n        /* \"#utility.yul\":9259:9278   */\n      mstore\n        /* \"#utility.yul\":9311:9315   */\n      0x20\n        /* \"#utility.yul\":9306:9309   */\n      dup3\n        /* \"#utility.yul\":9302:9316   */\n      add\n        /* \"#utility.yul\":9287:9316   */\n      swap1\n      pop\n        /* \"#utility.yul\":9163:9322   */\n      swap3\n      swap2\n      pop\n      pop\n      jump\t// out\n        /* \"#utility.yul\":9328:9685   */\n    tag_161:\n        /* \"#utility.yul\":9406:9409   */\n      0x00\n        /* \"#utility.yul\":9434:9473   */\n      tag_302\n        /* \"#utility.yul\":9467:9472   */\n      dup3\n        /* \"#utility.yul\":9434:9473   */\n      tag_137\n      jump\t// in\n    tag_302:\n        /* \"#utility.yul\":9489:9550   */\n      tag_303\n        /* \"#utility.yul\":9543:9549   */\n      dup2\n        /* \"#utility.yul\":9538:9541   */\n      dup6\n        /* \"#utility.yul\":9489:9550   */\n      tag_160\n      jump\t// in\n    tag_303:\n        /* \"#utility.yul\":9482:9550   */\n      swap4\n      pop\n        /* \"#utility.yul\":9559:9624   */\n      tag_304\n        /* \"#utility.yul\":9617:9623   */\n      dup2\n        /* \"#utility.yul\":9612:9615   */\n      dup6\n        /* \"#utility.yul\":9605:9609   */\n      0x20\n        /* \"#utility.yul\":9598:9603   */\n      dup7\n        /* \"#utility.yul\":9594:9610   */\n      add\n        /* \"#utility.yul\":9559:9624   */\n      tag_139\n      jump\t// in\n    tag_304:\n        /* \"#utility.yul\":9649:9678   */\n      tag_305\n        /* \"#utility.yul\":9671:9677   */\n      dup2\n        /* \"#utility.yul\":9649:9678   */\n      tag_140\n      jump\t// in\n    tag_305:\n        /* \"#utility.yul\":9644:9647   */\n      dup5\n        /* \"#utility.yul\":9640:9679   */\n      add\n        /* \"#utility.yul\":9633:9679   */\n      swap2\n      pop\n        /* \"#utility.yul\":9410:9685   */\n      pop\n        /* \"#utility.yul\":9328:9685   */\n      swap3\n      swap2\n      pop\n      pop\n      jump\t// out\n        /* \"#utility.yul\":9743:10860   */\n    tag_162:\n        /* \"#utility.yul\":9844:9847   */\n      0x00\n        /* \"#utility.yul\":9880:9884   */\n      0xa0\n        /* \"#utility.yul\":9875:9878   */\n      dup4\n        /* \"#utility.yul\":9871:9885   */\n      add\n        /* \"#utility.yul\":9965:9969   */\n      0x00\n        /* \"#utility.yul\":9958:9963   */\n      dup4\n        /* \"#utility.yul\":9954:9970   */\n      add\n        /* \"#utility.yul\":9948:9971   */\n      mload\n        /* \"#utility.yul\":9984:10047   */\n      tag_307\n        /* \"#utility.yul\":10041:10045   */\n      0x00\n        /* \"#utility.yul\":10036:10039   */\n      dup7\n        /* \"#utility.yul\":10032:10046   */\n      add\n        /* \"#utility.yul\":10018:10030   */\n      dup3\n        /* \"#utility.yul\":9984:10047   */\n      tag_158\n      jump\t// in\n    tag_307:\n        /* \"#utility.yul\":9895:10057   */\n      pop\n        /* \"#utility.yul\":10141:10145   */\n      0x20\n        /* \"#utility.yul\":10134:10139   */\n      dup4\n        /* \"#utility.yul\":10130:10146   */\n      add\n        /* \"#utility.yul\":10124:10147   */\n      mload\n        /* \"#utility.yul\":10160:10223   */\n      tag_308\n        /* \"#utility.yul\":10217:10221   */\n      0x20\n        /* \"#utility.yul\":10212:10215   */\n      dup7\n        /* \"#utility.yul\":10208:10222   */\n      add\n        /* \"#utility.yul\":10194:10206   */\n      dup3\n        /* \"#utility.yul\":10160:10223   */\n      tag_159\n      jump\t// in\n    tag_308:\n        /* \"#utility.yul\":10067:10233   */\n      pop\n        /* \"#utility.yul\":10316:10320   */\n      0x40\n        /* \"#utility.yul\":10309:10314   */\n      dup4\n        /* \"#utility.yul\":10305:10321   */\n      add\n        /* \"#utility.yul\":10299:10322   */\n      mload\n        /* \"#utility.yul\":10369:10372   */\n      dup5\n        /* \"#utility.yul\":10363:10367   */\n      dup3\n        /* \"#utility.yul\":10359:10373   */\n      sub\n        /* \"#utility.yul\":10352:10356   */\n      0x40\n        /* \"#utility.yul\":10347:10350   */\n      dup7\n        /* \"#utility.yul\":10343:10357   */\n      add\n        /* \"#utility.yul\":10336:10374   */\n      mstore\n        /* \"#utility.yul\":10395:10468   */\n      tag_309\n        /* \"#utility.yul\":10463:10467   */\n      dup3\n        /* \"#utility.yul\":10449:10461   */\n      dup3\n        /* \"#utility.yul\":10395:10468   */\n      tag_161\n      jump\t// in\n    tag_309:\n        /* \"#utility.yul\":10387:10468   */\n      swap2\n      pop\n        /* \"#utility.yul\":10243:10479   */\n      pop\n        /* \"#utility.yul\":10566:10570   */\n      0x60\n        /* \"#utility.yul\":10559:10564   */\n      dup4\n        /* \"#utility.yul\":10555:10571   */\n      add\n        /* \"#utility.yul\":10549:10572   */\n      mload\n        /* \"#utility.yul\":10585:10648   */\n      tag_310\n        /* \"#utility.yul\":10642:10646   */\n      0x60\n        /* \"#utility.yul\":10637:10640   */\n      dup7\n        /* \"#utility.yul\":10633:10647   */\n      add\n        /* \"#utility.yul\":10619:10631   */\n      dup3\n        /* \"#utility.yul\":10585:10648   */\n      tag_158\n      jump\t// in\n    tag_310:\n        /* \"#utility.yul\":10489:10658   */\n      pop\n        /* \"#utility.yul\":10741:10745   */\n      0x80\n        /* \"#utility.yul\":10734:10739   */\n      dup4\n        /* \"#utility.yul\":10730:10746   */\n      add\n        /* \"#utility.yul\":10724:10747   */\n      mload\n        /* \"#utility.yul\":10760:10823   */\n      tag_311\n        /* \"#utility.yul\":10817:10821   */\n      0x80\n        /* \"#utility.yul\":10812:10815   */\n      dup7\n        /* \"#utility.yul\":10808:10822   */\n      add\n        /* \"#utility.yul\":10794:10806   */\n      dup3\n        /* \"#utility.yul\":10760:10823   */\n      tag_158\n      jump\t// in\n    tag_311:\n        /* \"#utility.yul\":10668:10833   */\n      pop\n        /* \"#utility.yul\":10850:10854   */\n      dup1\n        /* \"#utility.yul\":10843:10854   */\n      swap2\n      pop\n        /* \"#utility.yul\":9849:10860   */\n      pop\n        /* \"#utility.yul\":9743:10860   */\n      swap3\n      swap2\n      pop\n      pop\n      jump\t// out\n        /* \"#utility.yul\":10866:11106   */\n    tag_163:\n        /* \"#utility.yul\":10977:10987   */\n      0x00\n        /* \"#utility.yul\":11012:11100   */\n      tag_313\n        /* \"#utility.yul\":11096:11099   */\n      dup4\n        /* \"#utility.yul\":11088:11094   */\n      dup4\n        /* \"#utility.yul\":11012:11100   */\n      tag_162\n      jump\t// in\n    tag_313:\n        /* \"#utility.yul\":10998:11100   */\n      swap1\n      pop\n        /* \"#utility.yul\":10866:11106   */\n      swap3\n      swap2\n      pop\n      pop\n      jump\t// out\n        /* \"#utility.yul\":11112:11246   */\n    tag_164:\n        /* \"#utility.yul\":11203:11207   */\n      0x00\n        /* \"#utility.yul\":11235:11239   */\n      0x20\n        /* \"#utility.yul\":11230:11233   */\n      dup3\n        /* \"#utility.yul\":11226:11240   */\n      add\n        /* \"#utility.yul\":11218:11240   */\n      swap1\n      pop\n        /* \"#utility.yul\":11112:11246   */\n      swap2\n      swap1\n      pop\n      jump\t// out\n        /* \"#utility.yul\":11308:12387   */\n    tag_165:\n        /* \"#utility.yul\":11469:11472   */\n      0x00\n        /* \"#utility.yul\":11498:11573   */\n      tag_316\n        /* \"#utility.yul\":11567:11572   */\n      dup3\n        /* \"#utility.yul\":11498:11573   */\n      tag_155\n      jump\t// in\n    tag_316:\n        /* \"#utility.yul\":11589:11696   */\n      tag_317\n        /* \"#utility.yul\":11689:11695   */\n      dup2\n        /* \"#utility.yul\":11684:11687   */\n      dup6\n        /* \"#utility.yul\":11589:11696   */\n      tag_156\n      jump\t// in\n    tag_317:\n        /* \"#utility.yul\":11582:11696   */\n      swap4\n      pop\n        /* \"#utility.yul\":11722:11725   */\n      dup4\n        /* \"#utility.yul\":11767:11771   */\n      0x20\n        /* \"#utility.yul\":11759:11765   */\n      dup3\n        /* \"#utility.yul\":11755:11772   */\n      mul\n        /* \"#utility.yul\":11750:11753   */\n      dup6\n        /* \"#utility.yul\":11746:11773   */\n      add\n        /* \"#utility.yul\":11797:11874   */\n      tag_318\n        /* \"#utility.yul\":11868:11873   */\n      dup6\n        /* \"#utility.yul\":11797:11874   */\n      tag_157\n      jump\t// in\n    tag_318:\n        /* \"#utility.yul\":11897:11904   */\n      dup1\n        /* \"#utility.yul\":11928:11929   */\n      0x00\n        /* \"#utility.yul\":11913:12342   */\n    tag_319:\n        /* \"#utility.yul\":11938:11944   */\n      dup6\n        /* \"#utility.yul\":11935:11936   */\n      dup2\n        /* \"#utility.yul\":11932:11945   */\n      lt\n        /* \"#utility.yul\":11913:12342   */\n      iszero\n      tag_321\n      jumpi\n        /* \"#utility.yul\":12009:12018   */\n      dup5\n        /* \"#utility.yul\":12003:12007   */\n      dup5\n        /* \"#utility.yul\":11999:12019   */\n      sub\n        /* \"#utility.yul\":11994:11997   */\n      dup10\n        /* \"#utility.yul\":11987:12020   */\n      mstore\n        /* \"#utility.yul\":12060:12066   */\n      dup2\n        /* \"#utility.yul\":12054:12067   */\n      mload\n        /* \"#utility.yul\":12088:12194   */\n      tag_322\n        /* \"#utility.yul\":12189:12193   */\n      dup6\n        /* \"#utility.yul\":12174:12187   */\n      dup3\n        /* \"#utility.yul\":12088:12194   */\n      tag_163\n      jump\t// in\n    tag_322:\n        /* \"#utility.yul\":12080:12194   */\n      swap5\n      pop\n        /* \"#utility.yul\":12217:12298   */\n      tag_323\n        /* \"#utility.yul\":12291:12297   */\n      dup4\n        /* \"#utility.yul\":12217:12298   */\n      tag_164\n      jump\t// in\n    tag_323:\n        /* \"#utility.yul\":12207:12298   */\n      swap3\n      pop\n        /* \"#utility.yul\":12327:12331   */\n      0x20\n        /* \"#utility.yul\":12322:12325   */\n      dup11\n        /* \"#utility.yul\":12318:12332   */\n      add\n        /* \"#utility.yul\":12311:12332   */\n      swap10\n      pop\n        /* \"#utility.yul\":11973:12342   */\n      pop\n        /* \"#utility.yul\":11960:11961   */\n      0x01\n        /* \"#utility.yul\":11957:11958   */\n      dup2\n        /* \"#utility.yul\":11953:11962   */\n      add\n        /* \"#utility.yul\":11948:11962   */\n      swap1\n      pop\n        /* \"#utility.yul\":11913:12342   */\n      jump(tag_319)\n    tag_321:\n        /* \"#utility.yul\":11917:11931   */\n      pop\n        /* \"#utility.yul\":12358:12362   */\n      dup3\n        /* \"#utility.yul\":12351:12362   */\n      swap8\n      pop\n        /* \"#utility.yul\":12378:12381   */\n      dup8\n        /* \"#utility.yul\":12371:12381   */\n      swap6\n      pop\n        /* \"#utility.yul\":11474:12387   */\n      pop\n      pop\n      pop\n      pop\n      pop\n        /* \"#utility.yul\":11308:12387   */\n      swap3\n      swap2\n      pop\n      pop\n      jump\t// out\n        /* \"#utility.yul\":12393:12850   */\n    tag_44:\n        /* \"#utility.yul\":12578:12582   */\n      0x00\n        /* \"#utility.yul\":12616:12618   */\n      0x20\n        /* \"#utility.yul\":12605:12614   */\n      dup3\n        /* \"#utility.yul\":12601:12619   */\n      add\n        /* \"#utility.yul\":12593:12619   */\n      swap1\n      pop\n        /* \"#utility.yul\":12665:12674   */\n      dup2\n        /* \"#utility.yul\":12659:12663   */\n      dup2\n        /* \"#utility.yul\":12655:12675   */\n      sub\n        /* \"#utility.yul\":12651:12652   */\n      0x00\n        /* \"#utility.yul\":12640:12649   */\n      dup4\n        /* \"#utility.yul\":12636:12653   */\n      add\n        /* \"#utility.yul\":12629:12676   */\n      mstore\n        /* \"#utility.yul\":12693:12843   */\n      tag_325\n        /* \"#utility.yul\":12838:12842   */\n      dup2\n        /* \"#utility.yul\":12829:12835   */\n      dup5\n        /* \"#utility.yul\":12693:12843   */\n      tag_165\n      jump\t// in\n    tag_325:\n        /* \"#utility.yul\":12685:12843   */\n      swap1\n      pop\n        /* \"#utility.yul\":12393:12850   */\n      swap3\n      swap2\n      pop\n      pop\n      jump\t// out\n        /* \"#utility.yul\":12856:13185   */\n    tag_47:\n        /* \"#utility.yul\":12915:12921   */\n      0x00\n        /* \"#utility.yul\":12964:12966   */\n      0x20\n        /* \"#utility.yul\":12952:12961   */\n      dup3\n        /* \"#utility.yul\":12943:12950   */\n      dup5\n        /* \"#utility.yul\":12939:12962   */\n      sub\n        /* \"#utility.yul\":12935:12967   */\n      slt\n        /* \"#utility.yul\":12932:13051   */\n      iszero\n      tag_327\n      jumpi\n        /* \"#utility.yul\":12970:13049   */\n      tag_328\n      tag_126\n      jump\t// in\n    tag_328:\n        /* \"#utility.yul\":12932:13051   */\n    tag_327:\n        /* \"#utility.yul\":13090:13091   */\n      0x00\n        /* \"#utility.yul\":13115:13168   */\n      tag_329\n        /* \"#utility.yul\":13160:13167   */\n      dup5\n        /* \"#utility.yul\":13151:13157   */\n      dup3\n        /* \"#utility.yul\":13140:13149   */\n      dup6\n        /* \"#utility.yul\":13136:13158   */\n      add\n        /* \"#utility.yul\":13115:13168   */\n      tag_134\n      jump\t// in\n    tag_329:\n        /* \"#utility.yul\":13105:13168   */\n      swap2\n      pop\n        /* \"#utility.yul\":13061:13178   */\n      pop\n        /* \"#utility.yul\":12856:13185   */\n      swap3\n      swap2\n      pop\n      pop\n      jump\t// out\n        /* \"#utility.yul\":13243:14370   */\n    tag_166:\n        /* \"#utility.yul\":13354:13357   */\n      0x00\n        /* \"#utility.yul\":13390:13394   */\n      0xa0\n        /* \"#utility.yul\":13385:13388   */\n      dup4\n        /* \"#utility.yul\":13381:13395   */\n      add\n        /* \"#utility.yul\":13475:13479   */\n      0x00\n        /* \"#utility.yul\":13468:13473   */\n      dup4\n        /* \"#utility.yul\":13464:13480   */\n      add\n        /* \"#utility.yul\":13458:13481   */\n      mload\n        /* \"#utility.yul\":13494:13557   */\n      tag_331\n        /* \"#utility.yul\":13551:13555   */\n      0x00\n        /* \"#utility.yul\":13546:13549   */\n      dup7\n        /* \"#utility.yul\":13542:13556   */\n      add\n        /* \"#utility.yul\":13528:13540   */\n      dup3\n        /* \"#utility.yul\":13494:13557   */\n      tag_158\n      jump\t// in\n    tag_331:\n        /* \"#utility.yul\":13405:13567   */\n      pop\n        /* \"#utility.yul\":13651:13655   */\n      0x20\n        /* \"#utility.yul\":13644:13649   */\n      dup4\n        /* \"#utility.yul\":13640:13656   */\n      add\n        /* \"#utility.yul\":13634:13657   */\n      mload\n        /* \"#utility.yul\":13670:13733   */\n      tag_332\n        /* \"#utility.yul\":13727:13731   */\n      0x20\n        /* \"#utility.yul\":13722:13725   */\n      dup7\n        /* \"#utility.yul\":13718:13732   */\n      add\n        /* \"#utility.yul\":13704:13716   */\n      dup3\n        /* \"#utility.yul\":13670:13733   */\n      tag_159\n      jump\t// in\n    tag_332:\n        /* \"#utility.yul\":13577:13743   */\n      pop\n        /* \"#utility.yul\":13826:13830   */\n      0x40\n        /* \"#utility.yul\":13819:13824   */\n      dup4\n        /* \"#utility.yul\":13815:13831   */\n      add\n        /* \"#utility.yul\":13809:13832   */\n      mload\n        /* \"#utility.yul\":13879:13882   */\n      dup5\n        /* \"#utility.yul\":13873:13877   */\n      dup3\n        /* \"#utility.yul\":13869:13883   */\n      sub\n        /* \"#utility.yul\":13862:13866   */\n      0x40\n        /* \"#utility.yul\":13857:13860   */\n      dup7\n        /* \"#utility.yul\":13853:13867   */\n      add\n        /* \"#utility.yul\":13846:13884   */\n      mstore\n        /* \"#utility.yul\":13905:13978   */\n      tag_333\n        /* \"#utility.yul\":13973:13977   */\n      dup3\n        /* \"#utility.yul\":13959:13971   */\n      dup3\n        /* \"#utility.yul\":13905:13978   */\n      tag_161\n      jump\t// in\n    tag_333:\n        /* \"#utility.yul\":13897:13978   */\n      swap2\n      pop\n        /* \"#utility.yul\":13753:13989   */\n      pop\n        /* \"#utility.yul\":14076:14080   */\n      0x60\n        /* \"#utility.yul\":14069:14074   */\n      dup4\n        /* \"#utility.yul\":14065:14081   */\n      add\n        /* \"#utility.yul\":14059:14082   */\n      mload\n        /* \"#utility.yul\":14095:14158   */\n      tag_334\n        /* \"#utility.yul\":14152:14156   */\n      0x60\n        /* \"#utility.yul\":14147:14150   */\n      dup7\n        /* \"#utility.yul\":14143:14157   */\n      add\n        /* \"#utility.yul\":14129:14141   */\n      dup3\n        /* \"#utility.yul\":14095:14158   */\n      tag_158\n      jump\t// in\n    tag_334:\n        /* \"#utility.yul\":13999:14168   */\n      pop\n        /* \"#utility.yul\":14251:14255   */\n      0x80\n        /* \"#utility.yul\":14244:14249   */\n      dup4\n        /* \"#utility.yul\":14240:14256   */\n      add\n        /* \"#utility.yul\":14234:14257   */\n      mload\n        /* \"#utility.yul\":14270:14333   */\n      tag_335\n        /* \"#utility.yul\":14327:14331   */\n      0x80\n        /* \"#utility.yul\":14322:14325   */\n      dup7\n        /* \"#utility.yul\":14318:14332   */\n      add\n        /* \"#utility.yul\":14304:14316   */\n      dup3\n        /* \"#utility.yul\":14270:14333   */\n      tag_158\n      jump\t// in\n    tag_335:\n        /* \"#utility.yul\":14178:14343   */\n      pop\n        /* \"#utility.yul\":14360:14364   */\n      dup1\n        /* \"#utility.yul\":14353:14364   */\n      swap2\n      pop\n        /* \"#utility.yul\":13359:14370   */\n      pop\n        /* \"#utility.yul\":13243:14370   */\n      swap3\n      swap2\n      pop\n      pop\n      jump\t// out\n        /* \"#utility.yul\":14376:14733   */\n    tag_50:\n        /* \"#utility.yul\":14511:14515   */\n      0x00\n        /* \"#utility.yul\":14549:14551   */\n      0x20\n        /* \"#utility.yul\":14538:14547   */\n      dup3\n        /* \"#utility.yul\":14534:14552   */\n      add\n        /* \"#utility.yul\":14526:14552   */\n      swap1\n      pop\n        /* \"#utility.yul\":14598:14607   */\n      dup2\n        /* \"#utility.yul\":14592:14596   */\n      dup2\n        /* \"#utility.yul\":14588:14608   */\n      sub\n        /* \"#utility.yul\":14584:14585   */\n      0x00\n        /* \"#utility.yul\":14573:14582   */\n      dup4\n        /* \"#utility.yul\":14569:14586   */\n      add\n        /* \"#utility.yul\":14562:14609   */\n      mstore\n        /* \"#utility.yul\":14626:14726   */\n      tag_337\n        /* \"#utility.yul\":14721:14725   */\n      dup2\n        /* \"#utility.yul\":14712:14718   */\n      dup5\n        /* \"#utility.yul\":14626:14726   */\n      tag_166\n      jump\t// in\n    tag_337:\n        /* \"#utility.yul\":14618:14726   */\n      swap1\n      pop\n        /* \"#utility.yul\":14376:14733   */\n      swap3\n      swap2\n      pop\n      pop\n      jump\t// out\n        /* \"#utility.yul\":14739:14919   */\n    tag_167:\n        /* \"#utility.yul\":14787:14864   */\n      0x4e487b7100000000000000000000000000000000000000000000000000000000\n        /* \"#utility.yul\":14784:14785   */\n      0x00\n        /* \"#utility.yul\":14777:14865   */\n      mstore\n        /* \"#utility.yul\":14884:14888   */\n      0x22\n        /* \"#utility.yul\":14881:14882   */\n      0x04\n        /* \"#utility.yul\":14874:14889   */\n      mstore\n        /* \"#utility.yul\":14908:14912   */\n      0x24\n        /* \"#utility.yul\":14905:14906   */\n      0x00\n        /* \"#utility.yul\":14898:14913   */\n      revert\n        /* \"#utility.yul\":14925:15245   */\n    tag_57:\n        /* \"#utility.yul\":14969:14975   */\n      0x00\n        /* \"#utility.yul\":15006:15007   */\n      0x02\n        /* \"#utility.yul\":15000:15004   */\n      dup3\n        /* \"#utility.yul\":14996:15008   */\n      div\n        /* \"#utility.yul\":14986:15008   */\n      swap1\n      pop\n        /* \"#utility.yul\":15053:15054   */\n      0x01\n        /* \"#utility.yul\":15047:15051   */\n      dup3\n        /* \"#utility.yul\":15043:15055   */\n      and\n        /* \"#utility.yul\":15074:15092   */\n      dup1\n        /* \"#utility.yul\":15064:15145   */\n      tag_340\n      jumpi\n        /* \"#utility.yul\":15130:15134   */\n      0x7f\n        /* \"#utility.yul\":15122:15128   */\n      dup3\n        /* \"#utility.yul\":15118:15135   */\n      and\n        /* \"#utility.yul\":15108:15135   */\n      swap2\n      pop\n        /* \"#utility.yul\":15064:15145   */\n    tag_340:\n        /* \"#utility.yul\":15192:15194   */\n      0x20\n        /* \"#utility.yul\":15184:15190   */\n      dup3\n        /* \"#utility.yul\":15181:15195   */\n      lt\n        /* \"#utility.yul\":15161:15179   */\n      dup2\n        /* \"#utility.yul\":15158:15196   */\n      sub\n        /* \"#utility.yul\":15155:15239   */\n      tag_341\n      jumpi\n        /* \"#utility.yul\":15211:15229   */\n      tag_342\n      tag_167\n      jump\t// in\n    tag_342:\n        /* \"#utility.yul\":15155:15239   */\n    tag_341:\n        /* \"#utility.yul\":14976:15245   */\n      pop\n        /* \"#utility.yul\":14925:15245   */\n      swap2\n      swap1\n      pop\n      jump\t// out\n        /* \"#utility.yul\":15251:15479   */\n    tag_168:\n        /* \"#utility.yul\":15391:15425   */\n      0x596f7520617265206e6f7420746865206f776e6572206f66207468697320636f\n        /* \"#utility.yul\":15387:15388   */\n      0x00\n        /* \"#utility.yul\":15379:15385   */\n      dup3\n        /* \"#utility.yul\":15375:15389   */\n      add\n        /* \"#utility.yul\":15368:15426   */\n      mstore\n        /* \"#utility.yul\":15460:15471   */\n      0x6e74726163742121210000000000000000000000000000000000000000000000\n        /* \"#utility.yul\":15455:15457   */\n      0x20\n        /* \"#utility.yul\":15447:15453   */\n      dup3\n        /* \"#utility.yul\":15443:15458   */\n      add\n        /* \"#utility.yul\":15436:15472   */\n      mstore\n        /* \"#utility.yul\":15251:15479   */\n      pop\n      jump\t// out\n        /* \"#utility.yul\":15485:15851   */\n    tag_169:\n        /* \"#utility.yul\":15627:15630   */\n      0x00\n        /* \"#utility.yul\":15648:15715   */\n      tag_345\n        /* \"#utility.yul\":15712:15714   */\n      0x29\n        /* \"#utility.yul\":15707:15710   */\n      dup4\n        /* \"#utility.yul\":15648:15715   */\n      tag_138\n      jump\t// in\n    tag_345:\n        /* \"#utility.yul\":15641:15715   */\n      swap2\n      pop\n        /* \"#utility.yul\":15724:15817   */\n      tag_346\n        /* \"#utility.yul\":15813:15816   */\n      dup3\n        /* \"#utility.yul\":15724:15817   */\n      tag_168\n      jump\t// in\n    tag_346:\n        /* \"#utility.yul\":15842:15844   */\n      0x40\n        /* \"#utility.yul\":15837:15840   */\n      dup3\n        /* \"#utility.yul\":15833:15845   */\n      add\n        /* \"#utility.yul\":15826:15845   */\n      swap1\n      pop\n        /* \"#utility.yul\":15485:15851   */\n      swap2\n      swap1\n      pop\n      jump\t// out\n        /* \"#utility.yul\":15857:16276   */\n    tag_65:\n        /* \"#utility.yul\":16023:16027   */\n      0x00\n        /* \"#utility.yul\":16061:16063   */\n      0x20\n        /* \"#utility.yul\":16050:16059   */\n      dup3\n        /* \"#utility.yul\":16046:16064   */\n      add\n        /* \"#utility.yul\":16038:16064   */\n      swap1\n      pop\n        /* \"#utility.yul\":16110:16119   */\n      dup2\n        /* \"#utility.yul\":16104:16108   */\n      dup2\n        /* \"#utility.yul\":16100:16120   */\n      sub\n        /* \"#utility.yul\":16096:16097   */\n      0x00\n        /* \"#utility.yul\":16085:16094   */\n      dup4\n        /* \"#utility.yul\":16081:16098   */\n      add\n        /* \"#utility.yul\":16074:16121   */\n      mstore\n        /* \"#utility.yul\":16138:16269   */\n      tag_348\n        /* \"#utility.yul\":16264:16268   */\n      dup2\n        /* \"#utility.yul\":16138:16269   */\n      tag_169\n      jump\t// in\n    tag_348:\n        /* \"#utility.yul\":16130:16269   */\n      swap1\n      pop\n        /* \"#utility.yul\":15857:16276   */\n      swap2\n      swap1\n      pop\n      jump\t// out\n        /* \"#utility.yul\":16282:16453   */\n    tag_170:\n        /* \"#utility.yul\":16422:16445   */\n      0x547765657420697320746f6f206c6f6e672062726f0000000000000000000000\n        /* \"#utility.yul\":16418:16419   */\n      0x00\n        /* \"#utility.yul\":16410:16416   */\n      dup3\n        /* \"#utility.yul\":16406:16420   */\n      add\n        /* \"#utility.yul\":16399:16446   */\n      mstore\n        /* \"#utility.yul\":16282:16453   */\n      pop\n      jump\t// out\n        /* \"#utility.yul\":16459:16825   */\n    tag_171:\n        /* \"#utility.yul\":16601:16604   */\n      0x00\n        /* \"#utility.yul\":16622:16689   */\n      tag_351\n        /* \"#utility.yul\":16686:16688   */\n      0x15\n        /* \"#utility.yul\":16681:16684   */\n      dup4\n        /* \"#utility.yul\":16622:16689   */\n      tag_138\n      jump\t// in\n    tag_351:\n        /* \"#utility.yul\":16615:16689   */\n      swap2\n      pop\n        /* \"#utility.yul\":16698:16791   */\n      tag_352\n        /* \"#utility.yul\":16787:16790   */\n      dup3\n        /* \"#utility.yul\":16698:16791   */\n      tag_170\n      jump\t// in\n    tag_352:\n        /* \"#utility.yul\":16816:16818   */\n      0x20\n        /* \"#utility.yul\":16811:16814   */\n      dup3\n        /* \"#utility.yul\":16807:16819   */\n      add\n        /* \"#utility.yul\":16800:16819   */\n      swap1\n      pop\n        /* \"#utility.yul\":16459:16825   */\n      swap2\n      swap1\n      pop\n      jump\t// out\n        /* \"#utility.yul\":16831:17250   */\n    tag_70:\n        /* \"#utility.yul\":16997:17001   */\n      0x00\n        /* \"#utility.yul\":17035:17037   */\n      0x20\n        /* \"#utility.yul\":17024:17033   */\n      dup3\n        /* \"#utility.yul\":17020:17038   */\n      add\n        /* \"#utility.yul\":17012:17038   */\n      swap1\n      pop\n        /* \"#utility.yul\":17084:17093   */\n      dup2\n        /* \"#utility.yul\":17078:17082   */\n      dup2\n        /* \"#utility.yul\":17074:17094   */\n      sub\n        /* \"#utility.yul\":17070:17071   */\n      0x00\n        /* \"#utility.yul\":17059:17068   */\n      dup4\n        /* \"#utility.yul\":17055:17072   */\n      add\n        /* \"#utility.yul\":17048:17095   */\n      mstore\n        /* \"#utility.yul\":17112:17243   */\n      tag_354\n        /* \"#utility.yul\":17238:17242   */\n      dup2\n        /* \"#utility.yul\":17112:17243   */\n      tag_171\n      jump\t// in\n    tag_354:\n        /* \"#utility.yul\":17104:17243   */\n      swap1\n      pop\n        /* \"#utility.yul\":16831:17250   */\n      swap2\n      swap1\n      pop\n      jump\t// out\n        /* \"#utility.yul\":17256:17397   */\n    tag_172:\n        /* \"#utility.yul\":17305:17309   */\n      0x00\n        /* \"#utility.yul\":17328:17331   */\n      dup2\n        /* \"#utility.yul\":17320:17331   */\n      swap1\n      pop\n        /* \"#utility.yul\":17351:17354   */\n      dup2\n        /* \"#utility.yul\":17348:17349   */\n      0x00\n        /* \"#utility.yul\":17341:17355   */\n      mstore\n        /* \"#utility.yul\":17385:17389   */\n      0x20\n        /* \"#utility.yul\":17382:17383   */\n      0x00\n        /* \"#utility.yul\":17372:17390   */\n      keccak256\n        /* \"#utility.yul\":17364:17390   */\n      swap1\n      pop\n        /* \"#utility.yul\":17256:17397   */\n      swap2\n      swap1\n      pop\n      jump\t// out\n        /* \"#utility.yul\":17403:17496   */\n    tag_173:\n        /* \"#utility.yul\":17440:17446   */\n      0x00\n        /* \"#utility.yul\":17487:17489   */\n      0x20\n        /* \"#utility.yul\":17482:17484   */\n      0x1f\n        /* \"#utility.yul\":17475:17480   */\n      dup4\n        /* \"#utility.yul\":17471:17485   */\n      add\n        /* \"#utility.yul\":17467:17490   */\n      div\n        /* \"#utility.yul\":17457:17490   */\n      swap1\n      pop\n        /* \"#utility.yul\":17403:17496   */\n      swap2\n      swap1\n      pop\n      jump\t// out\n        /* \"#utility.yul\":17502:17609   */\n    tag_174:\n        /* \"#utility.yul\":17546:17554   */\n      0x00\n        /* \"#utility.yul\":17596:17601   */\n      dup3\n        /* \"#utility.yul\":17590:17594   */\n      dup3\n        /* \"#utility.yul\":17586:17602   */\n      shl\n        /* \"#utility.yul\":17565:17602   */\n      swap1\n      pop\n        /* \"#utility.yul\":17502:17609   */\n      swap3\n      swap2\n      pop\n      pop\n      jump\t// out\n        /* \"#utility.yul\":17615:18008   */\n    tag_175:\n        /* \"#utility.yul\":17684:17690   */\n      0x00\n        /* \"#utility.yul\":17734:17735   */\n      0x08\n        /* \"#utility.yul\":17722:17732   */\n      dup4\n        /* \"#utility.yul\":17718:17736   */\n      mul\n        /* \"#utility.yul\":17757:17854   */\n      tag_359\n        /* \"#utility.yul\":17787:17853   */\n      0xffffffffffffffffffffffffffffffffffffffffffffffffffffffffffffffff\n        /* \"#utility.yul\":17776:17785   */\n      dup3\n        /* \"#utility.yul\":17757:17854   */\n      tag_174\n      jump\t// in\n    tag_359:\n        /* \"#utility.yul\":17875:17914   */\n      tag_360\n        /* \"#utility.yul\":17905:17913   */\n      dup7\n        /* \"#utility.yul\":17894:17903   */\n      dup4\n        /* \"#utility.yul\":17875:17914   */\n      tag_174\n      jump\t// in\n    tag_360:\n        /* \"#utility.yul\":17863:17914   */\n      swap6\n      pop\n        /* \"#utility.yul\":17947:17951   */\n      dup1\n        /* \"#utility.yul\":17943:17952   */\n      not\n        /* \"#utility.yul\":17936:17941   */\n      dup5\n        /* \"#utility.yul\":17932:17953   */\n      and\n        /* \"#utility.yul\":17923:17953   */\n      swap4\n      pop\n        /* \"#utility.yul\":17996:18000   */\n      dup1\n        /* \"#utility.yul\":17986:17994   */\n      dup7\n        /* \"#utility.yul\":17982:18001   */\n      and\n        /* \"#utility.yul\":17975:17980   */\n      dup5\n        /* \"#utility.yul\":17972:18002   */\n      or\n        /* \"#utility.yul\":17962:18002   */\n      swap3\n      pop\n        /* \"#utility.yul\":17691:18008   */\n      pop\n      pop\n        /* \"#utility.yul\":17615:18008   */\n      swap4\n      swap3\n      pop\n      pop\n      pop\n      jump\t// out\n        /* \"#utility.yul\":18014:18074   */\n    tag_176:\n        /* \"#utility.yul\":18042:18045   */\n      0x00\n        /* \"#utility.yul\":18063:18068   */\n      dup2\n        /* \"#utility.yul\":18056:18068   */\n      swap1\n      pop\n        /* \"#utility.yul\":18014:18074   */\n      swap2\n      swap1\n      pop\n      jump\t// out\n        /* \"#utility.yul\":18080:18222   */\n    tag_177:\n        /* \"#utility.yul\":18130:18139   */\n      0x00\n        /* \"#utility.yul\":18163:18216   */\n      tag_363\n        /* \"#utility.yul\":18181:18215   */\n      tag_364\n        /* \"#utility.yul\":18190:18214   */\n      tag_365\n        /* \"#utility.yul\":18208:18213   */\n      dup5\n        /* \"#utility.yul\":18190:18214   */\n      tag_132\n      jump\t// in\n    tag_365:\n        /* \"#utility.yul\":18181:18215   */\n      tag_176\n      jump\t// in\n    tag_364:\n        /* \"#utility.yul\":18163:18216   */\n      tag_132\n      jump\t// in\n    tag_363:\n        /* \"#utility.yul\":18150:18216   */\n      swap1\n      pop\n        /* \"#utility.yul\":18080:18222   */\n      swap2\n      swap1\n      pop\n      jump\t// out\n        /* \"#utility.yul\":18228:18303   */\n    tag_178:\n        /* \"#utility.yul\":18271:18274   */\n      0x00\n        /* \"#utility.yul\":18292:18297   */\n      dup2\n        /* \"#utility.yul\":18285:18297   */\n      swap1\n      pop\n        /* \"#utility.yul\":18228:18303   */\n      swap2\n      swap1\n      pop\n      jump\t// out\n        /* \"#utility.yul\":18309:18578   */\n    tag_179:\n        /* \"#utility.yul\":18419:18458   */\n      tag_368\n        /* \"#utility.yul\":18450:18457   */\n      dup4\n        /* \"#utility.yul\":18419:18458   */\n      tag_177\n      jump\t// in\n    tag_368:\n        /* \"#utility.yul\":18480:18571   */\n      tag_369\n        /* \"#utility.yul\":18529:18570   */\n      tag_370\n        /* \"#utility.yul\":18553:18569   */\n      dup3\n        /* \"#utility.yul\":18529:18570   */\n      tag_178\n      jump\t// in\n    tag_370:\n        /* \"#utility.yul\":18521:18527   */\n      dup5\n        /* \"#utility.yul\":18514:18518   */\n      dup5\n        /* \"#utility.yul\":18508:18519   */\n      sload\n        /* \"#utility.yul\":18480:18571   */\n      tag_175\n      jump\t// in\n    tag_369:\n        /* \"#utility.yul\":18474:18478   */\n      dup3\n        /* \"#utility.yul\":18467:18572   */\n      sstore\n        /* \"#utility.yul\":18385:18578   */\n      pop\n        /* \"#utility.yul\":18309:18578   */\n      pop\n      pop\n      pop\n      jump\t// out\n        /* \"#utility.yul\":18584:18657   */\n    tag_180:\n        /* \"#utility.yul\":18629:18632   */\n      0x00\n        /* \"#utility.yul\":18584:18657   */\n      swap1\n      jump\t// out\n        /* \"#utility.yul\":18663:18852   */\n    tag_181:\n        /* \"#utility.yul\":18740:18772   */\n      tag_373\n      tag_180\n      jump\t// in\n    tag_373:\n        /* \"#utility.yul\":18781:18846   */\n      tag_374\n        /* \"#utility.yul\":18839:18845   */\n      dup2\n        /* \"#utility.yul\":18831:18837   */\n      dup5\n        /* \"#utility.yul\":18825:18829   */\n      dup5\n        /* \"#utility.yul\":18781:18846   */\n      tag_179\n      jump\t// in\n    tag_374:\n        /* \"#utility.yul\":18716:18852   */\n      pop\n        /* \"#utility.yul\":18663:18852   */\n      pop\n      pop\n      jump\t// out\n        /* \"#utility.yul\":18858:19044   */\n    tag_182:\n        /* \"#utility.yul\":18918:19038   */\n    tag_376:\n        /* \"#utility.yul\":18935:18938   */\n      dup2\n        /* \"#utility.yul\":18928:18933   */\n      dup2\n        /* \"#utility.yul\":18925:18939   */\n      lt\n        /* \"#utility.yul\":18918:19038   */\n      iszero\n      tag_378\n      jumpi\n        /* \"#utility.yul\":18989:19028   */\n      tag_379\n        /* \"#utility.yul\":19026:19027   */\n      0x00\n        /* \"#utility.yul\":19019:19024   */\n      dup3\n        /* \"#utility.yul\":18989:19028   */\n      tag_181\n      jump\t// in\n    tag_379:\n        /* \"#utility.yul\":18962:18963   */\n      0x01\n        /* \"#utility.yul\":18955:18960   */\n      dup2\n        /* \"#utility.yul\":18951:18964   */\n      add\n        /* \"#utility.yul\":18942:18964   */\n      swap1\n      pop\n        /* \"#utility.yul\":18918:19038   */\n      jump(tag_376)\n    tag_378:\n        /* \"#utility.yul\":18858:19044   */\n      pop\n      pop\n      jump\t// out\n        /* \"#utility.yul\":19050:19593   */\n    tag_183:\n        /* \"#utility.yul\":19151:19153   */\n      0x1f\n        /* \"#utility.yul\":19146:19149   */\n      dup3\n        /* \"#utility.yul\":19143:19154   */\n      gt\n        /* \"#utility.yul\":19140:19586   */\n      iszero\n      tag_381\n      jumpi\n        /* \"#utility.yul\":19185:19223   */\n      tag_382\n        /* \"#utility.yul\":19217:19222   */\n      dup2\n        /* \"#utility.yul\":19185:19223   */\n      tag_172\n      jump\t// in\n    tag_382:\n        /* \"#utility.yul\":19269:19298   */\n      tag_383\n        /* \"#utility.yul\":19287:19297   */\n      dup5\n        /* \"#utility.yul\":19269:19298   */\n      tag_173\n      jump\t// in\n    tag_383:\n        /* \"#utility.yul\":19259:19267   */\n      dup2\n        /* \"#utility.yul\":19255:19299   */\n      add\n        /* \"#utility.yul\":19452:19454   */\n      0x20\n        /* \"#utility.yul\":19440:19450   */\n      dup6\n        /* \"#utility.yul\":19437:19455   */\n      lt\n        /* \"#utility.yul\":19434:19483   */\n      iszero\n      tag_384\n      jumpi\n        /* \"#utility.yul\":19473:19481   */\n      dup2\n        /* \"#utility.yul\":19458:19481   */\n      swap1\n      pop\n        /* \"#utility.yul\":19434:19483   */\n    tag_384:\n        /* \"#utility.yul\":19496:19576   */\n      tag_385\n        /* \"#utility.yul\":19552:19574   */\n      tag_386\n        /* \"#utility.yul\":19570:19573   */\n      dup6\n        /* \"#utility.yul\":19552:19574   */\n      tag_173\n      jump\t// in\n    tag_386:\n        /* \"#utility.yul\":19542:19550   */\n      dup4\n        /* \"#utility.yul\":19538:19575   */\n      add\n        /* \"#utility.yul\":19525:19536   */\n      dup3\n        /* \"#utility.yul\":19496:19576   */\n      tag_182\n      jump\t// in\n    tag_385:\n        /* \"#utility.yul\":19155:19586   */\n      pop\n      pop\n        /* \"#utility.yul\":19140:19586   */\n    tag_381:\n        /* \"#utility.yul\":19050:19593   */\n      pop\n      pop\n      pop\n      jump\t// out\n        /* \"#utility.yul\":19599:19716   */\n    tag_184:\n        /* \"#utility.yul\":19653:19661   */\n      0x00\n        /* \"#utility.yul\":19703:19708   */\n      dup3\n        /* \"#utility.yul\":19697:19701   */\n      dup3\n        /* \"#utility.yul\":19693:19709   */\n      shr\n        /* \"#utility.yul\":19672:19709   */\n      swap1\n      pop\n        /* \"#utility.yul\":19599:19716   */\n      swap3\n      swap2\n      pop\n      pop\n      jump\t// out\n        /* \"#utility.yul\":19722:19891   */\n    tag_185:\n        /* \"#utility.yul\":19766:19772   */\n      0x00\n        /* \"#utility.yul\":19799:19850   */\n      tag_389\n        /* \"#utility.yul\":19847:19848   */\n      0x00\n        /* \"#utility.yul\":19843:19849   */\n      not\n        /* \"#utility.yul\":19835:19840   */\n      dup5\n        /* \"#utility.yul\":19832:19833   */\n      0x08\n        /* \"#utility.yul\":19828:19841   */\n      mul\n        /* \"#utility.yul\":19799:19850   */\n      tag_184\n      jump\t// in\n    tag_389:\n        /* \"#utility.yul\":19795:19851   */\n      not\n        /* \"#utility.yul\":19880:19884   */\n      dup1\n        /* \"#utility.yul\":19874:19878   */\n      dup4\n        /* \"#utility.yul\":19870:19885   */\n      and\n        /* \"#utility.yul\":19860:19885   */\n      swap2\n      pop\n        /* \"#utility.yul\":19773:19891   */\n      pop\n        /* \"#utility.yul\":19722:19891   */\n      swap3\n      swap2\n      pop\n      pop\n      jump\t// out\n        /* \"#utility.yul\":19896:20191   */\n    tag_186:\n        /* \"#utility.yul\":19972:19976   */\n      0x00\n        /* \"#utility.yul\":20118:20147   */\n      tag_391\n        /* \"#utility.yul\":20143:20146   */\n      dup4\n        /* \"#utility.yul\":20137:20141   */\n      dup4\n        /* \"#utility.yul\":20118:20147   */\n      tag_185\n      jump\t// in\n    tag_391:\n        /* \"#utility.yul\":20110:20147   */\n      swap2\n      pop\n        /* \"#utility.yul\":20180:20183   */\n      dup3\n        /* \"#utility.yul\":20177:20178   */\n      0x02\n        /* \"#utility.yul\":20173:20184   */\n      mul\n        /* \"#utility.yul\":20167:20171   */\n      dup3\n        /* \"#utility.yul\":20164:20185   */\n      or\n        /* \"#utility.yul\":20156:20185   */\n      swap1\n      pop\n        /* \"#utility.yul\":19896:20191   */\n      swap3\n      swap2\n      pop\n      pop\n      jump\t// out\n        /* \"#utility.yul\":20196:21591   */\n    tag_75:\n        /* \"#utility.yul\":20313:20350   */\n      tag_393\n        /* \"#utility.yul\":20346:20349   */\n      dup3\n        /* \"#utility.yul\":20313:20350   */\n      tag_137\n      jump\t// in\n    tag_393:\n        /* \"#utility.yul\":20415:20433   */\n      0xffffffffffffffff\n        /* \"#utility.yul\":20407:20413   */\n      dup2\n        /* \"#utility.yul\":20404:20434   */\n      gt\n        /* \"#utility.yul\":20401:20457   */\n      iszero\n      tag_394\n      jumpi\n        /* \"#utility.yul\":20437:20455   */\n      tag_395\n      tag_148\n      jump\t// in\n    tag_395:\n        /* \"#utility.yul\":20401:20457   */\n    tag_394:\n        /* \"#utility.yul\":20481:20519   */\n      tag_396\n        /* \"#utility.yul\":20513:20517   */\n      dup3\n        /* \"#utility.yul\":20507:20518   */\n      sload\n        /* \"#utility.yul\":20481:20519   */\n      tag_57\n      jump\t// in\n    tag_396:\n        /* \"#utility.yul\":20566:20633   */\n      tag_397\n        /* \"#utility.yul\":20626:20632   */\n      dup3\n        /* \"#utility.yul\":20618:20624   */\n      dup3\n        /* \"#utility.yul\":20612:20616   */\n      dup6\n        /* \"#utility.yul\":20566:20633   */\n      tag_183\n      jump\t// in\n    tag_397:\n        /* \"#utility.yul\":20660:20661   */\n      0x00\n        /* \"#utility.yul\":20684:20688   */\n      0x20\n        /* \"#utility.yul\":20671:20688   */\n      swap1\n      pop\n        /* \"#utility.yul\":20716:20718   */\n      0x1f\n        /* \"#utility.yul\":20708:20714   */\n      dup4\n        /* \"#utility.yul\":20705:20719   */\n      gt\n        /* \"#utility.yul\":20733:20734   */\n      0x01\n        /* \"#utility.yul\":20728:21346   */\n      dup2\n      eq\n      tag_399\n      jumpi\n        /* \"#utility.yul\":21390:21391   */\n      0x00\n        /* \"#utility.yul\":21407:21413   */\n      dup5\n        /* \"#utility.yul\":21404:21481   */\n      iszero\n      tag_400\n      jumpi\n        /* \"#utility.yul\":21456:21465   */\n      dup3\n        /* \"#utility.yul\":21451:21454   */\n      dup8\n        /* \"#utility.yul\":21447:21466   */\n      add\n        /* \"#utility.yul\":21441:21467   */\n      mload\n        /* \"#utility.yul\":21432:21467   */\n      swap1\n      pop\n        /* \"#utility.yul\":21404:21481   */\n    tag_400:\n        /* \"#utility.yul\":21507:21574   */\n      tag_401\n        /* \"#utility.yul\":21567:21573   */\n      dup6\n        /* \"#utility.yul\":21560:21565   */\n      dup3\n        /* \"#utility.yul\":21507:21574   */\n      tag_186\n      jump\t// in\n    tag_401:\n        /* \"#utility.yul\":21501:21505   */\n      dup7\n        /* \"#utility.yul\":21494:21575   */\n      sstore\n        /* \"#utility.yul\":21363:21585   */\n      pop\n        /* \"#utility.yul\":20698:21585   */\n      jump(tag_398)\n        /* \"#utility.yul\":20728:21346   */\n    tag_399:\n        /* \"#utility.yul\":20780:20784   */\n      0x1f\n        /* \"#utility.yul\":20776:20785   */\n      not\n        /* \"#utility.yul\":20768:20774   */\n      dup5\n        /* \"#utility.yul\":20764:20786   */\n      and\n        /* \"#utility.yul\":20814:20851   */\n      tag_402\n        /* \"#utility.yul\":20846:20850   */\n      dup7\n        /* \"#utility.yul\":20814:20851   */\n      tag_172\n      jump\t// in\n    tag_402:\n        /* \"#utility.yul\":20873:20874   */\n      0x00\n        /* \"#utility.yul\":20887:21095   */\n    tag_403:\n        /* \"#utility.yul\":20901:20908   */\n      dup3\n        /* \"#utility.yul\":20898:20899   */\n      dup2\n        /* \"#utility.yul\":20895:20909   */\n      lt\n        /* \"#utility.yul\":20887:21095   */\n      iszero\n      tag_405\n      jumpi\n        /* \"#utility.yul\":20980:20989   */\n      dup5\n        /* \"#utility.yul\":20975:20978   */\n      dup10\n        /* \"#utility.yul\":20971:20990   */\n      add\n        /* \"#utility.yul\":20965:20991   */\n      mload\n        /* \"#utility.yul\":20957:20963   */\n      dup3\n        /* \"#utility.yul\":20950:20992   */\n      sstore\n        /* \"#utility.yul\":21031:21032   */\n      0x01\n        /* \"#utility.yul\":21023:21029   */\n      dup3\n        /* \"#utility.yul\":21019:21033   */\n      add\n        /* \"#utility.yul\":21009:21033   */\n      swap2\n      pop\n        /* \"#utility.yul\":21078:21080   */\n      0x20\n        /* \"#utility.yul\":21067:21076   */\n      dup6\n        /* \"#utility.yul\":21063:21081   */\n      add\n        /* \"#utility.yul\":21050:21081   */\n      swap5\n      pop\n        /* \"#utility.yul\":20924:20928   */\n      0x20\n        /* \"#utility.yul\":20921:20922   */\n      dup2\n        /* \"#utility.yul\":20917:20929   */\n      add\n        /* \"#utility.yul\":20912:20929   */\n      swap1\n      pop\n        /* \"#utility.yul\":20887:21095   */\n      jump(tag_403)\n    tag_405:\n        /* \"#utility.yul\":21123:21129   */\n      dup7\n        /* \"#utility.yul\":21114:21121   */\n      dup4\n        /* \"#utility.yul\":21111:21130   */\n      lt\n        /* \"#utility.yul\":21108:21287   */\n      iszero\n      tag_406\n      jumpi\n        /* \"#utility.yul\":21181:21190   */\n      dup5\n        /* \"#utility.yul\":21176:21179   */\n      dup10\n        /* \"#utility.yul\":21172:21191   */\n      add\n        /* \"#utility.yul\":21166:21192   */\n      mload\n        /* \"#utility.yul\":21224:21272   */\n      tag_407\n        /* \"#utility.yul\":21266:21270   */\n      0x1f\n        /* \"#utility.yul\":21258:21264   */\n      dup10\n        /* \"#utility.yul\":21254:21271   */\n      and\n        /* \"#utility.yul\":21243:21252   */\n      dup3\n        /* \"#utility.yul\":21224:21272   */\n      tag_185\n      jump\t// in\n    tag_407:\n        /* \"#utility.yul\":21216:21222   */\n      dup4\n        /* \"#utility.yul\":21209:21273   */\n      sstore\n        /* \"#utility.yul\":21131:21287   */\n      pop\n        /* \"#utility.yul\":21108:21287   */\n    tag_406:\n        /* \"#utility.yul\":21333:21334   */\n      0x01\n        /* \"#utility.yul\":21329:21330   */\n      0x02\n        /* \"#utility.yul\":21321:21327   */\n      dup9\n        /* \"#utility.yul\":21317:21331   */\n      mul\n        /* \"#utility.yul\":21313:21335   */\n      add\n        /* \"#utility.yul\":21307:21311   */\n      dup9\n        /* \"#utility.yul\":21300:21336   */\n      sstore\n        /* \"#utility.yul\":20735:21346   */\n      pop\n      pop\n      pop\n        /* \"#utility.yul\":20698:21585   */\n    tag_398:\n      pop\n        /* \"#utility.yul\":20288:21591   */\n      pop\n      pop\n      pop\n        /* \"#utility.yul\":20196:21591   */\n      pop\n      pop\n      jump\t// out\n        /* \"#utility.yul\":21597:21777   */\n    tag_79:\n        /* \"#utility.yul\":21645:21722   */\n      0x4e487b7100000000000000000000000000000000000000000000000000000000\n        /* \"#utility.yul\":21642:21643   */\n      0x00\n        /* \"#utility.yul\":21635:21723   */\n      mstore\n        /* \"#utility.yul\":21742:21746   */\n      0x32\n        /* \"#utility.yul\":21739:21740   */\n      0x04\n        /* \"#utility.yul\":21732:21747   */\n      mstore\n        /* \"#utility.yul\":21766:21770   */\n      0x24\n        /* \"#utility.yul\":21763:21764   */\n      0x00\n        /* \"#utility.yul\":21756:21771   */\n      revert\n        /* \"#utility.yul\":21783:21954   */\n    tag_187:\n        /* \"#utility.yul\":21923:21946   */\n      0x545745455420444f4553204e4f54204558495354210000000000000000000000\n        /* \"#utility.yul\":21919:21920   */\n      0x00\n        /* \"#utility.yul\":21911:21917   */\n      dup3\n        /* \"#utility.yul\":21907:21921   */\n      add\n        /* \"#utility.yul\":21900:21947   */\n      mstore\n        /* \"#utility.yul\":21783:21954   */\n      pop\n      jump\t// out\n        /* \"#utility.yul\":21960:22326   */\n    tag_188:\n        /* \"#utility.yul\":22102:22105   */\n      0x00\n        /* \"#utility.yul\":22123:22190   */\n      tag_411\n        /* \"#utility.yul\":22187:22189   */\n      0x15\n        /* \"#utility.yul\":22182:22185   */\n      dup4\n        /* \"#utility.yul\":22123:22190   */\n      tag_138\n      jump\t// in\n    tag_411:\n        /* \"#utility.yul\":22116:22190   */\n      swap2\n      pop\n        /* \"#utility.yul\":22199:22292   */\n      tag_412\n        /* \"#utility.yul\":22288:22291   */\n      dup3\n        /* \"#utility.yul\":22199:22292   */\n      tag_187\n      jump\t// in\n    tag_412:\n        /* \"#utility.yul\":22317:22319   */\n      0x20\n        /* \"#utility.yul\":22312:22315   */\n      dup3\n        /* \"#utility.yul\":22308:22320   */\n      add\n        /* \"#utility.yul\":22301:22320   */\n      swap1\n      pop\n        /* \"#utility.yul\":21960:22326   */\n      swap2\n      swap1\n      pop\n      jump\t// out\n        /* \"#utility.yul\":22332:22751   */\n    tag_83:\n        /* \"#utility.yul\":22498:22502   */\n      0x00\n        /* \"#utility.yul\":22536:22538   */\n      0x20\n        /* \"#utility.yul\":22525:22534   */\n      dup3\n        /* \"#utility.yul\":22521:22539   */\n      add\n        /* \"#utility.yul\":22513:22539   */\n      swap1\n      pop\n        /* \"#utility.yul\":22585:22594   */\n      dup2\n        /* \"#utility.yul\":22579:22583   */\n      dup2\n        /* \"#utility.yul\":22575:22595   */\n      sub\n        /* \"#utility.yul\":22571:22572   */\n      0x00\n        /* \"#utility.yul\":22560:22569   */\n      dup4\n        /* \"#utility.yul\":22556:22573   */\n      add\n        /* \"#utility.yul\":22549:22596   */\n      mstore\n        /* \"#utility.yul\":22613:22744   */\n      tag_414\n        /* \"#utility.yul\":22739:22743   */\n      dup2\n        /* \"#utility.yul\":22613:22744   */\n      tag_188\n      jump\t// in\n    tag_414:\n        /* \"#utility.yul\":22605:22744   */\n      swap1\n      pop\n        /* \"#utility.yul\":22332:22751   */\n      swap2\n      swap1\n      pop\n      jump\t// out\n        /* \"#utility.yul\":22757:22925   */\n    tag_189:\n        /* \"#utility.yul\":22897:22917   */\n      0x546865726520617265206e6f206c696b65730000000000000000000000000000\n        /* \"#utility.yul\":22893:22894   */\n      0x00\n        /* \"#utility.yul\":22885:22891   */\n      dup3\n        /* \"#utility.yul\":22881:22895   */\n      add\n        /* \"#utility.yul\":22874:22918   */\n      mstore\n        /* \"#utility.yul\":22757:22925   */\n      pop\n      jump\t// out\n        /* \"#utility.yul\":22931:23297   */\n    tag_190:\n        /* \"#utility.yul\":23073:23076   */\n      0x00\n        /* \"#utility.yul\":23094:23161   */\n      tag_417\n        /* \"#utility.yul\":23158:23160   */\n      0x12\n        /* \"#utility.yul\":23153:23156   */\n      dup4\n        /* \"#utility.yul\":23094:23161   */\n      tag_138\n      jump\t// in\n    tag_417:\n        /* \"#utility.yul\":23087:23161   */\n      swap2\n      pop\n        /* \"#utility.yul\":23170:23263   */\n      tag_418\n        /* \"#utility.yul\":23259:23262   */\n      dup3\n        /* \"#utility.yul\":23170:23263   */\n      tag_189\n      jump\t// in\n    tag_418:\n        /* \"#utility.yul\":23288:23290   */\n      0x20\n        /* \"#utility.yul\":23283:23286   */\n      dup3\n        /* \"#utility.yul\":23279:23291   */\n      add\n        /* \"#utility.yul\":23272:23291   */\n      swap1\n      pop\n        /* \"#utility.yul\":22931:23297   */\n      swap2\n      swap1\n      pop\n      jump\t// out\n        /* \"#utility.yul\":23303:23722   */\n    tag_89:\n        /* \"#utility.yul\":23469:23473   */\n      0x00\n        /* \"#utility.yul\":23507:23509   */\n      0x20\n        /* \"#utility.yul\":23496:23505   */\n      dup3\n        /* \"#utility.yul\":23492:23510   */\n      add\n        /* \"#utility.yul\":23484:23510   */\n      swap1\n      pop\n        /* \"#utility.yul\":23556:23565   */\n      dup2\n        /* \"#utility.yul\":23550:23554   */\n      dup2\n        /* \"#utility.yul\":23546:23566   */\n      sub\n        /* \"#utility.yul\":23542:23543   */\n      0x00\n        /* \"#utility.yul\":23531:23540   */\n      dup4\n        /* \"#utility.yul\":23527:23544   */\n      add\n        /* \"#utility.yul\":23520:23567   */\n      mstore\n        /* \"#utility.yul\":23584:23715   */\n      tag_420\n        /* \"#utility.yul\":23710:23714   */\n      dup2\n        /* \"#utility.yul\":23584:23715   */\n      tag_190\n      jump\t// in\n    tag_420:\n        /* \"#utility.yul\":23576:23715   */\n      swap1\n      pop\n        /* \"#utility.yul\":23303:23722   */\n      swap2\n      swap1\n      pop\n      jump\t// out\n        /* \"#utility.yul\":23728:23908   */\n    tag_191:\n        /* \"#utility.yul\":23776:23853   */\n      0x4e487b7100000000000000000000000000000000000000000000000000000000\n        /* \"#utility.yul\":23773:23774   */\n      0x00\n        /* \"#utility.yul\":23766:23854   */\n      mstore\n        /* \"#utility.yul\":23873:23877   */\n      0x11\n        /* \"#utility.yul\":23870:23871   */\n      0x04\n        /* \"#utility.yul\":23863:23878   */\n      mstore\n        /* \"#utility.yul\":23897:23901   */\n      0x24\n        /* \"#utility.yul\":23894:23895   */\n      0x00\n        /* \"#utility.yul\":23887:23902   */\n      revert\n        /* \"#utility.yul\":23914:24085   */\n    tag_94:\n        /* \"#utility.yul\":23953:23956   */\n      0x00\n        /* \"#utility.yul\":23976:24000   */\n      tag_423\n        /* \"#utility.yul\":23994:23999   */\n      dup3\n        /* \"#utility.yul\":23976:24000   */\n      tag_132\n      jump\t// in\n    tag_423:\n        /* \"#utility.yul\":23967:24000   */\n      swap2\n      pop\n        /* \"#utility.yul\":24022:24026   */\n      0x00\n        /* \"#utility.yul\":24015:24020   */\n      dup3\n        /* \"#utility.yul\":24012:24027   */\n      sub\n        /* \"#utility.yul\":24009:24050   */\n      tag_424\n      jumpi\n        /* \"#utility.yul\":24030:24048   */\n      tag_425\n      tag_191\n      jump\t// in\n    tag_425:\n        /* \"#utility.yul\":24009:24050   */\n    tag_424:\n        /* \"#utility.yul\":24077:24078   */\n      0x01\n        /* \"#utility.yul\":24070:24075   */\n      dup3\n        /* \"#utility.yul\":24066:24079   */\n      sub\n        /* \"#utility.yul\":24059:24079   */\n      swap1\n      pop\n        /* \"#utility.yul\":23914:24085   */\n      swap2\n      swap1\n      pop\n      jump\t// out\n        /* \"#utility.yul\":24091:24324   */\n    tag_124:\n        /* \"#utility.yul\":24130:24133   */\n      0x00\n        /* \"#utility.yul\":24153:24177   */\n      tag_427\n        /* \"#utility.yul\":24171:24176   */\n      dup3\n        /* \"#utility.yul\":24153:24177   */\n      tag_132\n      jump\t// in\n    tag_427:\n        /* \"#utility.yul\":24144:24177   */\n      swap2\n      pop\n        /* \"#utility.yul\":24199:24265   */\n      0xffffffffffffffffffffffffffffffffffffffffffffffffffffffffffffffff\n        /* \"#utility.yul\":24192:24197   */\n      dup3\n        /* \"#utility.yul\":24189:24266   */\n      sub\n        /* \"#utility.yul\":24186:24289   */\n      tag_428\n      jumpi\n        /* \"#utility.yul\":24269:24287   */\n      tag_429\n      tag_191\n      jump\t// in\n    tag_429:\n        /* \"#utility.yul\":24186:24289   */\n    tag_428:\n        /* \"#utility.yul\":24316:24317   */\n      0x01\n        /* \"#utility.yul\":24309:24314   */\n      dup3\n        /* \"#utility.yul\":24305:24318   */\n      add\n        /* \"#utility.yul\":24298:24318   */\n      swap1\n      pop\n        /* \"#utility.yul\":24091:24324   */\n      swap2\n      swap1\n      pop\n      jump\t// out\n\n    auxdata: 0xa264697066735822122095debfb48aaa9685441e85415f226464cb8b003ab0cdea3662136262473e390a64736f6c634300081a0033\n}\n",
				"bytecode": {
					"linkReferences": {},
					"object": "60806040526101186000806101000a81548161ffff021916908361ffff160217905550348015602d57600080fd5b5033600260006101000a81548173ffffffffffffffffffffffffffffffffffffffff021916908373ffffffffffffffffffffffffffffffffffffffff1602179055506118b88061007e6000396000f3fe608060405234801561001057600080fd5b50600436106100935760003560e01c80638da5cb5b116100665780638da5cb5b14610122578063a1488f7c14610140578063b64988b81461015c578063c3ad5ecb1461018c578063d04ddaa0146101bc57610093565b806305a1b4a91461009857806358bfa4ab146100cc5780636eb10797146100e85780637c9cd2bc14610106575b600080fd5b6100b260048036038101906100ad9190610c99565b6101d8565b6040516100c3959493929190610d87565b60405180910390f35b6100e660048036038101906100e19190610e1b565b6102d3565b005b6100f0610382565b6040516100fd9190610e57565b60405180910390f35b610120600480360381019061011b9190610fa7565b610394565b005b61012a61057e565b6040516101379190610ff0565b60405180910390f35b61015a6004803603810190610155919061100b565b6105a4565b005b6101766004803603810190610171919061104b565b610769565b6040516101839190611218565b60405180910390f35b6101a660048036038101906101a1919061123a565b61090d565b6040516101b391906112dd565b60405180910390f35b6101d660048036038101906101d1919061100b565b610a8c565b005b600160205281600052604060002081815481106101f457600080fd5b9060005260206000209060050201600091509150508060000154908060010160009054906101000a900473ffffffffffffffffffffffffffffffffffffffff16908060020180546102449061132e565b80601f01602080910402602001604051908101604052809291908181526020018280546102709061132e565b80156102bd5780601f10610292576101008083540402835291602001916102bd565b820191906000526020600020905b8154815290600101906020018083116102a057829003601f168201915b5050505050908060030154908060040154905085565b600260009054906101000a900473ffffffffffffffffffffffffffffffffffffffff1673ffffffffffffffffffffffffffffffffffffffff163373ffffffffffffffffffffffffffffffffffffffff1614610363576040517f08c379a000000000000000000000000000000000000000000000000000000000815260040161035a906113d1565b60405180910390fd5b806000806101000a81548161ffff021916908361ffff16021790555050565b60008054906101000a900461ffff1681565b60008054906101000a900461ffff1661ffff16815111156103ea576040517f08c379a00000000000000000000000000000000000000000000000000000000081526004016103e19061143d565b60405180910390fd5b6103f2610bac565b600160003373ffffffffffffffffffffffffffffffffffffffff1673ffffffffffffffffffffffffffffffffffffffff1681526020019081526020016000208054905081600001818152505033816020019073ffffffffffffffffffffffffffffffffffffffff16908173ffffffffffffffffffffffffffffffffffffffff1681525050818160400181905250428160600181815250506000816080018181525050600160003373ffffffffffffffffffffffffffffffffffffffff1673ffffffffffffffffffffffffffffffffffffffff1681526020019081526020016000208190806001815401808255809150506001900390600052602060002090600502016000909190919091506000820151816000015560208201518160010160006101000a81548173ffffffffffffffffffffffffffffffffffffffff021916908373ffffffffffffffffffffffffffffffffffffffff16021790555060408201518160020190816105639190611609565b50606082015181600301556080820151816004015550505050565b600260009054906101000a900473ffffffffffffffffffffffffffffffffffffffff1681565b81600160008373ffffffffffffffffffffffffffffffffffffffff1673ffffffffffffffffffffffffffffffffffffffff16815260200190815260200160002083815481106105f6576105f56116db565b5b90600052602060002090600502016000015414610648576040517f08c379a000000000000000000000000000000000000000000000000000000000815260040161063f90611756565b60405180910390fd5b6000600160008373ffffffffffffffffffffffffffffffffffffffff1673ffffffffffffffffffffffffffffffffffffffff168152602001908152602001600020838154811061069b5761069a6116db565b5b906000526020600020906005020160040154116106ed576040517f08c379a00000000000000000000000000000000000000000000000000000000081526004016106e4906117c2565b60405180910390fd5b600160008273ffffffffffffffffffffffffffffffffffffffff1673ffffffffffffffffffffffffffffffffffffffff168152602001908152602001600020828154811061073e5761073d6116db565b5b9060005260206000209060050201600401600081548092919061076090611811565b91905055505050565b6060600160008373ffffffffffffffffffffffffffffffffffffffff1673ffffffffffffffffffffffffffffffffffffffff168152602001908152602001600020805480602002602001604051908101604052809291908181526020016000905b8282101561090257838290600052602060002090600502016040518060a0016040529081600082015481526020016001820160009054906101000a900473ffffffffffffffffffffffffffffffffffffffff1673ffffffffffffffffffffffffffffffffffffffff1673ffffffffffffffffffffffffffffffffffffffff16815260200160028201805461085d9061132e565b80601f01602080910402602001604051908101604052809291908181526020018280546108899061132e565b80156108d65780601f106108ab576101008083540402835291602001916108d6565b820191906000526020600020905b8154815290600101906020018083116108b957829003601f168201915b5050505050815260200160038201548152602001600482015481525050815260200190600101906107ca565b505050509050919050565b610915610bac565b600160003373ffffffffffffffffffffffffffffffffffffffff1673ffffffffffffffffffffffffffffffffffffffff1681526020019081526020016000208281548110610966576109656116db565b5b90600052602060002090600502016040518060a0016040529081600082015481526020016001820160009054906101000a900473ffffffffffffffffffffffffffffffffffffffff1673ffffffffffffffffffffffffffffffffffffffff1673ffffffffffffffffffffffffffffffffffffffff1681526020016002820180546109ef9061132e565b80601f0160208091040260200160405190810160405280929190818152602001828054610a1b9061132e565b8015610a685780601f10610a3d57610100808354040283529160200191610a68565b820191906000526020600020905b815481529060010190602001808311610a4b57829003601f168201915b50505050508152602001600382015481526020016004820154815250509050919050565b81600160008373ffffffffffffffffffffffffffffffffffffffff1673ffffffffffffffffffffffffffffffffffffffff1681526020019081526020016000208381548110610ade57610add6116db565b5b90600052602060002090600502016000015414610b30576040517f08c379a0000000000000000000000000000000000000000000000000000000008152600401610b2790611756565b60405180910390fd5b600160008273ffffffffffffffffffffffffffffffffffffffff1673ffffffffffffffffffffffffffffffffffffffff1681526020019081526020016000208281548110610b8157610b806116db565b5b90600052602060002090600502016004016000815480929190610ba39061183a565b91905055505050565b6040518060a0016040528060008152602001600073ffffffffffffffffffffffffffffffffffffffff1681526020016060815260200160008152602001600081525090565b6000604051905090565b600080fd5b600080fd5b600073ffffffffffffffffffffffffffffffffffffffff82169050919050565b6000610c3082610c05565b9050919050565b610c4081610c25565b8114610c4b57600080fd5b50565b600081359050610c5d81610c37565b92915050565b6000819050919050565b610c7681610c63565b8114610c8157600080fd5b50565b600081359050610c9381610c6d565b92915050565b60008060408385031215610cb057610caf610bfb565b5b6000610cbe85828601610c4e565b9250506020610ccf85828601610c84565b9150509250929050565b610ce281610c63565b82525050565b610cf181610c25565b82525050565b600081519050919050565b600082825260208201905092915050565b60005b83811015610d31578082015181840152602081019050610d16565b60008484015250505050565b6000601f19601f8301169050919050565b6000610d5982610cf7565b610d638185610d02565b9350610d73818560208601610d13565b610d7c81610d3d565b840191505092915050565b600060a082019050610d9c6000830188610cd9565b610da96020830187610ce8565b8181036040830152610dbb8186610d4e565b9050610dca6060830185610cd9565b610dd76080830184610cd9565b9695505050505050565b600061ffff82169050919050565b610df881610de1565b8114610e0357600080fd5b50565b600081359050610e1581610def565b92915050565b600060208284031215610e3157610e30610bfb565b5b6000610e3f84828501610e06565b91505092915050565b610e5181610de1565b82525050565b6000602082019050610e6c6000830184610e48565b92915050565b600080fd5b600080fd5b7f4e487b7100000000000000000000000000000000000000000000000000000000600052604160045260246000fd5b610eb482610d3d565b810181811067ffffffffffffffff82111715610ed357610ed2610e7c565b5b80604052505050565b6000610ee6610bf1565b9050610ef28282610eab565b919050565b600067ffffffffffffffff821115610f1257610f11610e7c565b5b610f1b82610d3d565b9050602081019050919050565b82818337600083830152505050565b6000610f4a610f4584610ef7565b610edc565b905082815260208101848484011115610f6657610f65610e77565b5b610f71848285610f28565b509392505050565b600082601f830112610f8e57610f8d610e72565b5b8135610f9e848260208601610f37565b91505092915050565b600060208284031215610fbd57610fbc610bfb565b5b600082013567ffffffffffffffff811115610fdb57610fda610c00565b5b610fe784828501610f79565b91505092915050565b60006020820190506110056000830184610ce8565b92915050565b6000806040838503121561102257611021610bfb565b5b600061103085828601610c84565b925050602061104185828601610c4e565b9150509250929050565b60006020828403121561106157611060610bfb565b5b600061106f84828501610c4e565b91505092915050565b600081519050919050565b600082825260208201905092915050565b6000819050602082019050919050565b6110ad81610c63565b82525050565b6110bc81610c25565b82525050565b600082825260208201905092915050565b60006110de82610cf7565b6110e881856110c2565b93506110f8818560208601610d13565b61110181610d3d565b840191505092915050565b600060a08301600083015161112460008601826110a4565b50602083015161113760208601826110b3565b506040830151848203604086015261114f82826110d3565b915050606083015161116460608601826110a4565b50608083015161117760808601826110a4565b508091505092915050565b600061118e838361110c565b905092915050565b6000602082019050919050565b60006111ae82611078565b6111b88185611083565b9350836020820285016111ca85611094565b8060005b8581101561120657848403895281516111e78582611182565b94506111f283611196565b925060208a019950506001810190506111ce565b50829750879550505050505092915050565b6000602082019050818103600083015261123281846111a3565b905092915050565b6000602082840312156112505761124f610bfb565b5b600061125e84828501610c84565b91505092915050565b600060a08301600083015161127f60008601826110a4565b50602083015161129260208601826110b3565b50604083015184820360408601526112aa82826110d3565b91505060608301516112bf60608601826110a4565b5060808301516112d260808601826110a4565b508091505092915050565b600060208201905081810360008301526112f78184611267565b905092915050565b7f4e487b7100000000000000000000000000000000000000000000000000000000600052602260045260246000fd5b6000600282049050600182168061134657607f821691505b602082108103611359576113586112ff565b5b50919050565b7f596f7520617265206e6f7420746865206f776e6572206f66207468697320636f60008201527f6e74726163742121210000000000000000000000000000000000000000000000602082015250565b60006113bb602983610d02565b91506113c68261135f565b604082019050919050565b600060208201905081810360008301526113ea816113ae565b9050919050565b7f547765657420697320746f6f206c6f6e672062726f0000000000000000000000600082015250565b6000611427601583610d02565b9150611432826113f1565b602082019050919050565b600060208201905081810360008301526114568161141a565b9050919050565b60008190508160005260206000209050919050565b60006020601f8301049050919050565b600082821b905092915050565b6000600883026114bf7fffffffffffffffffffffffffffffffffffffffffffffffffffffffffffffffff82611482565b6114c98683611482565b95508019841693508086168417925050509392505050565b6000819050919050565b60006115066115016114fc84610c63565b6114e1565b610c63565b9050919050565b6000819050919050565b611520836114eb565b61153461152c8261150d565b84845461148f565b825550505050565b600090565b61154961153c565b611554818484611517565b505050565b5b818110156115785761156d600082611541565b60018101905061155a565b5050565b601f8211156115bd5761158e8161145d565b61159784611472565b810160208510156115a6578190505b6115ba6115b285611472565b830182611559565b50505b505050565b600082821c905092915050565b60006115e0600019846008026115c2565b1980831691505092915050565b60006115f983836115cf565b9150826002028217905092915050565b61161282610cf7565b67ffffffffffffffff81111561162b5761162a610e7c565b5b611635825461132e565b61164082828561157c565b600060209050601f8311600181146116735760008415611661578287015190505b61166b85826115ed565b8655506116d3565b601f1984166116818661145d565b60005b828110156116a957848901518255600182019150602085019450602081019050611684565b868310156116c657848901516116c2601f8916826115cf565b8355505b6001600288020188555050505b505050505050565b7f4e487b7100000000000000000000000000000000000000000000000000000000600052603260045260246000fd5b7f545745455420444f4553204e4f54204558495354210000000000000000000000600082015250565b6000611740601583610d02565b915061174b8261170a565b602082019050919050565b6000602082019050818103600083015261176f81611733565b9050919050565b7f546865726520617265206e6f206c696b65730000000000000000000000000000600082015250565b60006117ac601283610d02565b91506117b782611776565b602082019050919050565b600060208201905081810360008301526117db8161179f565b9050919050565b7f4e487b7100000000000000000000000000000000000000000000000000000000600052601160045260246000fd5b600061181c82610c63565b91506000820361182f5761182e6117e2565b5b600182039050919050565b600061184582610c63565b91507fffffffffffffffffffffffffffffffffffffffffffffffffffffffffffffffff8203611877576118766117e2565b5b60018201905091905056fea264697066735822122095debfb48aaa9685441e85415f226464cb8b003ab0cdea3662136262473e390a64736f6c634300081a0033",
					"opcodes": "PUSH1 0x80 PUSH1 0x40 MSTORE PUSH2 0x118 PUSH1 0x0 DUP1 PUSH2 0x100 EXP DUP2 SLOAD DUP2 PUSH2 0xFFFF MUL NOT AND SWAP1 DUP4 PUSH2 0xFFFF AND MUL OR SWAP1 SSTORE POP CALLVALUE DUP1 ISZERO PUSH1 0x2D JUMPI PUSH1 0x0 DUP1 REVERT JUMPDEST POP CALLER PUSH1 0x2 PUSH1 0x0 PUSH2 0x100 EXP DUP2 SLOAD DUP2 PUSH20 0xFFFFFFFFFFFFFFFFFFFFFFFFFFFFFFFFFFFFFFFF MUL NOT AND SWAP1 DUP4 PUSH20 0xFFFFFFFFFFFFFFFFFFFFFFFFFFFFFFFFFFFFFFFF AND MUL OR SWAP1 SSTORE POP PUSH2 0x18B8 DUP1 PUSH2 0x7E PUSH1 0x0 CODECOPY PUSH1 0x0 RETURN INVALID PUSH1 0x80 PUSH1 0x40 MSTORE CALLVALUE DUP1 ISZERO PUSH2 0x10 JUMPI PUSH1 0x0 DUP1 REVERT JUMPDEST POP PUSH1 0x4 CALLDATASIZE LT PUSH2 0x93 JUMPI PUSH1 0x0 CALLDATALOAD PUSH1 0xE0 SHR DUP1 PUSH4 0x8DA5CB5B GT PUSH2 0x66 JUMPI DUP1 PUSH4 0x8DA5CB5B EQ PUSH2 0x122 JUMPI DUP1 PUSH4 0xA1488F7C EQ PUSH2 0x140 JUMPI DUP1 PUSH4 0xB64988B8 EQ PUSH2 0x15C JUMPI DUP1 PUSH4 0xC3AD5ECB EQ PUSH2 0x18C JUMPI DUP1 PUSH4 0xD04DDAA0 EQ PUSH2 0x1BC JUMPI PUSH2 0x93 JUMP JUMPDEST DUP1 PUSH4 0x5A1B4A9 EQ PUSH2 0x98 JUMPI DUP1 PUSH4 0x58BFA4AB EQ PUSH2 0xCC JUMPI DUP1 PUSH4 0x6EB10797 EQ PUSH2 0xE8 JUMPI DUP1 PUSH4 0x7C9CD2BC EQ PUSH2 0x106 JUMPI JUMPDEST PUSH1 0x0 DUP1 REVERT JUMPDEST PUSH2 0xB2 PUSH1 0x4 DUP1 CALLDATASIZE SUB DUP2 ADD SWAP1 PUSH2 0xAD SWAP2 SWAP1 PUSH2 0xC99 JUMP JUMPDEST PUSH2 0x1D8 JUMP JUMPDEST PUSH1 0x40 MLOAD PUSH2 0xC3 SWAP6 SWAP5 SWAP4 SWAP3 SWAP2 SWAP1 PUSH2 0xD87 JUMP JUMPDEST PUSH1 0x40 MLOAD DUP1 SWAP2 SUB SWAP1 RETURN JUMPDEST PUSH2 0xE6 PUSH1 0x4 DUP1 CALLDATASIZE SUB DUP2 ADD SWAP1 PUSH2 0xE1 SWAP2 SWAP1 PUSH2 0xE1B JUMP JUMPDEST PUSH2 0x2D3 JUMP JUMPDEST STOP JUMPDEST PUSH2 0xF0 PUSH2 0x382 JUMP JUMPDEST PUSH1 0x40 MLOAD PUSH2 0xFD SWAP2 SWAP1 PUSH2 0xE57 JUMP JUMPDEST PUSH1 0x40 MLOAD DUP1 SWAP2 SUB SWAP1 RETURN JUMPDEST PUSH2 0x120 PUSH1 0x4 DUP1 CALLDATASIZE SUB DUP2 ADD SWAP1 PUSH2 0x11B SWAP2 SWAP1 PUSH2 0xFA7 JUMP JUMPDEST PUSH2 0x394 JUMP JUMPDEST STOP JUMPDEST PUSH2 0x12A PUSH2 0x57E JUMP JUMPDEST PUSH1 0x40 MLOAD PUSH2 0x137 SWAP2 SWAP1 PUSH2 0xFF0 JUMP JUMPDEST PUSH1 0x40 MLOAD DUP1 SWAP2 SUB SWAP1 RETURN JUMPDEST PUSH2 0x15A PUSH1 0x4 DUP1 CALLDATASIZE SUB DUP2 ADD SWAP1 PUSH2 0x155 SWAP2 SWAP1 PUSH2 0x100B JUMP JUMPDEST PUSH2 0x5A4 JUMP JUMPDEST STOP JUMPDEST PUSH2 0x176 PUSH1 0x4 DUP1 CALLDATASIZE SUB DUP2 ADD SWAP1 PUSH2 0x171 SWAP2 SWAP1 PUSH2 0x104B JUMP JUMPDEST PUSH2 0x769 JUMP JUMPDEST PUSH1 0x40 MLOAD PUSH2 0x183 SWAP2 SWAP1 PUSH2 0x1218 JUMP JUMPDEST PUSH1 0x40 MLOAD DUP1 SWAP2 SUB SWAP1 RETURN JUMPDEST PUSH2 0x1A6 PUSH1 0x4 DUP1 CALLDATASIZE SUB DUP2 ADD SWAP1 PUSH2 0x1A1 SWAP2 SWAP1 PUSH2 0x123A JUMP JUMPDEST PUSH2 0x90D JUMP JUMPDEST PUSH1 0x40 MLOAD PUSH2 0x1B3 SWAP2 SWAP1 PUSH2 0x12DD JUMP JUMPDEST PUSH1 0x40 MLOAD DUP1 SWAP2 SUB SWAP1 RETURN JUMPDEST PUSH2 0x1D6 PUSH1 0x4 DUP1 CALLDATASIZE SUB DUP2 ADD SWAP1 PUSH2 0x1D1 SWAP2 SWAP1 PUSH2 0x100B JUMP JUMPDEST PUSH2 0xA8C JUMP JUMPDEST STOP JUMPDEST PUSH1 0x1 PUSH1 0x20 MSTORE DUP2 PUSH1 0x0 MSTORE PUSH1 0x40 PUSH1 0x0 KECCAK256 DUP2 DUP2 SLOAD DUP2 LT PUSH2 0x1F4 JUMPI PUSH1 0x0 DUP1 REVERT JUMPDEST SWAP1 PUSH1 0x0 MSTORE PUSH1 0x20 PUSH1 0x0 KECCAK256 SWAP1 PUSH1 0x5 MUL ADD PUSH1 0x0 SWAP2 POP SWAP2 POP POP DUP1 PUSH1 0x0 ADD SLOAD SWAP1 DUP1 PUSH1 0x1 ADD PUSH1 0x0 SWAP1 SLOAD SWAP1 PUSH2 0x100 EXP SWAP1 DIV PUSH20 0xFFFFFFFFFFFFFFFFFFFFFFFFFFFFFFFFFFFFFFFF AND SWAP1 DUP1 PUSH1 0x2 ADD DUP1 SLOAD PUSH2 0x244 SWAP1 PUSH2 0x132E JUMP JUMPDEST DUP1 PUSH1 0x1F ADD PUSH1 0x20 DUP1 SWAP2 DIV MUL PUSH1 0x20 ADD PUSH1 0x40 MLOAD SWAP1 DUP2 ADD PUSH1 0x40 MSTORE DUP1 SWAP3 SWAP2 SWAP1 DUP2 DUP2 MSTORE PUSH1 0x20 ADD DUP3 DUP1 SLOAD PUSH2 0x270 SWAP1 PUSH2 0x132E JUMP JUMPDEST DUP1 ISZERO PUSH2 0x2BD JUMPI DUP1 PUSH1 0x1F LT PUSH2 0x292 JUMPI PUSH2 0x100 DUP1 DUP4 SLOAD DIV MUL DUP4 MSTORE SWAP2 PUSH1 0x20 ADD SWAP2 PUSH2 0x2BD JUMP JUMPDEST DUP3 ADD SWAP2 SWAP1 PUSH1 0x0 MSTORE PUSH1 0x20 PUSH1 0x0 KECCAK256 SWAP1 JUMPDEST DUP2 SLOAD DUP2 MSTORE SWAP1 PUSH1 0x1 ADD SWAP1 PUSH1 0x20 ADD DUP1 DUP4 GT PUSH2 0x2A0 JUMPI DUP3 SWAP1 SUB PUSH1 0x1F AND DUP3 ADD SWAP2 JUMPDEST POP POP POP POP POP SWAP1 DUP1 PUSH1 0x3 ADD SLOAD SWAP1 DUP1 PUSH1 0x4 ADD SLOAD SWAP1 POP DUP6 JUMP JUMPDEST PUSH1 0x2 PUSH1 0x0 SWAP1 SLOAD SWAP1 PUSH2 0x100 EXP SWAP1 DIV PUSH20 0xFFFFFFFFFFFFFFFFFFFFFFFFFFFFFFFFFFFFFFFF AND PUSH20 0xFFFFFFFFFFFFFFFFFFFFFFFFFFFFFFFFFFFFFFFF AND CALLER PUSH20 0xFFFFFFFFFFFFFFFFFFFFFFFFFFFFFFFFFFFFFFFF AND EQ PUSH2 0x363 JUMPI PUSH1 0x40 MLOAD PUSH32 0x8C379A000000000000000000000000000000000000000000000000000000000 DUP2 MSTORE PUSH1 0x4 ADD PUSH2 0x35A SWAP1 PUSH2 0x13D1 JUMP JUMPDEST PUSH1 0x40 MLOAD DUP1 SWAP2 SUB SWAP1 REVERT JUMPDEST DUP1 PUSH1 0x0 DUP1 PUSH2 0x100 EXP DUP2 SLOAD DUP2 PUSH2 0xFFFF MUL NOT AND SWAP1 DUP4 PUSH2 0xFFFF AND MUL OR SWAP1 SSTORE POP POP JUMP JUMPDEST PUSH1 0x0 DUP1 SLOAD SWAP1 PUSH2 0x100 EXP SWAP1 DIV PUSH2 0xFFFF AND DUP2 JUMP JUMPDEST PUSH1 0x0 DUP1 SLOAD SWAP1 PUSH2 0x100 EXP SWAP1 DIV PUSH2 0xFFFF AND PUSH2 0xFFFF AND DUP2 MLOAD GT ISZERO PUSH2 0x3EA JUMPI PUSH1 0x40 MLOAD PUSH32 0x8C379A000000000000000000000000000000000000000000000000000000000 DUP2 MSTORE PUSH1 0x4 ADD PUSH2 0x3E1 SWAP1 PUSH2 0x143D JUMP JUMPDEST PUSH1 0x40 MLOAD DUP1 SWAP2 SUB SWAP1 REVERT JUMPDEST PUSH2 0x3F2 PUSH2 0xBAC JUMP JUMPDEST PUSH1 0x1 PUSH1 0x0 CALLER PUSH20 0xFFFFFFFFFFFFFFFFFFFFFFFFFFFFFFFFFFFFFFFF AND PUSH20 0xFFFFFFFFFFFFFFFFFFFFFFFFFFFFFFFFFFFFFFFF AND DUP2 MSTORE PUSH1 0x20 ADD SWAP1 DUP2 MSTORE PUSH1 0x20 ADD PUSH1 0x0 KECCAK256 DUP1 SLOAD SWAP1 POP DUP2 PUSH1 0x0 ADD DUP2 DUP2 MSTORE POP POP CALLER DUP2 PUSH1 0x20 ADD SWAP1 PUSH20 0xFFFFFFFFFFFFFFFFFFFFFFFFFFFFFFFFFFFFFFFF AND SWAP1 DUP2 PUSH20 0xFFFFFFFFFFFFFFFFFFFFFFFFFFFFFFFFFFFFFFFF AND DUP2 MSTORE POP POP DUP2 DUP2 PUSH1 0x40 ADD DUP2 SWAP1 MSTORE POP TIMESTAMP DUP2 PUSH1 0x60 ADD DUP2 DUP2 MSTORE POP POP PUSH1 0x0 DUP2 PUSH1 0x80 ADD DUP2 DUP2 MSTORE POP POP PUSH1 0x1 PUSH1 0x0 CALLER PUSH20 0xFFFFFFFFFFFFFFFFFFFFFFFFFFFFFFFFFFFFFFFF AND PUSH20 0xFFFFFFFFFFFFFFFFFFFFFFFFFFFFFFFFFFFFFFFF AND DUP2 MSTORE PUSH1 0x20 ADD SWAP1 DUP2 MSTORE PUSH1 0x20 ADD PUSH1 0x0 KECCAK256 DUP2 SWAP1 DUP1 PUSH1 0x1 DUP2 SLOAD ADD DUP1 DUP3 SSTORE DUP1 SWAP2 POP POP PUSH1 0x1 SWAP1 SUB SWAP1 PUSH1 0x0 MSTORE PUSH1 0x20 PUSH1 0x0 KECCAK256 SWAP1 PUSH1 0x5 MUL ADD PUSH1 0x0 SWAP1 SWAP2 SWAP1 SWAP2 SWAP1 SWAP2 POP PUSH1 0x0 DUP3 ADD MLOAD DUP2 PUSH1 0x0 ADD SSTORE PUSH1 0x20 DUP3 ADD MLOAD DUP2 PUSH1 0x1 ADD PUSH1 0x0 PUSH2 0x100 EXP DUP2 SLOAD DUP2 PUSH20 0xFFFFFFFFFFFFFFFFFFFFFFFFFFFFFFFFFFFFFFFF MUL NOT AND SWAP1 DUP4 PUSH20 0xFFFFFFFFFFFFFFFFFFFFFFFFFFFFFFFFFFFFFFFF AND MUL OR SWAP1 SSTORE POP PUSH1 0x40 DUP3 ADD MLOAD DUP2 PUSH1 0x2 ADD SWAP1 DUP2 PUSH2 0x563 SWAP2 SWAP1 PUSH2 0x1609 JUMP JUMPDEST POP PUSH1 0x60 DUP3 ADD MLOAD DUP2 PUSH1 0x3 ADD SSTORE PUSH1 0x80 DUP3 ADD MLOAD DUP2 PUSH1 0x4 ADD SSTORE POP POP POP POP JUMP JUMPDEST PUSH1 0x2 PUSH1 0x0 SWAP1 SLOAD SWAP1 PUSH2 0x100 EXP SWAP1 DIV PUSH20 0xFFFFFFFFFFFFFFFFFFFFFFFFFFFFFFFFFFFFFFFF AND DUP2 JUMP JUMPDEST DUP2 PUSH1 0x1 PUSH1 0x0 DUP4 PUSH20 0xFFFFFFFFFFFFFFFFFFFFFFFFFFFFFFFFFFFFFFFF AND PUSH20 0xFFFFFFFFFFFFFFFFFFFFFFFFFFFFFFFFFFFFFFFF AND DUP2 MSTORE PUSH1 0x20 ADD SWAP1 DUP2 MSTORE PUSH1 0x20 ADD PUSH1 0x0 KECCAK256 DUP4 DUP2 SLOAD DUP2 LT PUSH2 0x5F6 JUMPI PUSH2 0x5F5 PUSH2 0x16DB JUMP JUMPDEST JUMPDEST SWAP1 PUSH1 0x0 MSTORE PUSH1 0x20 PUSH1 0x0 KECCAK256 SWAP1 PUSH1 0x5 MUL ADD PUSH1 0x0 ADD SLOAD EQ PUSH2 0x648 JUMPI PUSH1 0x40 MLOAD PUSH32 0x8C379A000000000000000000000000000000000000000000000000000000000 DUP2 MSTORE PUSH1 0x4 ADD PUSH2 0x63F SWAP1 PUSH2 0x1756 JUMP JUMPDEST PUSH1 0x40 MLOAD DUP1 SWAP2 SUB SWAP1 REVERT JUMPDEST PUSH1 0x0 PUSH1 0x1 PUSH1 0x0 DUP4 PUSH20 0xFFFFFFFFFFFFFFFFFFFFFFFFFFFFFFFFFFFFFFFF AND PUSH20 0xFFFFFFFFFFFFFFFFFFFFFFFFFFFFFFFFFFFFFFFF AND DUP2 MSTORE PUSH1 0x20 ADD SWAP1 DUP2 MSTORE PUSH1 0x20 ADD PUSH1 0x0 KECCAK256 DUP4 DUP2 SLOAD DUP2 LT PUSH2 0x69B JUMPI PUSH2 0x69A PUSH2 0x16DB JUMP JUMPDEST JUMPDEST SWAP1 PUSH1 0x0 MSTORE PUSH1 0x20 PUSH1 0x0 KECCAK256 SWAP1 PUSH1 0x5 MUL ADD PUSH1 0x4 ADD SLOAD GT PUSH2 0x6ED JUMPI PUSH1 0x40 MLOAD PUSH32 0x8C379A000000000000000000000000000000000000000000000000000000000 DUP2 MSTORE PUSH1 0x4 ADD PUSH2 0x6E4 SWAP1 PUSH2 0x17C2 JUMP JUMPDEST PUSH1 0x40 MLOAD DUP1 SWAP2 SUB SWAP1 REVERT JUMPDEST PUSH1 0x1 PUSH1 0x0 DUP3 PUSH20 0xFFFFFFFFFFFFFFFFFFFFFFFFFFFFFFFFFFFFFFFF AND PUSH20 0xFFFFFFFFFFFFFFFFFFFFFFFFFFFFFFFFFFFFFFFF AND DUP2 MSTORE PUSH1 0x20 ADD SWAP1 DUP2 MSTORE PUSH1 0x20 ADD PUSH1 0x0 KECCAK256 DUP3 DUP2 SLOAD DUP2 LT PUSH2 0x73E JUMPI PUSH2 0x73D PUSH2 0x16DB JUMP JUMPDEST JUMPDEST SWAP1 PUSH1 0x0 MSTORE PUSH1 0x20 PUSH1 0x0 KECCAK256 SWAP1 PUSH1 0x5 MUL ADD PUSH1 0x4 ADD PUSH1 0x0 DUP2 SLOAD DUP1 SWAP3 SWAP2 SWAP1 PUSH2 0x760 SWAP1 PUSH2 0x1811 JUMP JUMPDEST SWAP2 SWAP1 POP SSTORE POP POP POP JUMP JUMPDEST PUSH1 0x60 PUSH1 0x1 PUSH1 0x0 DUP4 PUSH20 0xFFFFFFFFFFFFFFFFFFFFFFFFFFFFFFFFFFFFFFFF AND PUSH20 0xFFFFFFFFFFFFFFFFFFFFFFFFFFFFFFFFFFFFFFFF AND DUP2 MSTORE PUSH1 0x20 ADD SWAP1 DUP2 MSTORE PUSH1 0x20 ADD PUSH1 0x0 KECCAK256 DUP1 SLOAD DUP1 PUSH1 0x20 MUL PUSH1 0x20 ADD PUSH1 0x40 MLOAD SWAP1 DUP2 ADD PUSH1 0x40 MSTORE DUP1 SWAP3 SWAP2 SWAP1 DUP2 DUP2 MSTORE PUSH1 0x20 ADD PUSH1 0x0 SWAP1 JUMPDEST DUP3 DUP3 LT ISZERO PUSH2 0x902 JUMPI DUP4 DUP3 SWAP1 PUSH1 0x0 MSTORE PUSH1 0x20 PUSH1 0x0 KECCAK256 SWAP1 PUSH1 0x5 MUL ADD PUSH1 0x40 MLOAD DUP1 PUSH1 0xA0 ADD PUSH1 0x40 MSTORE SWAP1 DUP2 PUSH1 0x0 DUP3 ADD SLOAD DUP2 MSTORE PUSH1 0x20 ADD PUSH1 0x1 DUP3 ADD PUSH1 0x0 SWAP1 SLOAD SWAP1 PUSH2 0x100 EXP SWAP1 DIV PUSH20 0xFFFFFFFFFFFFFFFFFFFFFFFFFFFFFFFFFFFFFFFF AND PUSH20 0xFFFFFFFFFFFFFFFFFFFFFFFFFFFFFFFFFFFFFFFF AND PUSH20 0xFFFFFFFFFFFFFFFFFFFFFFFFFFFFFFFFFFFFFFFF AND DUP2 MSTORE PUSH1 0x20 ADD PUSH1 0x2 DUP3 ADD DUP1 SLOAD PUSH2 0x85D SWAP1 PUSH2 0x132E JUMP JUMPDEST DUP1 PUSH1 0x1F ADD PUSH1 0x20 DUP1 SWAP2 DIV MUL PUSH1 0x20 ADD PUSH1 0x40 MLOAD SWAP1 DUP2 ADD PUSH1 0x40 MSTORE DUP1 SWAP3 SWAP2 SWAP1 DUP2 DUP2 MSTORE PUSH1 0x20 ADD DUP3 DUP1 SLOAD PUSH2 0x889 SWAP1 PUSH2 0x132E JUMP JUMPDEST DUP1 ISZERO PUSH2 0x8D6 JUMPI DUP1 PUSH1 0x1F LT PUSH2 0x8AB JUMPI PUSH2 0x100 DUP1 DUP4 SLOAD DIV MUL DUP4 MSTORE SWAP2 PUSH1 0x20 ADD SWAP2 PUSH2 0x8D6 JUMP JUMPDEST DUP3 ADD SWAP2 SWAP1 PUSH1 0x0 MSTORE PUSH1 0x20 PUSH1 0x0 KECCAK256 SWAP1 JUMPDEST DUP2 SLOAD DUP2 MSTORE SWAP1 PUSH1 0x1 ADD SWAP1 PUSH1 0x20 ADD DUP1 DUP4 GT PUSH2 0x8B9 JUMPI DUP3 SWAP1 SUB PUSH1 0x1F AND DUP3 ADD SWAP2 JUMPDEST POP POP POP POP POP DUP2 MSTORE PUSH1 0x20 ADD PUSH1 0x3 DUP3 ADD SLOAD DUP2 MSTORE PUSH1 0x20 ADD PUSH1 0x4 DUP3 ADD SLOAD DUP2 MSTORE POP POP DUP2 MSTORE PUSH1 0x20 ADD SWAP1 PUSH1 0x1 ADD SWAP1 PUSH2 0x7CA JUMP JUMPDEST POP POP POP POP SWAP1 POP SWAP2 SWAP1 POP JUMP JUMPDEST PUSH2 0x915 PUSH2 0xBAC JUMP JUMPDEST PUSH1 0x1 PUSH1 0x0 CALLER PUSH20 0xFFFFFFFFFFFFFFFFFFFFFFFFFFFFFFFFFFFFFFFF AND PUSH20 0xFFFFFFFFFFFFFFFFFFFFFFFFFFFFFFFFFFFFFFFF AND DUP2 MSTORE PUSH1 0x20 ADD SWAP1 DUP2 MSTORE PUSH1 0x20 ADD PUSH1 0x0 KECCAK256 DUP3 DUP2 SLOAD DUP2 LT PUSH2 0x966 JUMPI PUSH2 0x965 PUSH2 0x16DB JUMP JUMPDEST JUMPDEST SWAP1 PUSH1 0x0 MSTORE PUSH1 0x20 PUSH1 0x0 KECCAK256 SWAP1 PUSH1 0x5 MUL ADD PUSH1 0x40 MLOAD DUP1 PUSH1 0xA0 ADD PUSH1 0x40 MSTORE SWAP1 DUP2 PUSH1 0x0 DUP3 ADD SLOAD DUP2 MSTORE PUSH1 0x20 ADD PUSH1 0x1 DUP3 ADD PUSH1 0x0 SWAP1 SLOAD SWAP1 PUSH2 0x100 EXP SWAP1 DIV PUSH20 0xFFFFFFFFFFFFFFFFFFFFFFFFFFFFFFFFFFFFFFFF AND PUSH20 0xFFFFFFFFFFFFFFFFFFFFFFFFFFFFFFFFFFFFFFFF AND PUSH20 0xFFFFFFFFFFFFFFFFFFFFFFFFFFFFFFFFFFFFFFFF AND DUP2 MSTORE PUSH1 0x20 ADD PUSH1 0x2 DUP3 ADD DUP1 SLOAD PUSH2 0x9EF SWAP1 PUSH2 0x132E JUMP JUMPDEST DUP1 PUSH1 0x1F ADD PUSH1 0x20 DUP1 SWAP2 DIV MUL PUSH1 0x20 ADD PUSH1 0x40 MLOAD SWAP1 DUP2 ADD PUSH1 0x40 MSTORE DUP1 SWAP3 SWAP2 SWAP1 DUP2 DUP2 MSTORE PUSH1 0x20 ADD DUP3 DUP1 SLOAD PUSH2 0xA1B SWAP1 PUSH2 0x132E JUMP JUMPDEST DUP1 ISZERO PUSH2 0xA68 JUMPI DUP1 PUSH1 0x1F LT PUSH2 0xA3D JUMPI PUSH2 0x100 DUP1 DUP4 SLOAD DIV MUL DUP4 MSTORE SWAP2 PUSH1 0x20 ADD SWAP2 PUSH2 0xA68 JUMP JUMPDEST DUP3 ADD SWAP2 SWAP1 PUSH1 0x0 MSTORE PUSH1 0x20 PUSH1 0x0 KECCAK256 SWAP1 JUMPDEST DUP2 SLOAD DUP2 MSTORE SWAP1 PUSH1 0x1 ADD SWAP1 PUSH1 0x20 ADD DUP1 DUP4 GT PUSH2 0xA4B JUMPI DUP3 SWAP1 SUB PUSH1 0x1F AND DUP3 ADD SWAP2 JUMPDEST POP POP POP POP POP DUP2 MSTORE PUSH1 0x20 ADD PUSH1 0x3 DUP3 ADD SLOAD DUP2 MSTORE PUSH1 0x20 ADD PUSH1 0x4 DUP3 ADD SLOAD DUP2 MSTORE POP POP SWAP1 POP SWAP2 SWAP1 POP JUMP JUMPDEST DUP2 PUSH1 0x1 PUSH1 0x0 DUP4 PUSH20 0xFFFFFFFFFFFFFFFFFFFFFFFFFFFFFFFFFFFFFFFF AND PUSH20 0xFFFFFFFFFFFFFFFFFFFFFFFFFFFFFFFFFFFFFFFF AND DUP2 MSTORE PUSH1 0x20 ADD SWAP1 DUP2 MSTORE PUSH1 0x20 ADD PUSH1 0x0 KECCAK256 DUP4 DUP2 SLOAD DUP2 LT PUSH2 0xADE JUMPI PUSH2 0xADD PUSH2 0x16DB JUMP JUMPDEST JUMPDEST SWAP1 PUSH1 0x0 MSTORE PUSH1 0x20 PUSH1 0x0 KECCAK256 SWAP1 PUSH1 0x5 MUL ADD PUSH1 0x0 ADD SLOAD EQ PUSH2 0xB30 JUMPI PUSH1 0x40 MLOAD PUSH32 0x8C379A000000000000000000000000000000000000000000000000000000000 DUP2 MSTORE PUSH1 0x4 ADD PUSH2 0xB27 SWAP1 PUSH2 0x1756 JUMP JUMPDEST PUSH1 0x40 MLOAD DUP1 SWAP2 SUB SWAP1 REVERT JUMPDEST PUSH1 0x1 PUSH1 0x0 DUP3 PUSH20 0xFFFFFFFFFFFFFFFFFFFFFFFFFFFFFFFFFFFFFFFF AND PUSH20 0xFFFFFFFFFFFFFFFFFFFFFFFFFFFFFFFFFFFFFFFF AND DUP2 MSTORE PUSH1 0x20 ADD SWAP1 DUP2 MSTORE PUSH1 0x20 ADD PUSH1 0x0 KECCAK256 DUP3 DUP2 SLOAD DUP2 LT PUSH2 0xB81 JUMPI PUSH2 0xB80 PUSH2 0x16DB JUMP JUMPDEST JUMPDEST SWAP1 PUSH1 0x0 MSTORE PUSH1 0x20 PUSH1 0x0 KECCAK256 SWAP1 PUSH1 0x5 MUL ADD PUSH1 0x4 ADD PUSH1 0x0 DUP2 SLOAD DUP1 SWAP3 SWAP2 SWAP1 PUSH2 0xBA3 SWAP1 PUSH2 0x183A JUMP JUMPDEST SWAP2 SWAP1 POP SSTORE POP POP POP JUMP JUMPDEST PUSH1 0x40 MLOAD DUP1 PUSH1 0xA0 ADD PUSH1 0x40 MSTORE DUP1 PUSH1 0x0 DUP2 MSTORE PUSH1 0x20 ADD PUSH1 0x0 PUSH20 0xFFFFFFFFFFFFFFFFFFFFFFFFFFFFFFFFFFFFFFFF AND DUP2 MSTORE PUSH1 0x20 ADD PUSH1 0x60 DUP2 MSTORE PUSH1 0x20 ADD PUSH1 0x0 DUP2 MSTORE PUSH1 0x20 ADD PUSH1 0x0 DUP2 MSTORE POP SWAP1 JUMP JUMPDEST PUSH1 0x0 PUSH1 0x40 MLOAD SWAP1 POP SWAP1 JUMP JUMPDEST PUSH1 0x0 DUP1 REVERT JUMPDEST PUSH1 0x0 DUP1 REVERT JUMPDEST PUSH1 0x0 PUSH20 0xFFFFFFFFFFFFFFFFFFFFFFFFFFFFFFFFFFFFFFFF DUP3 AND SWAP1 POP SWAP2 SWAP1 POP JUMP JUMPDEST PUSH1 0x0 PUSH2 0xC30 DUP3 PUSH2 0xC05 JUMP JUMPDEST SWAP1 POP SWAP2 SWAP1 POP JUMP JUMPDEST PUSH2 0xC40 DUP2 PUSH2 0xC25 JUMP JUMPDEST DUP2 EQ PUSH2 0xC4B JUMPI PUSH1 0x0 DUP1 REVERT JUMPDEST POP JUMP JUMPDEST PUSH1 0x0 DUP2 CALLDATALOAD SWAP1 POP PUSH2 0xC5D DUP2 PUSH2 0xC37 JUMP JUMPDEST SWAP3 SWAP2 POP POP JUMP JUMPDEST PUSH1 0x0 DUP2 SWAP1 POP SWAP2 SWAP1 POP JUMP JUMPDEST PUSH2 0xC76 DUP2 PUSH2 0xC63 JUMP JUMPDEST DUP2 EQ PUSH2 0xC81 JUMPI PUSH1 0x0 DUP1 REVERT JUMPDEST POP JUMP JUMPDEST PUSH1 0x0 DUP2 CALLDATALOAD SWAP1 POP PUSH2 0xC93 DUP2 PUSH2 0xC6D JUMP JUMPDEST SWAP3 SWAP2 POP POP JUMP JUMPDEST PUSH1 0x0 DUP1 PUSH1 0x40 DUP4 DUP6 SUB SLT ISZERO PUSH2 0xCB0 JUMPI PUSH2 0xCAF PUSH2 0xBFB JUMP JUMPDEST JUMPDEST PUSH1 0x0 PUSH2 0xCBE DUP6 DUP3 DUP7 ADD PUSH2 0xC4E JUMP JUMPDEST SWAP3 POP POP PUSH1 0x20 PUSH2 0xCCF DUP6 DUP3 DUP7 ADD PUSH2 0xC84 JUMP JUMPDEST SWAP2 POP POP SWAP3 POP SWAP3 SWAP1 POP JUMP JUMPDEST PUSH2 0xCE2 DUP2 PUSH2 0xC63 JUMP JUMPDEST DUP3 MSTORE POP POP JUMP JUMPDEST PUSH2 0xCF1 DUP2 PUSH2 0xC25 JUMP JUMPDEST DUP3 MSTORE POP POP JUMP JUMPDEST PUSH1 0x0 DUP2 MLOAD SWAP1 POP SWAP2 SWAP1 POP JUMP JUMPDEST PUSH1 0x0 DUP3 DUP3 MSTORE PUSH1 0x20 DUP3 ADD SWAP1 POP SWAP3 SWAP2 POP POP JUMP JUMPDEST PUSH1 0x0 JUMPDEST DUP4 DUP2 LT ISZERO PUSH2 0xD31 JUMPI DUP1 DUP3 ADD MLOAD DUP2 DUP5 ADD MSTORE PUSH1 0x20 DUP2 ADD SWAP1 POP PUSH2 0xD16 JUMP JUMPDEST PUSH1 0x0 DUP5 DUP5 ADD MSTORE POP POP POP POP JUMP JUMPDEST PUSH1 0x0 PUSH1 0x1F NOT PUSH1 0x1F DUP4 ADD AND SWAP1 POP SWAP2 SWAP1 POP JUMP JUMPDEST PUSH1 0x0 PUSH2 0xD59 DUP3 PUSH2 0xCF7 JUMP JUMPDEST PUSH2 0xD63 DUP2 DUP6 PUSH2 0xD02 JUMP JUMPDEST SWAP4 POP PUSH2 0xD73 DUP2 DUP6 PUSH1 0x20 DUP7 ADD PUSH2 0xD13 JUMP JUMPDEST PUSH2 0xD7C DUP2 PUSH2 0xD3D JUMP JUMPDEST DUP5 ADD SWAP2 POP POP SWAP3 SWAP2 POP POP JUMP JUMPDEST PUSH1 0x0 PUSH1 0xA0 DUP3 ADD SWAP1 POP PUSH2 0xD9C PUSH1 0x0 DUP4 ADD DUP9 PUSH2 0xCD9 JUMP JUMPDEST PUSH2 0xDA9 PUSH1 0x20 DUP4 ADD DUP8 PUSH2 0xCE8 JUMP JUMPDEST DUP2 DUP2 SUB PUSH1 0x40 DUP4 ADD MSTORE PUSH2 0xDBB DUP2 DUP7 PUSH2 0xD4E JUMP JUMPDEST SWAP1 POP PUSH2 0xDCA PUSH1 0x60 DUP4 ADD DUP6 PUSH2 0xCD9 JUMP JUMPDEST PUSH2 0xDD7 PUSH1 0x80 DUP4 ADD DUP5 PUSH2 0xCD9 JUMP JUMPDEST SWAP7 SWAP6 POP POP POP POP POP POP JUMP JUMPDEST PUSH1 0x0 PUSH2 0xFFFF DUP3 AND SWAP1 POP SWAP2 SWAP1 POP JUMP JUMPDEST PUSH2 0xDF8 DUP2 PUSH2 0xDE1 JUMP JUMPDEST DUP2 EQ PUSH2 0xE03 JUMPI PUSH1 0x0 DUP1 REVERT JUMPDEST POP JUMP JUMPDEST PUSH1 0x0 DUP2 CALLDATALOAD SWAP1 POP PUSH2 0xE15 DUP2 PUSH2 0xDEF JUMP JUMPDEST SWAP3 SWAP2 POP POP JUMP JUMPDEST PUSH1 0x0 PUSH1 0x20 DUP3 DUP5 SUB SLT ISZERO PUSH2 0xE31 JUMPI PUSH2 0xE30 PUSH2 0xBFB JUMP JUMPDEST JUMPDEST PUSH1 0x0 PUSH2 0xE3F DUP5 DUP3 DUP6 ADD PUSH2 0xE06 JUMP JUMPDEST SWAP2 POP POP SWAP3 SWAP2 POP POP JUMP JUMPDEST PUSH2 0xE51 DUP2 PUSH2 0xDE1 JUMP JUMPDEST DUP3 MSTORE POP POP JUMP JUMPDEST PUSH1 0x0 PUSH1 0x20 DUP3 ADD SWAP1 POP PUSH2 0xE6C PUSH1 0x0 DUP4 ADD DUP5 PUSH2 0xE48 JUMP JUMPDEST SWAP3 SWAP2 POP POP JUMP JUMPDEST PUSH1 0x0 DUP1 REVERT JUMPDEST PUSH1 0x0 DUP1 REVERT JUMPDEST PUSH32 0x4E487B7100000000000000000000000000000000000000000000000000000000 PUSH1 0x0 MSTORE PUSH1 0x41 PUSH1 0x4 MSTORE PUSH1 0x24 PUSH1 0x0 REVERT JUMPDEST PUSH2 0xEB4 DUP3 PUSH2 0xD3D JUMP JUMPDEST DUP2 ADD DUP2 DUP2 LT PUSH8 0xFFFFFFFFFFFFFFFF DUP3 GT OR ISZERO PUSH2 0xED3 JUMPI PUSH2 0xED2 PUSH2 0xE7C JUMP JUMPDEST JUMPDEST DUP1 PUSH1 0x40 MSTORE POP POP POP JUMP JUMPDEST PUSH1 0x0 PUSH2 0xEE6 PUSH2 0xBF1 JUMP JUMPDEST SWAP1 POP PUSH2 0xEF2 DUP3 DUP3 PUSH2 0xEAB JUMP JUMPDEST SWAP2 SWAP1 POP JUMP JUMPDEST PUSH1 0x0 PUSH8 0xFFFFFFFFFFFFFFFF DUP3 GT ISZERO PUSH2 0xF12 JUMPI PUSH2 0xF11 PUSH2 0xE7C JUMP JUMPDEST JUMPDEST PUSH2 0xF1B DUP3 PUSH2 0xD3D JUMP JUMPDEST SWAP1 POP PUSH1 0x20 DUP2 ADD SWAP1 POP SWAP2 SWAP1 POP JUMP JUMPDEST DUP3 DUP2 DUP4 CALLDATACOPY PUSH1 0x0 DUP4 DUP4 ADD MSTORE POP POP POP JUMP JUMPDEST PUSH1 0x0 PUSH2 0xF4A PUSH2 0xF45 DUP5 PUSH2 0xEF7 JUMP JUMPDEST PUSH2 0xEDC JUMP JUMPDEST SWAP1 POP DUP3 DUP2 MSTORE PUSH1 0x20 DUP2 ADD DUP5 DUP5 DUP5 ADD GT ISZERO PUSH2 0xF66 JUMPI PUSH2 0xF65 PUSH2 0xE77 JUMP JUMPDEST JUMPDEST PUSH2 0xF71 DUP5 DUP3 DUP6 PUSH2 0xF28 JUMP JUMPDEST POP SWAP4 SWAP3 POP POP POP JUMP JUMPDEST PUSH1 0x0 DUP3 PUSH1 0x1F DUP4 ADD SLT PUSH2 0xF8E JUMPI PUSH2 0xF8D PUSH2 0xE72 JUMP JUMPDEST JUMPDEST DUP2 CALLDATALOAD PUSH2 0xF9E DUP5 DUP3 PUSH1 0x20 DUP7 ADD PUSH2 0xF37 JUMP JUMPDEST SWAP2 POP POP SWAP3 SWAP2 POP POP JUMP JUMPDEST PUSH1 0x0 PUSH1 0x20 DUP3 DUP5 SUB SLT ISZERO PUSH2 0xFBD JUMPI PUSH2 0xFBC PUSH2 0xBFB JUMP JUMPDEST JUMPDEST PUSH1 0x0 DUP3 ADD CALLDATALOAD PUSH8 0xFFFFFFFFFFFFFFFF DUP2 GT ISZERO PUSH2 0xFDB JUMPI PUSH2 0xFDA PUSH2 0xC00 JUMP JUMPDEST JUMPDEST PUSH2 0xFE7 DUP5 DUP3 DUP6 ADD PUSH2 0xF79 JUMP JUMPDEST SWAP2 POP POP SWAP3 SWAP2 POP POP JUMP JUMPDEST PUSH1 0x0 PUSH1 0x20 DUP3 ADD SWAP1 POP PUSH2 0x1005 PUSH1 0x0 DUP4 ADD DUP5 PUSH2 0xCE8 JUMP JUMPDEST SWAP3 SWAP2 POP POP JUMP JUMPDEST PUSH1 0x0 DUP1 PUSH1 0x40 DUP4 DUP6 SUB SLT ISZERO PUSH2 0x1022 JUMPI PUSH2 0x1021 PUSH2 0xBFB JUMP JUMPDEST JUMPDEST PUSH1 0x0 PUSH2 0x1030 DUP6 DUP3 DUP7 ADD PUSH2 0xC84 JUMP JUMPDEST SWAP3 POP POP PUSH1 0x20 PUSH2 0x1041 DUP6 DUP3 DUP7 ADD PUSH2 0xC4E JUMP JUMPDEST SWAP2 POP POP SWAP3 POP SWAP3 SWAP1 POP JUMP JUMPDEST PUSH1 0x0 PUSH1 0x20 DUP3 DUP5 SUB SLT ISZERO PUSH2 0x1061 JUMPI PUSH2 0x1060 PUSH2 0xBFB JUMP JUMPDEST JUMPDEST PUSH1 0x0 PUSH2 0x106F DUP5 DUP3 DUP6 ADD PUSH2 0xC4E JUMP JUMPDEST SWAP2 POP POP SWAP3 SWAP2 POP POP JUMP JUMPDEST PUSH1 0x0 DUP2 MLOAD SWAP1 POP SWAP2 SWAP1 POP JUMP JUMPDEST PUSH1 0x0 DUP3 DUP3 MSTORE PUSH1 0x20 DUP3 ADD SWAP1 POP SWAP3 SWAP2 POP POP JUMP JUMPDEST PUSH1 0x0 DUP2 SWAP1 POP PUSH1 0x20 DUP3 ADD SWAP1 POP SWAP2 SWAP1 POP JUMP JUMPDEST PUSH2 0x10AD DUP2 PUSH2 0xC63 JUMP JUMPDEST DUP3 MSTORE POP POP JUMP JUMPDEST PUSH2 0x10BC DUP2 PUSH2 0xC25 JUMP JUMPDEST DUP3 MSTORE POP POP JUMP JUMPDEST PUSH1 0x0 DUP3 DUP3 MSTORE PUSH1 0x20 DUP3 ADD SWAP1 POP SWAP3 SWAP2 POP POP JUMP JUMPDEST PUSH1 0x0 PUSH2 0x10DE DUP3 PUSH2 0xCF7 JUMP JUMPDEST PUSH2 0x10E8 DUP2 DUP6 PUSH2 0x10C2 JUMP JUMPDEST SWAP4 POP PUSH2 0x10F8 DUP2 DUP6 PUSH1 0x20 DUP7 ADD PUSH2 0xD13 JUMP JUMPDEST PUSH2 0x1101 DUP2 PUSH2 0xD3D JUMP JUMPDEST DUP5 ADD SWAP2 POP POP SWAP3 SWAP2 POP POP JUMP JUMPDEST PUSH1 0x0 PUSH1 0xA0 DUP4 ADD PUSH1 0x0 DUP4 ADD MLOAD PUSH2 0x1124 PUSH1 0x0 DUP7 ADD DUP3 PUSH2 0x10A4 JUMP JUMPDEST POP PUSH1 0x20 DUP4 ADD MLOAD PUSH2 0x1137 PUSH1 0x20 DUP7 ADD DUP3 PUSH2 0x10B3 JUMP JUMPDEST POP PUSH1 0x40 DUP4 ADD MLOAD DUP5 DUP3 SUB PUSH1 0x40 DUP7 ADD MSTORE PUSH2 0x114F DUP3 DUP3 PUSH2 0x10D3 JUMP JUMPDEST SWAP2 POP POP PUSH1 0x60 DUP4 ADD MLOAD PUSH2 0x1164 PUSH1 0x60 DUP7 ADD DUP3 PUSH2 0x10A4 JUMP JUMPDEST POP PUSH1 0x80 DUP4 ADD MLOAD PUSH2 0x1177 PUSH1 0x80 DUP7 ADD DUP3 PUSH2 0x10A4 JUMP JUMPDEST POP DUP1 SWAP2 POP POP SWAP3 SWAP2 POP POP JUMP JUMPDEST PUSH1 0x0 PUSH2 0x118E DUP4 DUP4 PUSH2 0x110C JUMP JUMPDEST SWAP1 POP SWAP3 SWAP2 POP POP JUMP JUMPDEST PUSH1 0x0 PUSH1 0x20 DUP3 ADD SWAP1 POP SWAP2 SWAP1 POP JUMP JUMPDEST PUSH1 0x0 PUSH2 0x11AE DUP3 PUSH2 0x1078 JUMP JUMPDEST PUSH2 0x11B8 DUP2 DUP6 PUSH2 0x1083 JUMP JUMPDEST SWAP4 POP DUP4 PUSH1 0x20 DUP3 MUL DUP6 ADD PUSH2 0x11CA DUP6 PUSH2 0x1094 JUMP JUMPDEST DUP1 PUSH1 0x0 JUMPDEST DUP6 DUP2 LT ISZERO PUSH2 0x1206 JUMPI DUP5 DUP5 SUB DUP10 MSTORE DUP2 MLOAD PUSH2 0x11E7 DUP6 DUP3 PUSH2 0x1182 JUMP JUMPDEST SWAP5 POP PUSH2 0x11F2 DUP4 PUSH2 0x1196 JUMP JUMPDEST SWAP3 POP PUSH1 0x20 DUP11 ADD SWAP10 POP POP PUSH1 0x1 DUP2 ADD SWAP1 POP PUSH2 0x11CE JUMP JUMPDEST POP DUP3 SWAP8 POP DUP8 SWAP6 POP POP POP POP POP POP SWAP3 SWAP2 POP POP JUMP JUMPDEST PUSH1 0x0 PUSH1 0x20 DUP3 ADD SWAP1 POP DUP2 DUP2 SUB PUSH1 0x0 DUP4 ADD MSTORE PUSH2 0x1232 DUP2 DUP5 PUSH2 0x11A3 JUMP JUMPDEST SWAP1 POP SWAP3 SWAP2 POP POP JUMP JUMPDEST PUSH1 0x0 PUSH1 0x20 DUP3 DUP5 SUB SLT ISZERO PUSH2 0x1250 JUMPI PUSH2 0x124F PUSH2 0xBFB JUMP JUMPDEST JUMPDEST PUSH1 0x0 PUSH2 0x125E DUP5 DUP3 DUP6 ADD PUSH2 0xC84 JUMP JUMPDEST SWAP2 POP POP SWAP3 SWAP2 POP POP JUMP JUMPDEST PUSH1 0x0 PUSH1 0xA0 DUP4 ADD PUSH1 0x0 DUP4 ADD MLOAD PUSH2 0x127F PUSH1 0x0 DUP7 ADD DUP3 PUSH2 0x10A4 JUMP JUMPDEST POP PUSH1 0x20 DUP4 ADD MLOAD PUSH2 0x1292 PUSH1 0x20 DUP7 ADD DUP3 PUSH2 0x10B3 JUMP JUMPDEST POP PUSH1 0x40 DUP4 ADD MLOAD DUP5 DUP3 SUB PUSH1 0x40 DUP7 ADD MSTORE PUSH2 0x12AA DUP3 DUP3 PUSH2 0x10D3 JUMP JUMPDEST SWAP2 POP POP PUSH1 0x60 DUP4 ADD MLOAD PUSH2 0x12BF PUSH1 0x60 DUP7 ADD DUP3 PUSH2 0x10A4 JUMP JUMPDEST POP PUSH1 0x80 DUP4 ADD MLOAD PUSH2 0x12D2 PUSH1 0x80 DUP7 ADD DUP3 PUSH2 0x10A4 JUMP JUMPDEST POP DUP1 SWAP2 POP POP SWAP3 SWAP2 POP POP JUMP JUMPDEST PUSH1 0x0 PUSH1 0x20 DUP3 ADD SWAP1 POP DUP2 DUP2 SUB PUSH1 0x0 DUP4 ADD MSTORE PUSH2 0x12F7 DUP2 DUP5 PUSH2 0x1267 JUMP JUMPDEST SWAP1 POP SWAP3 SWAP2 POP POP JUMP JUMPDEST PUSH32 0x4E487B7100000000000000000000000000000000000000000000000000000000 PUSH1 0x0 MSTORE PUSH1 0x22 PUSH1 0x4 MSTORE PUSH1 0x24 PUSH1 0x0 REVERT JUMPDEST PUSH1 0x0 PUSH1 0x2 DUP3 DIV SWAP1 POP PUSH1 0x1 DUP3 AND DUP1 PUSH2 0x1346 JUMPI PUSH1 0x7F DUP3 AND SWAP2 POP JUMPDEST PUSH1 0x20 DUP3 LT DUP2 SUB PUSH2 0x1359 JUMPI PUSH2 0x1358 PUSH2 0x12FF JUMP JUMPDEST JUMPDEST POP SWAP2 SWAP1 POP JUMP JUMPDEST PUSH32 0x596F7520617265206E6F7420746865206F776E6572206F66207468697320636F PUSH1 0x0 DUP3 ADD MSTORE PUSH32 0x6E74726163742121210000000000000000000000000000000000000000000000 PUSH1 0x20 DUP3 ADD MSTORE POP JUMP JUMPDEST PUSH1 0x0 PUSH2 0x13BB PUSH1 0x29 DUP4 PUSH2 0xD02 JUMP JUMPDEST SWAP2 POP PUSH2 0x13C6 DUP3 PUSH2 0x135F JUMP JUMPDEST PUSH1 0x40 DUP3 ADD SWAP1 POP SWAP2 SWAP1 POP JUMP JUMPDEST PUSH1 0x0 PUSH1 0x20 DUP3 ADD SWAP1 POP DUP2 DUP2 SUB PUSH1 0x0 DUP4 ADD MSTORE PUSH2 0x13EA DUP2 PUSH2 0x13AE JUMP JUMPDEST SWAP1 POP SWAP2 SWAP1 POP JUMP JUMPDEST PUSH32 0x547765657420697320746F6F206C6F6E672062726F0000000000000000000000 PUSH1 0x0 DUP3 ADD MSTORE POP JUMP JUMPDEST PUSH1 0x0 PUSH2 0x1427 PUSH1 0x15 DUP4 PUSH2 0xD02 JUMP JUMPDEST SWAP2 POP PUSH2 0x1432 DUP3 PUSH2 0x13F1 JUMP JUMPDEST PUSH1 0x20 DUP3 ADD SWAP1 POP SWAP2 SWAP1 POP JUMP JUMPDEST PUSH1 0x0 PUSH1 0x20 DUP3 ADD SWAP1 POP DUP2 DUP2 SUB PUSH1 0x0 DUP4 ADD MSTORE PUSH2 0x1456 DUP2 PUSH2 0x141A JUMP JUMPDEST SWAP1 POP SWAP2 SWAP1 POP JUMP JUMPDEST PUSH1 0x0 DUP2 SWAP1 POP DUP2 PUSH1 0x0 MSTORE PUSH1 0x20 PUSH1 0x0 KECCAK256 SWAP1 POP SWAP2 SWAP1 POP JUMP JUMPDEST PUSH1 0x0 PUSH1 0x20 PUSH1 0x1F DUP4 ADD DIV SWAP1 POP SWAP2 SWAP1 POP JUMP JUMPDEST PUSH1 0x0 DUP3 DUP3 SHL SWAP1 POP SWAP3 SWAP2 POP POP JUMP JUMPDEST PUSH1 0x0 PUSH1 0x8 DUP4 MUL PUSH2 0x14BF PUSH32 0xFFFFFFFFFFFFFFFFFFFFFFFFFFFFFFFFFFFFFFFFFFFFFFFFFFFFFFFFFFFFFFFF DUP3 PUSH2 0x1482 JUMP JUMPDEST PUSH2 0x14C9 DUP7 DUP4 PUSH2 0x1482 JUMP JUMPDEST SWAP6 POP DUP1 NOT DUP5 AND SWAP4 POP DUP1 DUP7 AND DUP5 OR SWAP3 POP POP POP SWAP4 SWAP3 POP POP POP JUMP JUMPDEST PUSH1 0x0 DUP2 SWAP1 POP SWAP2 SWAP1 POP JUMP JUMPDEST PUSH1 0x0 PUSH2 0x1506 PUSH2 0x1501 PUSH2 0x14FC DUP5 PUSH2 0xC63 JUMP JUMPDEST PUSH2 0x14E1 JUMP JUMPDEST PUSH2 0xC63 JUMP JUMPDEST SWAP1 POP SWAP2 SWAP1 POP JUMP JUMPDEST PUSH1 0x0 DUP2 SWAP1 POP SWAP2 SWAP1 POP JUMP JUMPDEST PUSH2 0x1520 DUP4 PUSH2 0x14EB JUMP JUMPDEST PUSH2 0x1534 PUSH2 0x152C DUP3 PUSH2 0x150D JUMP JUMPDEST DUP5 DUP5 SLOAD PUSH2 0x148F JUMP JUMPDEST DUP3 SSTORE POP POP POP POP JUMP JUMPDEST PUSH1 0x0 SWAP1 JUMP JUMPDEST PUSH2 0x1549 PUSH2 0x153C JUMP JUMPDEST PUSH2 0x1554 DUP2 DUP5 DUP5 PUSH2 0x1517 JUMP JUMPDEST POP POP POP JUMP JUMPDEST JUMPDEST DUP2 DUP2 LT ISZERO PUSH2 0x1578 JUMPI PUSH2 0x156D PUSH1 0x0 DUP3 PUSH2 0x1541 JUMP JUMPDEST PUSH1 0x1 DUP2 ADD SWAP1 POP PUSH2 0x155A JUMP JUMPDEST POP POP JUMP JUMPDEST PUSH1 0x1F DUP3 GT ISZERO PUSH2 0x15BD JUMPI PUSH2 0x158E DUP2 PUSH2 0x145D JUMP JUMPDEST PUSH2 0x1597 DUP5 PUSH2 0x1472 JUMP JUMPDEST DUP2 ADD PUSH1 0x20 DUP6 LT ISZERO PUSH2 0x15A6 JUMPI DUP2 SWAP1 POP JUMPDEST PUSH2 0x15BA PUSH2 0x15B2 DUP6 PUSH2 0x1472 JUMP JUMPDEST DUP4 ADD DUP3 PUSH2 0x1559 JUMP JUMPDEST POP POP JUMPDEST POP POP POP JUMP JUMPDEST PUSH1 0x0 DUP3 DUP3 SHR SWAP1 POP SWAP3 SWAP2 POP POP JUMP JUMPDEST PUSH1 0x0 PUSH2 0x15E0 PUSH1 0x0 NOT DUP5 PUSH1 0x8 MUL PUSH2 0x15C2 JUMP JUMPDEST NOT DUP1 DUP4 AND SWAP2 POP POP SWAP3 SWAP2 POP POP JUMP JUMPDEST PUSH1 0x0 PUSH2 0x15F9 DUP4 DUP4 PUSH2 0x15CF JUMP JUMPDEST SWAP2 POP DUP3 PUSH1 0x2 MUL DUP3 OR SWAP1 POP SWAP3 SWAP2 POP POP JUMP JUMPDEST PUSH2 0x1612 DUP3 PUSH2 0xCF7 JUMP JUMPDEST PUSH8 0xFFFFFFFFFFFFFFFF DUP2 GT ISZERO PUSH2 0x162B JUMPI PUSH2 0x162A PUSH2 0xE7C JUMP JUMPDEST JUMPDEST PUSH2 0x1635 DUP3 SLOAD PUSH2 0x132E JUMP JUMPDEST PUSH2 0x1640 DUP3 DUP3 DUP6 PUSH2 0x157C JUMP JUMPDEST PUSH1 0x0 PUSH1 0x20 SWAP1 POP PUSH1 0x1F DUP4 GT PUSH1 0x1 DUP2 EQ PUSH2 0x1673 JUMPI PUSH1 0x0 DUP5 ISZERO PUSH2 0x1661 JUMPI DUP3 DUP8 ADD MLOAD SWAP1 POP JUMPDEST PUSH2 0x166B DUP6 DUP3 PUSH2 0x15ED JUMP JUMPDEST DUP7 SSTORE POP PUSH2 0x16D3 JUMP JUMPDEST PUSH1 0x1F NOT DUP5 AND PUSH2 0x1681 DUP7 PUSH2 0x145D JUMP JUMPDEST PUSH1 0x0 JUMPDEST DUP3 DUP2 LT ISZERO PUSH2 0x16A9 JUMPI DUP5 DUP10 ADD MLOAD DUP3 SSTORE PUSH1 0x1 DUP3 ADD SWAP2 POP PUSH1 0x20 DUP6 ADD SWAP5 POP PUSH1 0x20 DUP2 ADD SWAP1 POP PUSH2 0x1684 JUMP JUMPDEST DUP7 DUP4 LT ISZERO PUSH2 0x16C6 JUMPI DUP5 DUP10 ADD MLOAD PUSH2 0x16C2 PUSH1 0x1F DUP10 AND DUP3 PUSH2 0x15CF JUMP JUMPDEST DUP4 SSTORE POP JUMPDEST PUSH1 0x1 PUSH1 0x2 DUP9 MUL ADD DUP9 SSTORE POP POP POP JUMPDEST POP POP POP POP POP POP JUMP JUMPDEST PUSH32 0x4E487B7100000000000000000000000000000000000000000000000000000000 PUSH1 0x0 MSTORE PUSH1 0x32 PUSH1 0x4 MSTORE PUSH1 0x24 PUSH1 0x0 REVERT JUMPDEST PUSH32 0x545745455420444F4553204E4F54204558495354210000000000000000000000 PUSH1 0x0 DUP3 ADD MSTORE POP JUMP JUMPDEST PUSH1 0x0 PUSH2 0x1740 PUSH1 0x15 DUP4 PUSH2 0xD02 JUMP JUMPDEST SWAP2 POP PUSH2 0x174B DUP3 PUSH2 0x170A JUMP JUMPDEST PUSH1 0x20 DUP3 ADD SWAP1 POP SWAP2 SWAP1 POP JUMP JUMPDEST PUSH1 0x0 PUSH1 0x20 DUP3 ADD SWAP1 POP DUP2 DUP2 SUB PUSH1 0x0 DUP4 ADD MSTORE PUSH2 0x176F DUP2 PUSH2 0x1733 JUMP JUMPDEST SWAP1 POP SWAP2 SWAP1 POP JUMP JUMPDEST PUSH32 0x546865726520617265206E6F206C696B65730000000000000000000000000000 PUSH1 0x0 DUP3 ADD MSTORE POP JUMP JUMPDEST PUSH1 0x0 PUSH2 0x17AC PUSH1 0x12 DUP4 PUSH2 0xD02 JUMP JUMPDEST SWAP2 POP PUSH2 0x17B7 DUP3 PUSH2 0x1776 JUMP JUMPDEST PUSH1 0x20 DUP3 ADD SWAP1 POP SWAP2 SWAP1 POP JUMP JUMPDEST PUSH1 0x0 PUSH1 0x20 DUP3 ADD SWAP1 POP DUP2 DUP2 SUB PUSH1 0x0 DUP4 ADD MSTORE PUSH2 0x17DB DUP2 PUSH2 0x179F JUMP JUMPDEST SWAP1 POP SWAP2 SWAP1 POP JUMP JUMPDEST PUSH32 0x4E487B7100000000000000000000000000000000000000000000000000000000 PUSH1 0x0 MSTORE PUSH1 0x11 PUSH1 0x4 MSTORE PUSH1 0x24 PUSH1 0x0 REVERT JUMPDEST PUSH1 0x0 PUSH2 0x181C DUP3 PUSH2 0xC63 JUMP JUMPDEST SWAP2 POP PUSH1 0x0 DUP3 SUB PUSH2 0x182F JUMPI PUSH2 0x182E PUSH2 0x17E2 JUMP JUMPDEST JUMPDEST PUSH1 0x1 DUP3 SUB SWAP1 POP SWAP2 SWAP1 POP JUMP JUMPDEST PUSH1 0x0 PUSH2 0x1845 DUP3 PUSH2 0xC63 JUMP JUMPDEST SWAP2 POP PUSH32 0xFFFFFFFFFFFFFFFFFFFFFFFFFFFFFFFFFFFFFFFFFFFFFFFFFFFFFFFFFFFFFFFF DUP3 SUB PUSH2 0x1877 JUMPI PUSH2 0x1876 PUSH2 0x17E2 JUMP JUMPDEST JUMPDEST PUSH1 0x1 DUP3 ADD SWAP1 POP SWAP2 SWAP1 POP JUMP INVALID LOG2 PUSH5 0x6970667358 0x22 SLT KECCAK256 SWAP6 0xDE 0xBF 0xB4 DUP11 0xAA SWAP7 DUP6 DIFFICULTY 0x1E DUP6 COINBASE PUSH0 0x22 PUSH5 0x64CB8B003A 0xB0 0xCD 0xEA CALLDATASIZE PUSH3 0x136262 SELFBALANCE RETURNDATACOPY CODECOPY EXP PUSH5 0x736F6C6343 STOP ADDMOD BYTE STOP CALLER "
				},
				"gasEstimates": {
					"creation": {
						"codeDepositCost": "1265600",
						"executionCost": "49848",
						"totalCost": "1315448"
					},
					"external": {
						"MAX_TWEET_LENGTH()": "2513",
						"changeTweetLength(uint16)": "26872",
						"createTweet(string)": "infinite",
						"getAllTweet(address)": "infinite",
						"getTweet(uint256)": "infinite",
						"likeTweet(uint256,address)": "infinite",
						"owner()": "2514",
						"tweets(address,uint256)": "infinite",
						"unlikeTweet(uint256,address)": "infinite"
					}
				},
				"methodIdentifiers": {
					"MAX_TWEET_LENGTH()": "6eb10797",
					"changeTweetLength(uint16)": "58bfa4ab",
					"createTweet(string)": "7c9cd2bc",
					"getAllTweet(address)": "b64988b8",
					"getTweet(uint256)": "c3ad5ecb",
					"likeTweet(uint256,address)": "d04ddaa0",
					"owner()": "8da5cb5b",
					"tweets(address,uint256)": "05a1b4a9",
					"unlikeTweet(uint256,address)": "a1488f7c"
				}
			},
			"storageLayout": {
				"storage": [
					{
						"astId": 4,
						"contract": "contracts/Twitter.sol:Twitter",
						"label": "MAX_TWEET_LENGTH",
						"offset": 0,
						"slot": "0",
						"type": "t_uint16"
					},
					{
						"astId": 21,
						"contract": "contracts/Twitter.sol:Twitter",
						"label": "tweets",
						"offset": 0,
						"slot": "1",
						"type": "t_mapping(t_address,t_array(t_struct(Tweet)15_storage)dyn_storage)"
					},
					{
						"astId": 23,
						"contract": "contracts/Twitter.sol:Twitter",
						"label": "owner",
						"offset": 0,
						"slot": "2",
						"type": "t_address"
					}
				],
				"types": {
					"t_address": {
						"encoding": "inplace",
						"label": "address",
						"numberOfBytes": "20"
					},
					"t_array(t_struct(Tweet)15_storage)dyn_storage": {
						"base": "t_struct(Tweet)15_storage",
						"encoding": "dynamic_array",
						"label": "struct Twitter.Tweet[]",
						"numberOfBytes": "32"
					},
					"t_mapping(t_address,t_array(t_struct(Tweet)15_storage)dyn_storage)": {
						"encoding": "mapping",
						"key": "t_address",
						"label": "mapping(address => struct Twitter.Tweet[])",
						"numberOfBytes": "32",
						"value": "t_array(t_struct(Tweet)15_storage)dyn_storage"
					},
					"t_string_storage": {
						"encoding": "bytes",
						"label": "string",
						"numberOfBytes": "32"
					},
					"t_struct(Tweet)15_storage": {
						"encoding": "inplace",
						"label": "struct Twitter.Tweet",
						"members": [
							{
								"astId": 6,
								"contract": "contracts/Twitter.sol:Twitter",
								"label": "id",
								"offset": 0,
								"slot": "0",
								"type": "t_uint256"
							},
							{
								"astId": 8,
								"contract": "contracts/Twitter.sol:Twitter",
								"label": "author",
								"offset": 0,
								"slot": "1",
								"type": "t_address"
							},
							{
								"astId": 10,
								"contract": "contracts/Twitter.sol:Twitter",
								"label": "tweet",
								"offset": 0,
								"slot": "2",
								"type": "t_string_storage"
							},
							{
								"astId": 12,
								"contract": "contracts/Twitter.sol:Twitter",
								"label": "timestamp",
								"offset": 0,
								"slot": "3",
								"type": "t_uint256"
							},
							{
								"astId": 14,
								"contract": "contracts/Twitter.sol:Twitter",
								"label": "likes",
								"offset": 0,
								"slot": "4",
								"type": "t_uint256"
							}
						],
						"numberOfBytes": "160"
					},
					"t_uint16": {
						"encoding": "inplace",
						"label": "uint16",
						"numberOfBytes": "2"
					},
					"t_uint256": {
						"encoding": "inplace",
						"label": "uint256",
						"numberOfBytes": "32"
					}
				}
			},
			"userdoc": {
				"kind": "user",
				"methods": {},
				"version": 1
			}
		}
	}
}