{
	"contracts/SimpleStorage.sol": {
		"SimpleStorage": {
			"abi": [
				{
					"inputs": [
						{
							"internalType": "string",
							"name": "_name",
							"type": "string"
						},
						{
							"internalType": "uint256",
							"name": "_favoriteNumber",
							"type": "uint256"
						}
					],
					"name": "addPerson",
					"outputs": [],
					"stateMutability": "nonpayable",
					"type": "function"
				},
				{
					"inputs": [
						{
							"internalType": "string",
							"name": "",
							"type": "string"
						}
					],
					"name": "nameTofavoriteNumber",
					"outputs": [
						{
							"internalType": "uint256",
							"name": "",
							"type": "uint256"
						}
					],
					"stateMutability": "view",
					"type": "function"
				},
				{
					"inputs": [
						{
							"internalType": "uint256",
							"name": "",
							"type": "uint256"
						}
					],
					"name": "people",
					"outputs": [
						{
							"internalType": "uint256",
							"name": "favoriteNumber",
							"type": "uint256"
						},
						{
							"internalType": "string",
							"name": "name",
							"type": "string"
						}
					],
					"stateMutability": "view",
					"type": "function"
				},
				{
					"inputs": [],
					"name": "retrieve",
					"outputs": [
						{
							"internalType": "uint256",
							"name": "",
							"type": "uint256"
						}
					],
					"stateMutability": "view",
					"type": "function"
				},
				{
					"inputs": [
						{
							"internalType": "uint256",
							"name": "_favoriteNumber",
							"type": "uint256"
						}
					],
					"name": "store",
					"outputs": [],
					"stateMutability": "nonpayable",
					"type": "function"
				}
			],
			"devdoc": {
				"kind": "dev",
				"methods": {},
				"version": 1
			},
			"evm": {
				"assembly": "    /* \"contracts/SimpleStorage.sol\":100:1313  contract SimpleStorage {... */\n  mstore(0x40, 0x80)\n  callvalue\n  dup1\n  iszero\n  tag_1\n  jumpi\n  0x00\n  dup1\n  revert\ntag_1:\n  pop\n  dataSize(sub_0)\n  dup1\n  dataOffset(sub_0)\n  0x00\n  codecopy\n  0x00\n  return\nstop\n\nsub_0: assembly {\n        /* \"contracts/SimpleStorage.sol\":100:1313  contract SimpleStorage {... */\n      mstore(0x40, 0x80)\n      callvalue\n      dup1\n      iszero\n      tag_1\n      jumpi\n      0x00\n      dup1\n      revert\n    tag_1:\n      pop\n      jumpi(tag_2, lt(calldatasize, 0x04))\n      shr(0xe0, calldataload(0x00))\n      dup1\n      0x03a43009\n      eq\n      tag_3\n      jumpi\n      dup1\n      0x2e64cec1\n      eq\n      tag_4\n      jumpi\n      dup1\n      0x6057361d\n      eq\n      tag_5\n      jumpi\n      dup1\n      0x6f760f41\n      eq\n      tag_6\n      jumpi\n      dup1\n      0x9e7a13ad\n      eq\n      tag_7\n      jumpi\n    tag_2:\n      0x00\n      dup1\n      revert\n        /* \"contracts/SimpleStorage.sol\":636:690  mapping(string => uint256) public nameTofavoriteNumber */\n    tag_3:\n      tag_8\n      0x04\n      dup1\n      calldatasize\n      sub\n      dup2\n      add\n      swap1\n      tag_9\n      swap2\n      swap1\n      tag_10\n      jump\t// in\n    tag_9:\n      tag_11\n      jump\t// in\n    tag_8:\n      mload(0x40)\n      tag_12\n      swap2\n      swap1\n      tag_13\n      jump\t// in\n    tag_12:\n      mload(0x40)\n      dup1\n      swap2\n      sub\n      swap1\n      return\n        /* \"contracts/SimpleStorage.sol\":885:974  function retrieve() public view returns(uint256) {... */\n    tag_4:\n      tag_14\n      tag_15\n      jump\t// in\n    tag_14:\n      mload(0x40)\n      tag_16\n      swap2\n      swap1\n      tag_13\n      jump\t// in\n    tag_16:\n      mload(0x40)\n      dup1\n      swap2\n      sub\n      swap1\n      return\n        /* \"contracts/SimpleStorage.sol\":771:877  function store(uint256 _favoriteNumber) public virtual {... */\n    tag_5:\n      tag_17\n      0x04\n      dup1\n      calldatasize\n      sub\n      dup2\n      add\n      swap1\n      tag_18\n      swap2\n      swap1\n      tag_19\n      jump\t// in\n    tag_18:\n      tag_20\n      jump\t// in\n    tag_17:\n      stop\n        /* \"contracts/SimpleStorage.sol\":982:1304  function addPerson(string memory _name, uint256 _favoriteNumber) public {... */\n    tag_6:\n      tag_21\n      0x04\n      dup1\n      calldatasize\n      sub\n      dup2\n      add\n      swap1\n      tag_22\n      swap2\n      swap1\n      tag_23\n      jump\t// in\n    tag_22:\n      tag_24\n      jump\t// in\n    tag_21:\n      stop\n        /* \"contracts/SimpleStorage.sol\":740:762  People[] public people */\n    tag_7:\n      tag_25\n      0x04\n      dup1\n      calldatasize\n      sub\n      dup2\n      add\n      swap1\n      tag_26\n      swap2\n      swap1\n      tag_19\n      jump\t// in\n    tag_26:\n      tag_27\n      jump\t// in\n    tag_25:\n      mload(0x40)\n      tag_28\n      swap3\n      swap2\n      swap1\n      tag_29\n      jump\t// in\n    tag_28:\n      mload(0x40)\n      dup1\n      swap2\n      sub\n      swap1\n      return\n        /* \"contracts/SimpleStorage.sol\":636:690  mapping(string => uint256) public nameTofavoriteNumber */\n    tag_11:\n      0x01\n      dup2\n      dup1\n      mload\n      0x20\n      dup2\n      add\n      dup3\n      add\n      dup1\n      mload\n      dup5\n      dup3\n      mstore\n      0x20\n      dup4\n      add\n      0x20\n      dup6\n      add\n      keccak256\n      dup2\n      dup4\n      mstore\n      dup1\n      swap6\n      pop\n      pop\n      pop\n      pop\n      pop\n      pop\n      0x00\n      swap2\n      pop\n      swap1\n      pop\n      sload\n      dup2\n      jump\t// out\n        /* \"contracts/SimpleStorage.sol\":885:974  function retrieve() public view returns(uint256) {... */\n    tag_15:\n        /* \"contracts/SimpleStorage.sol\":925:932  uint256 */\n      0x00\n        /* \"contracts/SimpleStorage.sol\":952:966  favoriteNumber */\n      dup1\n      sload\n        /* \"contracts/SimpleStorage.sol\":945:966  return favoriteNumber */\n      swap1\n      pop\n        /* \"contracts/SimpleStorage.sol\":885:974  function retrieve() public view returns(uint256) {... */\n      swap1\n      jump\t// out\n        /* \"contracts/SimpleStorage.sol\":771:877  function store(uint256 _favoriteNumber) public virtual {... */\n    tag_20:\n        /* \"contracts/SimpleStorage.sol\":854:869  _favoriteNumber */\n      dup1\n        /* \"contracts/SimpleStorage.sol\":837:851  favoriteNumber */\n      0x00\n        /* \"contracts/SimpleStorage.sol\":837:869  favoriteNumber = _favoriteNumber */\n      dup2\n      swap1\n      sstore\n      pop\n        /* \"contracts/SimpleStorage.sol\":771:877  function store(uint256 _favoriteNumber) public virtual {... */\n      pop\n      jump\t// out\n        /* \"contracts/SimpleStorage.sol\":982:1304  function addPerson(string memory _name, uint256 _favoriteNumber) public {... */\n    tag_24:\n        /* \"contracts/SimpleStorage.sol\":1197:1203  people */\n      0x02\n        /* \"contracts/SimpleStorage.sol\":1209:1239  People(_favoriteNumber, _name) */\n      mload(0x40)\n      dup1\n      0x40\n      add\n      0x40\n      mstore\n      dup1\n        /* \"contracts/SimpleStorage.sol\":1216:1231  _favoriteNumber */\n      dup4\n        /* \"contracts/SimpleStorage.sol\":1209:1239  People(_favoriteNumber, _name) */\n      dup2\n      mstore\n      0x20\n      add\n        /* \"contracts/SimpleStorage.sol\":1233:1238  _name */\n      dup5\n        /* \"contracts/SimpleStorage.sol\":1209:1239  People(_favoriteNumber, _name) */\n      dup2\n      mstore\n      pop\n        /* \"contracts/SimpleStorage.sol\":1197:1240  people.push(People(_favoriteNumber, _name)) */\n      swap1\n      dup1\n      0x01\n      dup2\n      sload\n      add\n      dup1\n      dup3\n      sstore\n      dup1\n      swap2\n      pop\n      pop\n      0x01\n      swap1\n      sub\n      swap1\n      0x00\n      mstore\n      keccak256(0x00, 0x20)\n      swap1\n      0x02\n      mul\n      add\n      0x00\n      swap1\n      swap2\n      swap1\n      swap2\n      swap1\n      swap2\n      pop\n      0x00\n      dup3\n      add\n      mload\n      dup2\n      0x00\n      add\n      sstore\n      0x20\n      dup3\n      add\n      mload\n      dup2\n      0x01\n      add\n      swap1\n      dup2\n      tag_34\n      swap2\n      swap1\n      tag_35\n      jump\t// in\n    tag_34:\n      pop\n      pop\n      pop\n        /* \"contracts/SimpleStorage.sol\":1281:1296  _favoriteNumber */\n      dup1\n        /* \"contracts/SimpleStorage.sol\":1251:1271  nameTofavoriteNumber */\n      0x01\n        /* \"contracts/SimpleStorage.sol\":1272:1277  _name */\n      dup4\n        /* \"contracts/SimpleStorage.sol\":1251:1278  nameTofavoriteNumber[_name] */\n      mload(0x40)\n      tag_36\n      swap2\n      swap1\n      tag_37\n      jump\t// in\n    tag_36:\n      swap1\n      dup2\n      mstore\n      0x20\n      add\n      mload(0x40)\n      dup1\n      swap2\n      sub\n      swap1\n      keccak256\n        /* \"contracts/SimpleStorage.sol\":1251:1296  nameTofavoriteNumber[_name] = _favoriteNumber */\n      dup2\n      swap1\n      sstore\n      pop\n        /* \"contracts/SimpleStorage.sol\":982:1304  function addPerson(string memory _name, uint256 _favoriteNumber) public {... */\n      pop\n      pop\n      jump\t// out\n        /* \"contracts/SimpleStorage.sol\":740:762  People[] public people */\n    tag_27:\n      0x02\n      dup2\n      dup2\n      sload\n      dup2\n      lt\n      tag_38\n      jumpi\n      0x00\n      dup1\n      revert\n    tag_38:\n      swap1\n      0x00\n      mstore\n      keccak256(0x00, 0x20)\n      swap1\n      0x02\n      mul\n      add\n      0x00\n      swap2\n      pop\n      swap1\n      pop\n      dup1\n      0x00\n      add\n      sload\n      swap1\n      dup1\n      0x01\n      add\n      dup1\n      sload\n      tag_40\n      swap1\n      tag_41\n      jump\t// in\n    tag_40:\n      dup1\n      0x1f\n      add\n      0x20\n      dup1\n      swap2\n      div\n      mul\n      0x20\n      add\n      mload(0x40)\n      swap1\n      dup2\n      add\n      0x40\n      mstore\n      dup1\n      swap3\n      swap2\n      swap1\n      dup2\n      dup2\n      mstore\n      0x20\n      add\n      dup3\n      dup1\n      sload\n      tag_42\n      swap1\n      tag_41\n      jump\t// in\n    tag_42:\n      dup1\n      iszero\n      tag_43\n      jumpi\n      dup1\n      0x1f\n      lt\n      tag_44\n      jumpi\n      0x0100\n      dup1\n      dup4\n      sload\n      div\n      mul\n      dup4\n      mstore\n      swap2\n      0x20\n      add\n      swap2\n      jump(tag_43)\n    tag_44:\n      dup3\n      add\n      swap2\n      swap1\n      0x00\n      mstore\n      keccak256(0x00, 0x20)\n      swap1\n    tag_45:\n      dup2\n      sload\n      dup2\n      mstore\n      swap1\n      0x01\n      add\n      swap1\n      0x20\n      add\n      dup1\n      dup4\n      gt\n      tag_45\n      jumpi\n      dup3\n      swap1\n      sub\n      0x1f\n      and\n      dup3\n      add\n      swap2\n    tag_43:\n      pop\n      pop\n      pop\n      pop\n      pop\n      swap1\n      pop\n      dup3\n      jump\t// out\n        /* \"#utility.yul\":7:82   */\n    tag_46:\n        /* \"#utility.yul\":40:46   */\n      0x00\n        /* \"#utility.yul\":73:75   */\n      0x40\n        /* \"#utility.yul\":67:76   */\n      mload\n        /* \"#utility.yul\":57:76   */\n      swap1\n      pop\n        /* \"#utility.yul\":7:82   */\n      swap1\n      jump\t// out\n        /* \"#utility.yul\":88:205   */\n    tag_47:\n        /* \"#utility.yul\":197:198   */\n      0x00\n        /* \"#utility.yul\":194:195   */\n      dup1\n        /* \"#utility.yul\":187:199   */\n      revert\n        /* \"#utility.yul\":211:328   */\n    tag_48:\n        /* \"#utility.yul\":320:321   */\n      0x00\n        /* \"#utility.yul\":317:318   */\n      dup1\n        /* \"#utility.yul\":310:322   */\n      revert\n        /* \"#utility.yul\":334:451   */\n    tag_49:\n        /* \"#utility.yul\":443:444   */\n      0x00\n        /* \"#utility.yul\":440:441   */\n      dup1\n        /* \"#utility.yul\":433:445   */\n      revert\n        /* \"#utility.yul\":457:574   */\n    tag_50:\n        /* \"#utility.yul\":566:567   */\n      0x00\n        /* \"#utility.yul\":563:564   */\n      dup1\n        /* \"#utility.yul\":556:568   */\n      revert\n        /* \"#utility.yul\":580:682   */\n    tag_51:\n        /* \"#utility.yul\":621:627   */\n      0x00\n        /* \"#utility.yul\":672:674   */\n      0x1f\n        /* \"#utility.yul\":668:675   */\n      not\n        /* \"#utility.yul\":663:665   */\n      0x1f\n        /* \"#utility.yul\":656:661   */\n      dup4\n        /* \"#utility.yul\":652:666   */\n      add\n        /* \"#utility.yul\":648:676   */\n      and\n        /* \"#utility.yul\":638:676   */\n      swap1\n      pop\n        /* \"#utility.yul\":580:682   */\n      swap2\n      swap1\n      pop\n      jump\t// out\n        /* \"#utility.yul\":688:868   */\n    tag_52:\n        /* \"#utility.yul\":736:813   */\n      0x4e487b7100000000000000000000000000000000000000000000000000000000\n        /* \"#utility.yul\":733:734   */\n      0x00\n        /* \"#utility.yul\":726:814   */\n      mstore\n        /* \"#utility.yul\":833:837   */\n      0x41\n        /* \"#utility.yul\":830:831   */\n      0x04\n        /* \"#utility.yul\":823:838   */\n      mstore\n        /* \"#utility.yul\":857:861   */\n      0x24\n        /* \"#utility.yul\":854:855   */\n      0x00\n        /* \"#utility.yul\":847:862   */\n      revert\n        /* \"#utility.yul\":874:1155   */\n    tag_53:\n        /* \"#utility.yul\":957:984   */\n      tag_94\n        /* \"#utility.yul\":979:983   */\n      dup3\n        /* \"#utility.yul\":957:984   */\n      tag_51\n      jump\t// in\n    tag_94:\n        /* \"#utility.yul\":949:955   */\n      dup2\n        /* \"#utility.yul\":945:985   */\n      add\n        /* \"#utility.yul\":1087:1093   */\n      dup2\n        /* \"#utility.yul\":1075:1085   */\n      dup2\n        /* \"#utility.yul\":1072:1094   */\n      lt\n        /* \"#utility.yul\":1051:1069   */\n      0xffffffffffffffff\n        /* \"#utility.yul\":1039:1049   */\n      dup3\n        /* \"#utility.yul\":1036:1070   */\n      gt\n        /* \"#utility.yul\":1033:1095   */\n      or\n        /* \"#utility.yul\":1030:1118   */\n      iszero\n      tag_95\n      jumpi\n        /* \"#utility.yul\":1098:1116   */\n      tag_96\n      tag_52\n      jump\t// in\n    tag_96:\n        /* \"#utility.yul\":1030:1118   */\n    tag_95:\n        /* \"#utility.yul\":1138:1148   */\n      dup1\n        /* \"#utility.yul\":1134:1136   */\n      0x40\n        /* \"#utility.yul\":1127:1149   */\n      mstore\n        /* \"#utility.yul\":917:1155   */\n      pop\n        /* \"#utility.yul\":874:1155   */\n      pop\n      pop\n      jump\t// out\n        /* \"#utility.yul\":1161:1290   */\n    tag_54:\n        /* \"#utility.yul\":1195:1201   */\n      0x00\n        /* \"#utility.yul\":1222:1242   */\n      tag_98\n      tag_46\n      jump\t// in\n    tag_98:\n        /* \"#utility.yul\":1212:1242   */\n      swap1\n      pop\n        /* \"#utility.yul\":1251:1284   */\n      tag_99\n        /* \"#utility.yul\":1279:1283   */\n      dup3\n        /* \"#utility.yul\":1271:1277   */\n      dup3\n        /* \"#utility.yul\":1251:1284   */\n      tag_53\n      jump\t// in\n    tag_99:\n        /* \"#utility.yul\":1161:1290   */\n      swap2\n      swap1\n      pop\n      jump\t// out\n        /* \"#utility.yul\":1296:1604   */\n    tag_55:\n        /* \"#utility.yul\":1358:1362   */\n      0x00\n        /* \"#utility.yul\":1448:1466   */\n      0xffffffffffffffff\n        /* \"#utility.yul\":1440:1446   */\n      dup3\n        /* \"#utility.yul\":1437:1467   */\n      gt\n        /* \"#utility.yul\":1434:1490   */\n      iszero\n      tag_101\n      jumpi\n        /* \"#utility.yul\":1470:1488   */\n      tag_102\n      tag_52\n      jump\t// in\n    tag_102:\n        /* \"#utility.yul\":1434:1490   */\n    tag_101:\n        /* \"#utility.yul\":1508:1537   */\n      tag_103\n        /* \"#utility.yul\":1530:1536   */\n      dup3\n        /* \"#utility.yul\":1508:1537   */\n      tag_51\n      jump\t// in\n    tag_103:\n        /* \"#utility.yul\":1500:1537   */\n      swap1\n      pop\n        /* \"#utility.yul\":1592:1596   */\n      0x20\n        /* \"#utility.yul\":1586:1590   */\n      dup2\n        /* \"#utility.yul\":1582:1597   */\n      add\n        /* \"#utility.yul\":1574:1597   */\n      swap1\n      pop\n        /* \"#utility.yul\":1296:1604   */\n      swap2\n      swap1\n      pop\n      jump\t// out\n        /* \"#utility.yul\":1610:1758   */\n    tag_56:\n        /* \"#utility.yul\":1708:1714   */\n      dup3\n        /* \"#utility.yul\":1703:1706   */\n      dup2\n        /* \"#utility.yul\":1698:1701   */\n      dup4\n        /* \"#utility.yul\":1685:1715   */\n      calldatacopy\n        /* \"#utility.yul\":1749:1750   */\n      0x00\n        /* \"#utility.yul\":1740:1746   */\n      dup4\n        /* \"#utility.yul\":1735:1738   */\n      dup4\n        /* \"#utility.yul\":1731:1747   */\n      add\n        /* \"#utility.yul\":1724:1751   */\n      mstore\n        /* \"#utility.yul\":1610:1758   */\n      pop\n      pop\n      pop\n      jump\t// out\n        /* \"#utility.yul\":1764:2189   */\n    tag_57:\n        /* \"#utility.yul\":1842:1847   */\n      0x00\n        /* \"#utility.yul\":1867:1933   */\n      tag_106\n        /* \"#utility.yul\":1883:1932   */\n      tag_107\n        /* \"#utility.yul\":1925:1931   */\n      dup5\n        /* \"#utility.yul\":1883:1932   */\n      tag_55\n      jump\t// in\n    tag_107:\n        /* \"#utility.yul\":1867:1933   */\n      tag_54\n      jump\t// in\n    tag_106:\n        /* \"#utility.yul\":1858:1933   */\n      swap1\n      pop\n        /* \"#utility.yul\":1956:1962   */\n      dup3\n        /* \"#utility.yul\":1949:1954   */\n      dup2\n        /* \"#utility.yul\":1942:1963   */\n      mstore\n        /* \"#utility.yul\":1994:1998   */\n      0x20\n        /* \"#utility.yul\":1987:1992   */\n      dup2\n        /* \"#utility.yul\":1983:1999   */\n      add\n        /* \"#utility.yul\":2032:2035   */\n      dup5\n        /* \"#utility.yul\":2023:2029   */\n      dup5\n        /* \"#utility.yul\":2018:2021   */\n      dup5\n        /* \"#utility.yul\":2014:2030   */\n      add\n        /* \"#utility.yul\":2011:2036   */\n      gt\n        /* \"#utility.yul\":2008:2120   */\n      iszero\n      tag_108\n      jumpi\n        /* \"#utility.yul\":2039:2118   */\n      tag_109\n      tag_50\n      jump\t// in\n    tag_109:\n        /* \"#utility.yul\":2008:2120   */\n    tag_108:\n        /* \"#utility.yul\":2129:2183   */\n      tag_110\n        /* \"#utility.yul\":2176:2182   */\n      dup5\n        /* \"#utility.yul\":2171:2174   */\n      dup3\n        /* \"#utility.yul\":2166:2169   */\n      dup6\n        /* \"#utility.yul\":2129:2183   */\n      tag_56\n      jump\t// in\n    tag_110:\n        /* \"#utility.yul\":1848:2189   */\n      pop\n        /* \"#utility.yul\":1764:2189   */\n      swap4\n      swap3\n      pop\n      pop\n      pop\n      jump\t// out\n        /* \"#utility.yul\":2209:2549   */\n    tag_58:\n        /* \"#utility.yul\":2265:2270   */\n      0x00\n        /* \"#utility.yul\":2314:2317   */\n      dup3\n        /* \"#utility.yul\":2307:2311   */\n      0x1f\n        /* \"#utility.yul\":2299:2305   */\n      dup4\n        /* \"#utility.yul\":2295:2312   */\n      add\n        /* \"#utility.yul\":2291:2318   */\n      slt\n        /* \"#utility.yul\":2281:2403   */\n      tag_112\n      jumpi\n        /* \"#utility.yul\":2322:2401   */\n      tag_113\n      tag_49\n      jump\t// in\n    tag_113:\n        /* \"#utility.yul\":2281:2403   */\n    tag_112:\n        /* \"#utility.yul\":2439:2445   */\n      dup2\n        /* \"#utility.yul\":2426:2446   */\n      calldataload\n        /* \"#utility.yul\":2464:2543   */\n      tag_114\n        /* \"#utility.yul\":2539:2542   */\n      dup5\n        /* \"#utility.yul\":2531:2537   */\n      dup3\n        /* \"#utility.yul\":2524:2528   */\n      0x20\n        /* \"#utility.yul\":2516:2522   */\n      dup7\n        /* \"#utility.yul\":2512:2529   */\n      add\n        /* \"#utility.yul\":2464:2543   */\n      tag_57\n      jump\t// in\n    tag_114:\n        /* \"#utility.yul\":2455:2543   */\n      swap2\n      pop\n        /* \"#utility.yul\":2271:2549   */\n      pop\n        /* \"#utility.yul\":2209:2549   */\n      swap3\n      swap2\n      pop\n      pop\n      jump\t// out\n        /* \"#utility.yul\":2555:3064   */\n    tag_10:\n        /* \"#utility.yul\":2624:2630   */\n      0x00\n        /* \"#utility.yul\":2673:2675   */\n      0x20\n        /* \"#utility.yul\":2661:2670   */\n      dup3\n        /* \"#utility.yul\":2652:2659   */\n      dup5\n        /* \"#utility.yul\":2648:2671   */\n      sub\n        /* \"#utility.yul\":2644:2676   */\n      slt\n        /* \"#utility.yul\":2641:2760   */\n      iszero\n      tag_116\n      jumpi\n        /* \"#utility.yul\":2679:2758   */\n      tag_117\n      tag_47\n      jump\t// in\n    tag_117:\n        /* \"#utility.yul\":2641:2760   */\n    tag_116:\n        /* \"#utility.yul\":2827:2828   */\n      0x00\n        /* \"#utility.yul\":2816:2825   */\n      dup3\n        /* \"#utility.yul\":2812:2829   */\n      add\n        /* \"#utility.yul\":2799:2830   */\n      calldataload\n        /* \"#utility.yul\":2857:2875   */\n      0xffffffffffffffff\n        /* \"#utility.yul\":2849:2855   */\n      dup2\n        /* \"#utility.yul\":2846:2876   */\n      gt\n        /* \"#utility.yul\":2843:2960   */\n      iszero\n      tag_118\n      jumpi\n        /* \"#utility.yul\":2879:2958   */\n      tag_119\n      tag_48\n      jump\t// in\n    tag_119:\n        /* \"#utility.yul\":2843:2960   */\n    tag_118:\n        /* \"#utility.yul\":2984:3047   */\n      tag_120\n        /* \"#utility.yul\":3039:3046   */\n      dup5\n        /* \"#utility.yul\":3030:3036   */\n      dup3\n        /* \"#utility.yul\":3019:3028   */\n      dup6\n        /* \"#utility.yul\":3015:3037   */\n      add\n        /* \"#utility.yul\":2984:3047   */\n      tag_58\n      jump\t// in\n    tag_120:\n        /* \"#utility.yul\":2974:3047   */\n      swap2\n      pop\n        /* \"#utility.yul\":2770:3057   */\n      pop\n        /* \"#utility.yul\":2555:3064   */\n      swap3\n      swap2\n      pop\n      pop\n      jump\t// out\n        /* \"#utility.yul\":3070:3147   */\n    tag_59:\n        /* \"#utility.yul\":3107:3114   */\n      0x00\n        /* \"#utility.yul\":3136:3141   */\n      dup2\n        /* \"#utility.yul\":3125:3141   */\n      swap1\n      pop\n        /* \"#utility.yul\":3070:3147   */\n      swap2\n      swap1\n      pop\n      jump\t// out\n        /* \"#utility.yul\":3153:3271   */\n    tag_60:\n        /* \"#utility.yul\":3240:3264   */\n      tag_123\n        /* \"#utility.yul\":3258:3263   */\n      dup2\n        /* \"#utility.yul\":3240:3264   */\n      tag_59\n      jump\t// in\n    tag_123:\n        /* \"#utility.yul\":3235:3238   */\n      dup3\n        /* \"#utility.yul\":3228:3265   */\n      mstore\n        /* \"#utility.yul\":3153:3271   */\n      pop\n      pop\n      jump\t// out\n        /* \"#utility.yul\":3277:3499   */\n    tag_13:\n        /* \"#utility.yul\":3370:3374   */\n      0x00\n        /* \"#utility.yul\":3408:3410   */\n      0x20\n        /* \"#utility.yul\":3397:3406   */\n      dup3\n        /* \"#utility.yul\":3393:3411   */\n      add\n        /* \"#utility.yul\":3385:3411   */\n      swap1\n      pop\n        /* \"#utility.yul\":3421:3492   */\n      tag_125\n        /* \"#utility.yul\":3489:3490   */\n      0x00\n        /* \"#utility.yul\":3478:3487   */\n      dup4\n        /* \"#utility.yul\":3474:3491   */\n      add\n        /* \"#utility.yul\":3465:3471   */\n      dup5\n        /* \"#utility.yul\":3421:3492   */\n      tag_60\n      jump\t// in\n    tag_125:\n        /* \"#utility.yul\":3277:3499   */\n      swap3\n      swap2\n      pop\n      pop\n      jump\t// out\n        /* \"#utility.yul\":3505:3627   */\n    tag_61:\n        /* \"#utility.yul\":3578:3602   */\n      tag_127\n        /* \"#utility.yul\":3596:3601   */\n      dup2\n        /* \"#utility.yul\":3578:3602   */\n      tag_59\n      jump\t// in\n    tag_127:\n        /* \"#utility.yul\":3571:3576   */\n      dup2\n        /* \"#utility.yul\":3568:3603   */\n      eq\n        /* \"#utility.yul\":3558:3621   */\n      tag_128\n      jumpi\n        /* \"#utility.yul\":3617:3618   */\n      0x00\n        /* \"#utility.yul\":3614:3615   */\n      dup1\n        /* \"#utility.yul\":3607:3619   */\n      revert\n        /* \"#utility.yul\":3558:3621   */\n    tag_128:\n        /* \"#utility.yul\":3505:3627   */\n      pop\n      jump\t// out\n        /* \"#utility.yul\":3633:3772   */\n    tag_62:\n        /* \"#utility.yul\":3679:3684   */\n      0x00\n        /* \"#utility.yul\":3717:3723   */\n      dup2\n        /* \"#utility.yul\":3704:3724   */\n      calldataload\n        /* \"#utility.yul\":3695:3724   */\n      swap1\n      pop\n        /* \"#utility.yul\":3733:3766   */\n      tag_130\n        /* \"#utility.yul\":3760:3765   */\n      dup2\n        /* \"#utility.yul\":3733:3766   */\n      tag_61\n      jump\t// in\n    tag_130:\n        /* \"#utility.yul\":3633:3772   */\n      swap3\n      swap2\n      pop\n      pop\n      jump\t// out\n        /* \"#utility.yul\":3778:4107   */\n    tag_19:\n        /* \"#utility.yul\":3837:3843   */\n      0x00\n        /* \"#utility.yul\":3886:3888   */\n      0x20\n        /* \"#utility.yul\":3874:3883   */\n      dup3\n        /* \"#utility.yul\":3865:3872   */\n      dup5\n        /* \"#utility.yul\":3861:3884   */\n      sub\n        /* \"#utility.yul\":3857:3889   */\n      slt\n        /* \"#utility.yul\":3854:3973   */\n      iszero\n      tag_132\n      jumpi\n        /* \"#utility.yul\":3892:3971   */\n      tag_133\n      tag_47\n      jump\t// in\n    tag_133:\n        /* \"#utility.yul\":3854:3973   */\n    tag_132:\n        /* \"#utility.yul\":4012:4013   */\n      0x00\n        /* \"#utility.yul\":4037:4090   */\n      tag_134\n        /* \"#utility.yul\":4082:4089   */\n      dup5\n        /* \"#utility.yul\":4073:4079   */\n      dup3\n        /* \"#utility.yul\":4062:4071   */\n      dup6\n        /* \"#utility.yul\":4058:4080   */\n      add\n        /* \"#utility.yul\":4037:4090   */\n      tag_62\n      jump\t// in\n    tag_134:\n        /* \"#utility.yul\":4027:4090   */\n      swap2\n      pop\n        /* \"#utility.yul\":3983:4100   */\n      pop\n        /* \"#utility.yul\":3778:4107   */\n      swap3\n      swap2\n      pop\n      pop\n      jump\t// out\n        /* \"#utility.yul\":4113:4767   */\n    tag_23:\n        /* \"#utility.yul\":4191:4197   */\n      0x00\n        /* \"#utility.yul\":4199:4205   */\n      dup1\n        /* \"#utility.yul\":4248:4250   */\n      0x40\n        /* \"#utility.yul\":4236:4245   */\n      dup4\n        /* \"#utility.yul\":4227:4234   */\n      dup6\n        /* \"#utility.yul\":4223:4246   */\n      sub\n        /* \"#utility.yul\":4219:4251   */\n      slt\n        /* \"#utility.yul\":4216:4335   */\n      iszero\n      tag_136\n      jumpi\n        /* \"#utility.yul\":4254:4333   */\n      tag_137\n      tag_47\n      jump\t// in\n    tag_137:\n        /* \"#utility.yul\":4216:4335   */\n    tag_136:\n        /* \"#utility.yul\":4402:4403   */\n      0x00\n        /* \"#utility.yul\":4391:4400   */\n      dup4\n        /* \"#utility.yul\":4387:4404   */\n      add\n        /* \"#utility.yul\":4374:4405   */\n      calldataload\n        /* \"#utility.yul\":4432:4450   */\n      0xffffffffffffffff\n        /* \"#utility.yul\":4424:4430   */\n      dup2\n        /* \"#utility.yul\":4421:4451   */\n      gt\n        /* \"#utility.yul\":4418:4535   */\n      iszero\n      tag_138\n      jumpi\n        /* \"#utility.yul\":4454:4533   */\n      tag_139\n      tag_48\n      jump\t// in\n    tag_139:\n        /* \"#utility.yul\":4418:4535   */\n    tag_138:\n        /* \"#utility.yul\":4559:4622   */\n      tag_140\n        /* \"#utility.yul\":4614:4621   */\n      dup6\n        /* \"#utility.yul\":4605:4611   */\n      dup3\n        /* \"#utility.yul\":4594:4603   */\n      dup7\n        /* \"#utility.yul\":4590:4612   */\n      add\n        /* \"#utility.yul\":4559:4622   */\n      tag_58\n      jump\t// in\n    tag_140:\n        /* \"#utility.yul\":4549:4622   */\n      swap3\n      pop\n        /* \"#utility.yul\":4345:4632   */\n      pop\n        /* \"#utility.yul\":4671:4673   */\n      0x20\n        /* \"#utility.yul\":4697:4750   */\n      tag_141\n        /* \"#utility.yul\":4742:4749   */\n      dup6\n        /* \"#utility.yul\":4733:4739   */\n      dup3\n        /* \"#utility.yul\":4722:4731   */\n      dup7\n        /* \"#utility.yul\":4718:4740   */\n      add\n        /* \"#utility.yul\":4697:4750   */\n      tag_62\n      jump\t// in\n    tag_141:\n        /* \"#utility.yul\":4687:4750   */\n      swap2\n      pop\n        /* \"#utility.yul\":4642:4760   */\n      pop\n        /* \"#utility.yul\":4113:4767   */\n      swap3\n      pop\n      swap3\n      swap1\n      pop\n      jump\t// out\n        /* \"#utility.yul\":4773:4872   */\n    tag_63:\n        /* \"#utility.yul\":4825:4831   */\n      0x00\n        /* \"#utility.yul\":4859:4864   */\n      dup2\n        /* \"#utility.yul\":4853:4865   */\n      mload\n        /* \"#utility.yul\":4843:4865   */\n      swap1\n      pop\n        /* \"#utility.yul\":4773:4872   */\n      swap2\n      swap1\n      pop\n      jump\t// out\n        /* \"#utility.yul\":4878:5047   */\n    tag_64:\n        /* \"#utility.yul\":4962:4973   */\n      0x00\n        /* \"#utility.yul\":4996:5002   */\n      dup3\n        /* \"#utility.yul\":4991:4994   */\n      dup3\n        /* \"#utility.yul\":4984:5003   */\n      mstore\n        /* \"#utility.yul\":5036:5040   */\n      0x20\n        /* \"#utility.yul\":5031:5034   */\n      dup3\n        /* \"#utility.yul\":5027:5041   */\n      add\n        /* \"#utility.yul\":5012:5041   */\n      swap1\n      pop\n        /* \"#utility.yul\":4878:5047   */\n      swap3\n      swap2\n      pop\n      pop\n      jump\t// out\n        /* \"#utility.yul\":5053:5301   */\n    tag_65:\n        /* \"#utility.yul\":5135:5136   */\n      0x00\n        /* \"#utility.yul\":5145:5258   */\n    tag_145:\n        /* \"#utility.yul\":5159:5165   */\n      dup4\n        /* \"#utility.yul\":5156:5157   */\n      dup2\n        /* \"#utility.yul\":5153:5166   */\n      lt\n        /* \"#utility.yul\":5145:5258   */\n      iszero\n      tag_147\n      jumpi\n        /* \"#utility.yul\":5244:5245   */\n      dup1\n        /* \"#utility.yul\":5239:5242   */\n      dup3\n        /* \"#utility.yul\":5235:5246   */\n      add\n        /* \"#utility.yul\":5229:5247   */\n      mload\n        /* \"#utility.yul\":5225:5226   */\n      dup2\n        /* \"#utility.yul\":5220:5223   */\n      dup5\n        /* \"#utility.yul\":5216:5227   */\n      add\n        /* \"#utility.yul\":5209:5248   */\n      mstore\n        /* \"#utility.yul\":5181:5183   */\n      0x20\n        /* \"#utility.yul\":5178:5179   */\n      dup2\n        /* \"#utility.yul\":5174:5184   */\n      add\n        /* \"#utility.yul\":5169:5184   */\n      swap1\n      pop\n        /* \"#utility.yul\":5145:5258   */\n      jump(tag_145)\n    tag_147:\n        /* \"#utility.yul\":5292:5293   */\n      0x00\n        /* \"#utility.yul\":5283:5289   */\n      dup5\n        /* \"#utility.yul\":5278:5281   */\n      dup5\n        /* \"#utility.yul\":5274:5290   */\n      add\n        /* \"#utility.yul\":5267:5294   */\n      mstore\n        /* \"#utility.yul\":5115:5301   */\n      pop\n        /* \"#utility.yul\":5053:5301   */\n      pop\n      pop\n      pop\n      jump\t// out\n        /* \"#utility.yul\":5307:5684   */\n    tag_66:\n        /* \"#utility.yul\":5395:5398   */\n      0x00\n        /* \"#utility.yul\":5423:5462   */\n      tag_149\n        /* \"#utility.yul\":5456:5461   */\n      dup3\n        /* \"#utility.yul\":5423:5462   */\n      tag_63\n      jump\t// in\n    tag_149:\n        /* \"#utility.yul\":5478:5549   */\n      tag_150\n        /* \"#utility.yul\":5542:5548   */\n      dup2\n        /* \"#utility.yul\":5537:5540   */\n      dup6\n        /* \"#utility.yul\":5478:5549   */\n      tag_64\n      jump\t// in\n    tag_150:\n        /* \"#utility.yul\":5471:5549   */\n      swap4\n      pop\n        /* \"#utility.yul\":5558:5623   */\n      tag_151\n        /* \"#utility.yul\":5616:5622   */\n      dup2\n        /* \"#utility.yul\":5611:5614   */\n      dup6\n        /* \"#utility.yul\":5604:5608   */\n      0x20\n        /* \"#utility.yul\":5597:5602   */\n      dup7\n        /* \"#utility.yul\":5593:5609   */\n      add\n        /* \"#utility.yul\":5558:5623   */\n      tag_65\n      jump\t// in\n    tag_151:\n        /* \"#utility.yul\":5648:5677   */\n      tag_152\n        /* \"#utility.yul\":5670:5676   */\n      dup2\n        /* \"#utility.yul\":5648:5677   */\n      tag_51\n      jump\t// in\n    tag_152:\n        /* \"#utility.yul\":5643:5646   */\n      dup5\n        /* \"#utility.yul\":5639:5678   */\n      add\n        /* \"#utility.yul\":5632:5678   */\n      swap2\n      pop\n        /* \"#utility.yul\":5399:5684   */\n      pop\n        /* \"#utility.yul\":5307:5684   */\n      swap3\n      swap2\n      pop\n      pop\n      jump\t// out\n        /* \"#utility.yul\":5690:6113   */\n    tag_29:\n        /* \"#utility.yul\":5831:5835   */\n      0x00\n        /* \"#utility.yul\":5869:5871   */\n      0x40\n        /* \"#utility.yul\":5858:5867   */\n      dup3\n        /* \"#utility.yul\":5854:5872   */\n      add\n        /* \"#utility.yul\":5846:5872   */\n      swap1\n      pop\n        /* \"#utility.yul\":5882:5953   */\n      tag_154\n        /* \"#utility.yul\":5950:5951   */\n      0x00\n        /* \"#utility.yul\":5939:5948   */\n      dup4\n        /* \"#utility.yul\":5935:5952   */\n      add\n        /* \"#utility.yul\":5926:5932   */\n      dup6\n        /* \"#utility.yul\":5882:5953   */\n      tag_60\n      jump\t// in\n    tag_154:\n        /* \"#utility.yul\":6000:6009   */\n      dup2\n        /* \"#utility.yul\":5994:5998   */\n      dup2\n        /* \"#utility.yul\":5990:6010   */\n      sub\n        /* \"#utility.yul\":5985:5987   */\n      0x20\n        /* \"#utility.yul\":5974:5983   */\n      dup4\n        /* \"#utility.yul\":5970:5988   */\n      add\n        /* \"#utility.yul\":5963:6011   */\n      mstore\n        /* \"#utility.yul\":6028:6106   */\n      tag_155\n        /* \"#utility.yul\":6101:6105   */\n      dup2\n        /* \"#utility.yul\":6092:6098   */\n      dup5\n        /* \"#utility.yul\":6028:6106   */\n      tag_66\n      jump\t// in\n    tag_155:\n        /* \"#utility.yul\":6020:6106   */\n      swap1\n      pop\n        /* \"#utility.yul\":5690:6113   */\n      swap4\n      swap3\n      pop\n      pop\n      pop\n      jump\t// out\n        /* \"#utility.yul\":6119:6299   */\n    tag_67:\n        /* \"#utility.yul\":6167:6244   */\n      0x4e487b7100000000000000000000000000000000000000000000000000000000\n        /* \"#utility.yul\":6164:6165   */\n      0x00\n        /* \"#utility.yul\":6157:6245   */\n      mstore\n        /* \"#utility.yul\":6264:6268   */\n      0x22\n        /* \"#utility.yul\":6261:6262   */\n      0x04\n        /* \"#utility.yul\":6254:6269   */\n      mstore\n        /* \"#utility.yul\":6288:6292   */\n      0x24\n        /* \"#utility.yul\":6285:6286   */\n      0x00\n        /* \"#utility.yul\":6278:6293   */\n      revert\n        /* \"#utility.yul\":6305:6625   */\n    tag_41:\n        /* \"#utility.yul\":6349:6355   */\n      0x00\n        /* \"#utility.yul\":6386:6387   */\n      0x02\n        /* \"#utility.yul\":6380:6384   */\n      dup3\n        /* \"#utility.yul\":6376:6388   */\n      div\n        /* \"#utility.yul\":6366:6388   */\n      swap1\n      pop\n        /* \"#utility.yul\":6433:6434   */\n      0x01\n        /* \"#utility.yul\":6427:6431   */\n      dup3\n        /* \"#utility.yul\":6423:6435   */\n      and\n        /* \"#utility.yul\":6454:6472   */\n      dup1\n        /* \"#utility.yul\":6444:6525   */\n      tag_158\n      jumpi\n        /* \"#utility.yul\":6510:6514   */\n      0x7f\n        /* \"#utility.yul\":6502:6508   */\n      dup3\n        /* \"#utility.yul\":6498:6515   */\n      and\n        /* \"#utility.yul\":6488:6515   */\n      swap2\n      pop\n        /* \"#utility.yul\":6444:6525   */\n    tag_158:\n        /* \"#utility.yul\":6572:6574   */\n      0x20\n        /* \"#utility.yul\":6564:6570   */\n      dup3\n        /* \"#utility.yul\":6561:6575   */\n      lt\n        /* \"#utility.yul\":6541:6559   */\n      dup2\n        /* \"#utility.yul\":6538:6576   */\n      sub\n        /* \"#utility.yul\":6535:6619   */\n      tag_159\n      jumpi\n        /* \"#utility.yul\":6591:6609   */\n      tag_160\n      tag_67\n      jump\t// in\n    tag_160:\n        /* \"#utility.yul\":6535:6619   */\n    tag_159:\n        /* \"#utility.yul\":6356:6625   */\n      pop\n        /* \"#utility.yul\":6305:6625   */\n      swap2\n      swap1\n      pop\n      jump\t// out\n        /* \"#utility.yul\":6631:6772   */\n    tag_68:\n        /* \"#utility.yul\":6680:6684   */\n      0x00\n        /* \"#utility.yul\":6703:6706   */\n      dup2\n        /* \"#utility.yul\":6695:6706   */\n      swap1\n      pop\n        /* \"#utility.yul\":6726:6729   */\n      dup2\n        /* \"#utility.yul\":6723:6724   */\n      0x00\n        /* \"#utility.yul\":6716:6730   */\n      mstore\n        /* \"#utility.yul\":6760:6764   */\n      0x20\n        /* \"#utility.yul\":6757:6758   */\n      0x00\n        /* \"#utility.yul\":6747:6765   */\n      keccak256\n        /* \"#utility.yul\":6739:6765   */\n      swap1\n      pop\n        /* \"#utility.yul\":6631:6772   */\n      swap2\n      swap1\n      pop\n      jump\t// out\n        /* \"#utility.yul\":6778:6871   */\n    tag_69:\n        /* \"#utility.yul\":6815:6821   */\n      0x00\n        /* \"#utility.yul\":6862:6864   */\n      0x20\n        /* \"#utility.yul\":6857:6859   */\n      0x1f\n        /* \"#utility.yul\":6850:6855   */\n      dup4\n        /* \"#utility.yul\":6846:6860   */\n      add\n        /* \"#utility.yul\":6842:6865   */\n      div\n        /* \"#utility.yul\":6832:6865   */\n      swap1\n      pop\n        /* \"#utility.yul\":6778:6871   */\n      swap2\n      swap1\n      pop\n      jump\t// out\n        /* \"#utility.yul\":6877:6984   */\n    tag_70:\n        /* \"#utility.yul\":6921:6929   */\n      0x00\n        /* \"#utility.yul\":6971:6976   */\n      dup3\n        /* \"#utility.yul\":6965:6969   */\n      dup3\n        /* \"#utility.yul\":6961:6977   */\n      shl\n        /* \"#utility.yul\":6940:6977   */\n      swap1\n      pop\n        /* \"#utility.yul\":6877:6984   */\n      swap3\n      swap2\n      pop\n      pop\n      jump\t// out\n        /* \"#utility.yul\":6990:7383   */\n    tag_71:\n        /* \"#utility.yul\":7059:7065   */\n      0x00\n        /* \"#utility.yul\":7109:7110   */\n      0x08\n        /* \"#utility.yul\":7097:7107   */\n      dup4\n        /* \"#utility.yul\":7093:7111   */\n      mul\n        /* \"#utility.yul\":7132:7229   */\n      tag_165\n        /* \"#utility.yul\":7162:7228   */\n      0xffffffffffffffffffffffffffffffffffffffffffffffffffffffffffffffff\n        /* \"#utility.yul\":7151:7160   */\n      dup3\n        /* \"#utility.yul\":7132:7229   */\n      tag_70\n      jump\t// in\n    tag_165:\n        /* \"#utility.yul\":7250:7289   */\n      tag_166\n        /* \"#utility.yul\":7280:7288   */\n      dup7\n        /* \"#utility.yul\":7269:7278   */\n      dup4\n        /* \"#utility.yul\":7250:7289   */\n      tag_70\n      jump\t// in\n    tag_166:\n        /* \"#utility.yul\":7238:7289   */\n      swap6\n      pop\n        /* \"#utility.yul\":7322:7326   */\n      dup1\n        /* \"#utility.yul\":7318:7327   */\n      not\n        /* \"#utility.yul\":7311:7316   */\n      dup5\n        /* \"#utility.yul\":7307:7328   */\n      and\n        /* \"#utility.yul\":7298:7328   */\n      swap4\n      pop\n        /* \"#utility.yul\":7371:7375   */\n      dup1\n        /* \"#utility.yul\":7361:7369   */\n      dup7\n        /* \"#utility.yul\":7357:7376   */\n      and\n        /* \"#utility.yul\":7350:7355   */\n      dup5\n        /* \"#utility.yul\":7347:7377   */\n      or\n        /* \"#utility.yul\":7337:7377   */\n      swap3\n      pop\n        /* \"#utility.yul\":7066:7383   */\n      pop\n      pop\n        /* \"#utility.yul\":6990:7383   */\n      swap4\n      swap3\n      pop\n      pop\n      pop\n      jump\t// out\n        /* \"#utility.yul\":7389:7449   */\n    tag_72:\n        /* \"#utility.yul\":7417:7420   */\n      0x00\n        /* \"#utility.yul\":7438:7443   */\n      dup2\n        /* \"#utility.yul\":7431:7443   */\n      swap1\n      pop\n        /* \"#utility.yul\":7389:7449   */\n      swap2\n      swap1\n      pop\n      jump\t// out\n        /* \"#utility.yul\":7455:7597   */\n    tag_73:\n        /* \"#utility.yul\":7505:7514   */\n      0x00\n        /* \"#utility.yul\":7538:7591   */\n      tag_169\n        /* \"#utility.yul\":7556:7590   */\n      tag_170\n        /* \"#utility.yul\":7565:7589   */\n      tag_171\n        /* \"#utility.yul\":7583:7588   */\n      dup5\n        /* \"#utility.yul\":7565:7589   */\n      tag_59\n      jump\t// in\n    tag_171:\n        /* \"#utility.yul\":7556:7590   */\n      tag_72\n      jump\t// in\n    tag_170:\n        /* \"#utility.yul\":7538:7591   */\n      tag_59\n      jump\t// in\n    tag_169:\n        /* \"#utility.yul\":7525:7591   */\n      swap1\n      pop\n        /* \"#utility.yul\":7455:7597   */\n      swap2\n      swap1\n      pop\n      jump\t// out\n        /* \"#utility.yul\":7603:7678   */\n    tag_74:\n        /* \"#utility.yul\":7646:7649   */\n      0x00\n        /* \"#utility.yul\":7667:7672   */\n      dup2\n        /* \"#utility.yul\":7660:7672   */\n      swap1\n      pop\n        /* \"#utility.yul\":7603:7678   */\n      swap2\n      swap1\n      pop\n      jump\t// out\n        /* \"#utility.yul\":7684:7953   */\n    tag_75:\n        /* \"#utility.yul\":7794:7833   */\n      tag_174\n        /* \"#utility.yul\":7825:7832   */\n      dup4\n        /* \"#utility.yul\":7794:7833   */\n      tag_73\n      jump\t// in\n    tag_174:\n        /* \"#utility.yul\":7855:7946   */\n      tag_175\n        /* \"#utility.yul\":7904:7945   */\n      tag_176\n        /* \"#utility.yul\":7928:7944   */\n      dup3\n        /* \"#utility.yul\":7904:7945   */\n      tag_74\n      jump\t// in\n    tag_176:\n        /* \"#utility.yul\":7896:7902   */\n      dup5\n        /* \"#utility.yul\":7889:7893   */\n      dup5\n        /* \"#utility.yul\":7883:7894   */\n      sload\n        /* \"#utility.yul\":7855:7946   */\n      tag_71\n      jump\t// in\n    tag_175:\n        /* \"#utility.yul\":7849:7853   */\n      dup3\n        /* \"#utility.yul\":7842:7947   */\n      sstore\n        /* \"#utility.yul\":7760:7953   */\n      pop\n        /* \"#utility.yul\":7684:7953   */\n      pop\n      pop\n      pop\n      jump\t// out\n        /* \"#utility.yul\":7959:8032   */\n    tag_76:\n        /* \"#utility.yul\":8004:8007   */\n      0x00\n        /* \"#utility.yul\":7959:8032   */\n      swap1\n      jump\t// out\n        /* \"#utility.yul\":8038:8227   */\n    tag_77:\n        /* \"#utility.yul\":8115:8147   */\n      tag_179\n      tag_76\n      jump\t// in\n    tag_179:\n        /* \"#utility.yul\":8156:8221   */\n      tag_180\n        /* \"#utility.yul\":8214:8220   */\n      dup2\n        /* \"#utility.yul\":8206:8212   */\n      dup5\n        /* \"#utility.yul\":8200:8204   */\n      dup5\n        /* \"#utility.yul\":8156:8221   */\n      tag_75\n      jump\t// in\n    tag_180:\n        /* \"#utility.yul\":8091:8227   */\n      pop\n        /* \"#utility.yul\":8038:8227   */\n      pop\n      pop\n      jump\t// out\n        /* \"#utility.yul\":8233:8419   */\n    tag_78:\n        /* \"#utility.yul\":8293:8413   */\n    tag_182:\n        /* \"#utility.yul\":8310:8313   */\n      dup2\n        /* \"#utility.yul\":8303:8308   */\n      dup2\n        /* \"#utility.yul\":8300:8314   */\n      lt\n        /* \"#utility.yul\":8293:8413   */\n      iszero\n      tag_184\n      jumpi\n        /* \"#utility.yul\":8364:8403   */\n      tag_185\n        /* \"#utility.yul\":8401:8402   */\n      0x00\n        /* \"#utility.yul\":8394:8399   */\n      dup3\n        /* \"#utility.yul\":8364:8403   */\n      tag_77\n      jump\t// in\n    tag_185:\n        /* \"#utility.yul\":8337:8338   */\n      0x01\n        /* \"#utility.yul\":8330:8335   */\n      dup2\n        /* \"#utility.yul\":8326:8339   */\n      add\n        /* \"#utility.yul\":8317:8339   */\n      swap1\n      pop\n        /* \"#utility.yul\":8293:8413   */\n      jump(tag_182)\n    tag_184:\n        /* \"#utility.yul\":8233:8419   */\n      pop\n      pop\n      jump\t// out\n        /* \"#utility.yul\":8425:8968   */\n    tag_79:\n        /* \"#utility.yul\":8526:8528   */\n      0x1f\n        /* \"#utility.yul\":8521:8524   */\n      dup3\n        /* \"#utility.yul\":8518:8529   */\n      gt\n        /* \"#utility.yul\":8515:8961   */\n      iszero\n      tag_187\n      jumpi\n        /* \"#utility.yul\":8560:8598   */\n      tag_188\n        /* \"#utility.yul\":8592:8597   */\n      dup2\n        /* \"#utility.yul\":8560:8598   */\n      tag_68\n      jump\t// in\n    tag_188:\n        /* \"#utility.yul\":8644:8673   */\n      tag_189\n        /* \"#utility.yul\":8662:8672   */\n      dup5\n        /* \"#utility.yul\":8644:8673   */\n      tag_69\n      jump\t// in\n    tag_189:\n        /* \"#utility.yul\":8634:8642   */\n      dup2\n        /* \"#utility.yul\":8630:8674   */\n      add\n        /* \"#utility.yul\":8827:8829   */\n      0x20\n        /* \"#utility.yul\":8815:8825   */\n      dup6\n        /* \"#utility.yul\":8812:8830   */\n      lt\n        /* \"#utility.yul\":8809:8858   */\n      iszero\n      tag_190\n      jumpi\n        /* \"#utility.yul\":8848:8856   */\n      dup2\n        /* \"#utility.yul\":8833:8856   */\n      swap1\n      pop\n        /* \"#utility.yul\":8809:8858   */\n    tag_190:\n        /* \"#utility.yul\":8871:8951   */\n      tag_191\n        /* \"#utility.yul\":8927:8949   */\n      tag_192\n        /* \"#utility.yul\":8945:8948   */\n      dup6\n        /* \"#utility.yul\":8927:8949   */\n      tag_69\n      jump\t// in\n    tag_192:\n        /* \"#utility.yul\":8917:8925   */\n      dup4\n        /* \"#utility.yul\":8913:8950   */\n      add\n        /* \"#utility.yul\":8900:8911   */\n      dup3\n        /* \"#utility.yul\":8871:8951   */\n      tag_78\n      jump\t// in\n    tag_191:\n        /* \"#utility.yul\":8530:8961   */\n      pop\n      pop\n        /* \"#utility.yul\":8515:8961   */\n    tag_187:\n        /* \"#utility.yul\":8425:8968   */\n      pop\n      pop\n      pop\n      jump\t// out\n        /* \"#utility.yul\":8974:9091   */\n    tag_80:\n        /* \"#utility.yul\":9028:9036   */\n      0x00\n        /* \"#utility.yul\":9078:9083   */\n      dup3\n        /* \"#utility.yul\":9072:9076   */\n      dup3\n        /* \"#utility.yul\":9068:9084   */\n      shr\n        /* \"#utility.yul\":9047:9084   */\n      swap1\n      pop\n        /* \"#utility.yul\":8974:9091   */\n      swap3\n      swap2\n      pop\n      pop\n      jump\t// out\n        /* \"#utility.yul\":9097:9266   */\n    tag_81:\n        /* \"#utility.yul\":9141:9147   */\n      0x00\n        /* \"#utility.yul\":9174:9225   */\n      tag_195\n        /* \"#utility.yul\":9222:9223   */\n      0x00\n        /* \"#utility.yul\":9218:9224   */\n      not\n        /* \"#utility.yul\":9210:9215   */\n      dup5\n        /* \"#utility.yul\":9207:9208   */\n      0x08\n        /* \"#utility.yul\":9203:9216   */\n      mul\n        /* \"#utility.yul\":9174:9225   */\n      tag_80\n      jump\t// in\n    tag_195:\n        /* \"#utility.yul\":9170:9226   */\n      not\n        /* \"#utility.yul\":9255:9259   */\n      dup1\n        /* \"#utility.yul\":9249:9253   */\n      dup4\n        /* \"#utility.yul\":9245:9260   */\n      and\n        /* \"#utility.yul\":9235:9260   */\n      swap2\n      pop\n        /* \"#utility.yul\":9148:9266   */\n      pop\n        /* \"#utility.yul\":9097:9266   */\n      swap3\n      swap2\n      pop\n      pop\n      jump\t// out\n        /* \"#utility.yul\":9271:9566   */\n    tag_82:\n        /* \"#utility.yul\":9347:9351   */\n      0x00\n        /* \"#utility.yul\":9493:9522   */\n      tag_197\n        /* \"#utility.yul\":9518:9521   */\n      dup4\n        /* \"#utility.yul\":9512:9516   */\n      dup4\n        /* \"#utility.yul\":9493:9522   */\n      tag_81\n      jump\t// in\n    tag_197:\n        /* \"#utility.yul\":9485:9522   */\n      swap2\n      pop\n        /* \"#utility.yul\":9555:9558   */\n      dup3\n        /* \"#utility.yul\":9552:9553   */\n      0x02\n        /* \"#utility.yul\":9548:9559   */\n      mul\n        /* \"#utility.yul\":9542:9546   */\n      dup3\n        /* \"#utility.yul\":9539:9560   */\n      or\n        /* \"#utility.yul\":9531:9560   */\n      swap1\n      pop\n        /* \"#utility.yul\":9271:9566   */\n      swap3\n      swap2\n      pop\n      pop\n      jump\t// out\n        /* \"#utility.yul\":9571:10966   */\n    tag_35:\n        /* \"#utility.yul\":9688:9725   */\n      tag_199\n        /* \"#utility.yul\":9721:9724   */\n      dup3\n        /* \"#utility.yul\":9688:9725   */\n      tag_63\n      jump\t// in\n    tag_199:\n        /* \"#utility.yul\":9790:9808   */\n      0xffffffffffffffff\n        /* \"#utility.yul\":9782:9788   */\n      dup2\n        /* \"#utility.yul\":9779:9809   */\n      gt\n        /* \"#utility.yul\":9776:9832   */\n      iszero\n      tag_200\n      jumpi\n        /* \"#utility.yul\":9812:9830   */\n      tag_201\n      tag_52\n      jump\t// in\n    tag_201:\n        /* \"#utility.yul\":9776:9832   */\n    tag_200:\n        /* \"#utility.yul\":9856:9894   */\n      tag_202\n        /* \"#utility.yul\":9888:9892   */\n      dup3\n        /* \"#utility.yul\":9882:9893   */\n      sload\n        /* \"#utility.yul\":9856:9894   */\n      tag_41\n      jump\t// in\n    tag_202:\n        /* \"#utility.yul\":9941:10008   */\n      tag_203\n        /* \"#utility.yul\":10001:10007   */\n      dup3\n        /* \"#utility.yul\":9993:9999   */\n      dup3\n        /* \"#utility.yul\":9987:9991   */\n      dup6\n        /* \"#utility.yul\":9941:10008   */\n      tag_79\n      jump\t// in\n    tag_203:\n        /* \"#utility.yul\":10035:10036   */\n      0x00\n        /* \"#utility.yul\":10059:10063   */\n      0x20\n        /* \"#utility.yul\":10046:10063   */\n      swap1\n      pop\n        /* \"#utility.yul\":10091:10093   */\n      0x1f\n        /* \"#utility.yul\":10083:10089   */\n      dup4\n        /* \"#utility.yul\":10080:10094   */\n      gt\n        /* \"#utility.yul\":10108:10109   */\n      0x01\n        /* \"#utility.yul\":10103:10721   */\n      dup2\n      eq\n      tag_205\n      jumpi\n        /* \"#utility.yul\":10765:10766   */\n      0x00\n        /* \"#utility.yul\":10782:10788   */\n      dup5\n        /* \"#utility.yul\":10779:10856   */\n      iszero\n      tag_206\n      jumpi\n        /* \"#utility.yul\":10831:10840   */\n      dup3\n        /* \"#utility.yul\":10826:10829   */\n      dup8\n        /* \"#utility.yul\":10822:10841   */\n      add\n        /* \"#utility.yul\":10816:10842   */\n      mload\n        /* \"#utility.yul\":10807:10842   */\n      swap1\n      pop\n        /* \"#utility.yul\":10779:10856   */\n    tag_206:\n        /* \"#utility.yul\":10882:10949   */\n      tag_207\n        /* \"#utility.yul\":10942:10948   */\n      dup6\n        /* \"#utility.yul\":10935:10940   */\n      dup3\n        /* \"#utility.yul\":10882:10949   */\n      tag_82\n      jump\t// in\n    tag_207:\n        /* \"#utility.yul\":10876:10880   */\n      dup7\n        /* \"#utility.yul\":10869:10950   */\n      sstore\n        /* \"#utility.yul\":10738:10960   */\n      pop\n        /* \"#utility.yul\":10073:10960   */\n      jump(tag_204)\n        /* \"#utility.yul\":10103:10721   */\n    tag_205:\n        /* \"#utility.yul\":10155:10159   */\n      0x1f\n        /* \"#utility.yul\":10151:10160   */\n      not\n        /* \"#utility.yul\":10143:10149   */\n      dup5\n        /* \"#utility.yul\":10139:10161   */\n      and\n        /* \"#utility.yul\":10189:10226   */\n      tag_208\n        /* \"#utility.yul\":10221:10225   */\n      dup7\n        /* \"#utility.yul\":10189:10226   */\n      tag_68\n      jump\t// in\n    tag_208:\n        /* \"#utility.yul\":10248:10249   */\n      0x00\n        /* \"#utility.yul\":10262:10470   */\n    tag_209:\n        /* \"#utility.yul\":10276:10283   */\n      dup3\n        /* \"#utility.yul\":10273:10274   */\n      dup2\n        /* \"#utility.yul\":10270:10284   */\n      lt\n        /* \"#utility.yul\":10262:10470   */\n      iszero\n      tag_211\n      jumpi\n        /* \"#utility.yul\":10355:10364   */\n      dup5\n        /* \"#utility.yul\":10350:10353   */\n      dup10\n        /* \"#utility.yul\":10346:10365   */\n      add\n        /* \"#utility.yul\":10340:10366   */\n      mload\n        /* \"#utility.yul\":10332:10338   */\n      dup3\n        /* \"#utility.yul\":10325:10367   */\n      sstore\n        /* \"#utility.yul\":10406:10407   */\n      0x01\n        /* \"#utility.yul\":10398:10404   */\n      dup3\n        /* \"#utility.yul\":10394:10408   */\n      add\n        /* \"#utility.yul\":10384:10408   */\n      swap2\n      pop\n        /* \"#utility.yul\":10453:10455   */\n      0x20\n        /* \"#utility.yul\":10442:10451   */\n      dup6\n        /* \"#utility.yul\":10438:10456   */\n      add\n        /* \"#utility.yul\":10425:10456   */\n      swap5\n      pop\n        /* \"#utility.yul\":10299:10303   */\n      0x20\n        /* \"#utility.yul\":10296:10297   */\n      dup2\n        /* \"#utility.yul\":10292:10304   */\n      add\n        /* \"#utility.yul\":10287:10304   */\n      swap1\n      pop\n        /* \"#utility.yul\":10262:10470   */\n      jump(tag_209)\n    tag_211:\n        /* \"#utility.yul\":10498:10504   */\n      dup7\n        /* \"#utility.yul\":10489:10496   */\n      dup4\n        /* \"#utility.yul\":10486:10505   */\n      lt\n        /* \"#utility.yul\":10483:10662   */\n      iszero\n      tag_212\n      jumpi\n        /* \"#utility.yul\":10556:10565   */\n      dup5\n        /* \"#utility.yul\":10551:10554   */\n      dup10\n        /* \"#utility.yul\":10547:10566   */\n      add\n        /* \"#utility.yul\":10541:10567   */\n      mload\n        /* \"#utility.yul\":10599:10647   */\n      tag_213\n        /* \"#utility.yul\":10641:10645   */\n      0x1f\n        /* \"#utility.yul\":10633:10639   */\n      dup10\n        /* \"#utility.yul\":10629:10646   */\n      and\n        /* \"#utility.yul\":10618:10627   */\n      dup3\n        /* \"#utility.yul\":10599:10647   */\n      tag_81\n      jump\t// in\n    tag_213:\n        /* \"#utility.yul\":10591:10597   */\n      dup4\n        /* \"#utility.yul\":10584:10648   */\n      sstore\n        /* \"#utility.yul\":10506:10662   */\n      pop\n        /* \"#utility.yul\":10483:10662   */\n    tag_212:\n        /* \"#utility.yul\":10708:10709   */\n      0x01\n        /* \"#utility.yul\":10704:10705   */\n      0x02\n        /* \"#utility.yul\":10696:10702   */\n      dup9\n        /* \"#utility.yul\":10692:10706   */\n      mul\n        /* \"#utility.yul\":10688:10710   */\n      add\n        /* \"#utility.yul\":10682:10686   */\n      dup9\n        /* \"#utility.yul\":10675:10711   */\n      sstore\n        /* \"#utility.yul\":10110:10721   */\n      pop\n      pop\n      pop\n        /* \"#utility.yul\":10073:10960   */\n    tag_204:\n      pop\n        /* \"#utility.yul\":9663:10966   */\n      pop\n      pop\n      pop\n        /* \"#utility.yul\":9571:10966   */\n      pop\n      pop\n      jump\t// out\n        /* \"#utility.yul\":10972:11120   */\n    tag_83:\n        /* \"#utility.yul\":11074:11085   */\n      0x00\n        /* \"#utility.yul\":11111:11114   */\n      dup2\n        /* \"#utility.yul\":11096:11114   */\n      swap1\n      pop\n        /* \"#utility.yul\":10972:11120   */\n      swap3\n      swap2\n      pop\n      pop\n      jump\t// out\n        /* \"#utility.yul\":11126:11516   */\n    tag_84:\n        /* \"#utility.yul\":11232:11235   */\n      0x00\n        /* \"#utility.yul\":11260:11299   */\n      tag_216\n        /* \"#utility.yul\":11293:11298   */\n      dup3\n        /* \"#utility.yul\":11260:11299   */\n      tag_63\n      jump\t// in\n    tag_216:\n        /* \"#utility.yul\":11315:11404   */\n      tag_217\n        /* \"#utility.yul\":11397:11403   */\n      dup2\n        /* \"#utility.yul\":11392:11395   */\n      dup6\n        /* \"#utility.yul\":11315:11404   */\n      tag_83\n      jump\t// in\n    tag_217:\n        /* \"#utility.yul\":11308:11404   */\n      swap4\n      pop\n        /* \"#utility.yul\":11413:11478   */\n      tag_218\n        /* \"#utility.yul\":11471:11477   */\n      dup2\n        /* \"#utility.yul\":11466:11469   */\n      dup6\n        /* \"#utility.yul\":11459:11463   */\n      0x20\n        /* \"#utility.yul\":11452:11457   */\n      dup7\n        /* \"#utility.yul\":11448:11464   */\n      add\n        /* \"#utility.yul\":11413:11478   */\n      tag_65\n      jump\t// in\n    tag_218:\n        /* \"#utility.yul\":11503:11509   */\n      dup1\n        /* \"#utility.yul\":11498:11501   */\n      dup5\n        /* \"#utility.yul\":11494:11510   */\n      add\n        /* \"#utility.yul\":11487:11510   */\n      swap2\n      pop\n        /* \"#utility.yul\":11236:11516   */\n      pop\n        /* \"#utility.yul\":11126:11516   */\n      swap3\n      swap2\n      pop\n      pop\n      jump\t// out\n        /* \"#utility.yul\":11522:11797   */\n    tag_37:\n        /* \"#utility.yul\":11654:11657   */\n      0x00\n        /* \"#utility.yul\":11676:11771   */\n      tag_220\n        /* \"#utility.yul\":11767:11770   */\n      dup3\n        /* \"#utility.yul\":11758:11764   */\n      dup5\n        /* \"#utility.yul\":11676:11771   */\n      tag_84\n      jump\t// in\n    tag_220:\n        /* \"#utility.yul\":11669:11771   */\n      swap2\n      pop\n        /* \"#utility.yul\":11788:11791   */\n      dup2\n        /* \"#utility.yul\":11781:11791   */\n      swap1\n      pop\n        /* \"#utility.yul\":11522:11797   */\n      swap3\n      swap2\n      pop\n      pop\n      jump\t// out\n\n    auxdata: 0xa2646970667358221220514cc2b15a14aca1f9db8be781e2cf5a4d4e40db5192d553afd97f69cb82ece264736f6c634300081a0033\n}\n",
				"bytecode": {
					"linkReferences": {},
					"object": "6080604052348015600f57600080fd5b5061093b8061001f6000396000f3fe608060405234801561001057600080fd5b50600436106100575760003560e01c806303a430091461005c5780632e64cec11461008c5780636057361d146100aa5780636f760f41146100c65780639e7a13ad146100e2575b600080fd5b610076600480360381019061007191906103f3565b610113565b6040516100839190610455565b60405180910390f35b610094610141565b6040516100a19190610455565b60405180910390f35b6100c460048036038101906100bf919061049c565b61014a565b005b6100e060048036038101906100db91906104c9565b610154565b005b6100fc60048036038101906100f7919061049c565b6101dd565b60405161010a9291906105a4565b60405180910390f35b6001818051602081018201805184825260208301602085012081835280955050505050506000915090505481565b60008054905090565b8060008190555050565b600260405180604001604052808381526020018481525090806001815401808255809150506001900390600052602060002090600202016000909190919091506000820151816000015560208201518160010190816101b391906107e0565b505050806001836040516101c791906108ee565b9081526020016040518091039020819055505050565b600281815481106101ed57600080fd5b906000526020600020906002020160009150905080600001549080600101805461021690610603565b80601f016020809104026020016040519081016040528092919081815260200182805461024290610603565b801561028f5780601f106102645761010080835404028352916020019161028f565b820191906000526020600020905b81548152906001019060200180831161027257829003601f168201915b5050505050905082565b6000604051905090565b600080fd5b600080fd5b600080fd5b600080fd5b6000601f19601f8301169050919050565b7f4e487b7100000000000000000000000000000000000000000000000000000000600052604160045260246000fd5b610300826102b7565b810181811067ffffffffffffffff8211171561031f5761031e6102c8565b5b80604052505050565b6000610332610299565b905061033e82826102f7565b919050565b600067ffffffffffffffff82111561035e5761035d6102c8565b5b610367826102b7565b9050602081019050919050565b82818337600083830152505050565b600061039661039184610343565b610328565b9050828152602081018484840111156103b2576103b16102b2565b5b6103bd848285610374565b509392505050565b600082601f8301126103da576103d96102ad565b5b81356103ea848260208601610383565b91505092915050565b600060208284031215610409576104086102a3565b5b600082013567ffffffffffffffff811115610427576104266102a8565b5b610433848285016103c5565b91505092915050565b6000819050919050565b61044f8161043c565b82525050565b600060208201905061046a6000830184610446565b92915050565b6104798161043c565b811461048457600080fd5b50565b60008135905061049681610470565b92915050565b6000602082840312156104b2576104b16102a3565b5b60006104c084828501610487565b91505092915050565b600080604083850312156104e0576104df6102a3565b5b600083013567ffffffffffffffff8111156104fe576104fd6102a8565b5b61050a858286016103c5565b925050602061051b85828601610487565b9150509250929050565b600081519050919050565b600082825260208201905092915050565b60005b8381101561055f578082015181840152602081019050610544565b60008484015250505050565b600061057682610525565b6105808185610530565b9350610590818560208601610541565b610599816102b7565b840191505092915050565b60006040820190506105b96000830185610446565b81810360208301526105cb818461056b565b90509392505050565b7f4e487b7100000000000000000000000000000000000000000000000000000000600052602260045260246000fd5b6000600282049050600182168061061b57607f821691505b60208210810361062e5761062d6105d4565b5b50919050565b60008190508160005260206000209050919050565b60006020601f8301049050919050565b600082821b905092915050565b6000600883026106967fffffffffffffffffffffffffffffffffffffffffffffffffffffffffffffffff82610659565b6106a08683610659565b95508019841693508086168417925050509392505050565b6000819050919050565b60006106dd6106d86106d38461043c565b6106b8565b61043c565b9050919050565b6000819050919050565b6106f7836106c2565b61070b610703826106e4565b848454610666565b825550505050565b600090565b610720610713565b61072b8184846106ee565b505050565b5b8181101561074f57610744600082610718565b600181019050610731565b5050565b601f8211156107945761076581610634565b61076e84610649565b8101602085101561077d578190505b61079161078985610649565b830182610730565b50505b505050565b600082821c905092915050565b60006107b760001984600802610799565b1980831691505092915050565b60006107d083836107a6565b9150826002028217905092915050565b6107e982610525565b67ffffffffffffffff811115610802576108016102c8565b5b61080c8254610603565b610817828285610753565b600060209050601f83116001811461084a5760008415610838578287015190505b61084285826107c4565b8655506108aa565b601f19841661085886610634565b60005b828110156108805784890151825560018201915060208501945060208101905061085b565b8683101561089d5784890151610899601f8916826107a6565b8355505b6001600288020188555050505b505050505050565b600081905092915050565b60006108c882610525565b6108d281856108b2565b93506108e2818560208601610541565b80840191505092915050565b60006108fa82846108bd565b91508190509291505056fea2646970667358221220514cc2b15a14aca1f9db8be781e2cf5a4d4e40db5192d553afd97f69cb82ece264736f6c634300081a0033",
					"opcodes": "PUSH1 0x80 PUSH1 0x40 MSTORE CALLVALUE DUP1 ISZERO PUSH1 0xF JUMPI PUSH1 0x0 DUP1 REVERT JUMPDEST POP PUSH2 0x93B DUP1 PUSH2 0x1F PUSH1 0x0 CODECOPY PUSH1 0x0 RETURN INVALID PUSH1 0x80 PUSH1 0x40 MSTORE CALLVALUE DUP1 ISZERO PUSH2 0x10 JUMPI PUSH1 0x0 DUP1 REVERT JUMPDEST POP PUSH1 0x4 CALLDATASIZE LT PUSH2 0x57 JUMPI PUSH1 0x0 CALLDATALOAD PUSH1 0xE0 SHR DUP1 PUSH4 0x3A43009 EQ PUSH2 0x5C JUMPI DUP1 PUSH4 0x2E64CEC1 EQ PUSH2 0x8C JUMPI DUP1 PUSH4 0x6057361D EQ PUSH2 0xAA JUMPI DUP1 PUSH4 0x6F760F41 EQ PUSH2 0xC6 JUMPI DUP1 PUSH4 0x9E7A13AD EQ PUSH2 0xE2 JUMPI JUMPDEST PUSH1 0x0 DUP1 REVERT JUMPDEST PUSH2 0x76 PUSH1 0x4 DUP1 CALLDATASIZE SUB DUP2 ADD SWAP1 PUSH2 0x71 SWAP2 SWAP1 PUSH2 0x3F3 JUMP JUMPDEST PUSH2 0x113 JUMP JUMPDEST PUSH1 0x40 MLOAD PUSH2 0x83 SWAP2 SWAP1 PUSH2 0x455 JUMP JUMPDEST PUSH1 0x40 MLOAD DUP1 SWAP2 SUB SWAP1 RETURN JUMPDEST PUSH2 0x94 PUSH2 0x141 JUMP JUMPDEST PUSH1 0x40 MLOAD PUSH2 0xA1 SWAP2 SWAP1 PUSH2 0x455 JUMP JUMPDEST PUSH1 0x40 MLOAD DUP1 SWAP2 SUB SWAP1 RETURN JUMPDEST PUSH2 0xC4 PUSH1 0x4 DUP1 CALLDATASIZE SUB DUP2 ADD SWAP1 PUSH2 0xBF SWAP2 SWAP1 PUSH2 0x49C JUMP JUMPDEST PUSH2 0x14A JUMP JUMPDEST STOP JUMPDEST PUSH2 0xE0 PUSH1 0x4 DUP1 CALLDATASIZE SUB DUP2 ADD SWAP1 PUSH2 0xDB SWAP2 SWAP1 PUSH2 0x4C9 JUMP JUMPDEST PUSH2 0x154 JUMP JUMPDEST STOP JUMPDEST PUSH2 0xFC PUSH1 0x4 DUP1 CALLDATASIZE SUB DUP2 ADD SWAP1 PUSH2 0xF7 SWAP2 SWAP1 PUSH2 0x49C JUMP JUMPDEST PUSH2 0x1DD JUMP JUMPDEST PUSH1 0x40 MLOAD PUSH2 0x10A SWAP3 SWAP2 SWAP1 PUSH2 0x5A4 JUMP JUMPDEST PUSH1 0x40 MLOAD DUP1 SWAP2 SUB SWAP1 RETURN JUMPDEST PUSH1 0x1 DUP2 DUP1 MLOAD PUSH1 0x20 DUP2 ADD DUP3 ADD DUP1 MLOAD DUP5 DUP3 MSTORE PUSH1 0x20 DUP4 ADD PUSH1 0x20 DUP6 ADD KECCAK256 DUP2 DUP4 MSTORE DUP1 SWAP6 POP POP POP POP POP POP PUSH1 0x0 SWAP2 POP SWAP1 POP SLOAD DUP2 JUMP JUMPDEST PUSH1 0x0 DUP1 SLOAD SWAP1 POP SWAP1 JUMP JUMPDEST DUP1 PUSH1 0x0 DUP2 SWAP1 SSTORE POP POP JUMP JUMPDEST PUSH1 0x2 PUSH1 0x40 MLOAD DUP1 PUSH1 0x40 ADD PUSH1 0x40 MSTORE DUP1 DUP4 DUP2 MSTORE PUSH1 0x20 ADD DUP5 DUP2 MSTORE POP SWAP1 DUP1 PUSH1 0x1 DUP2 SLOAD ADD DUP1 DUP3 SSTORE DUP1 SWAP2 POP POP PUSH1 0x1 SWAP1 SUB SWAP1 PUSH1 0x0 MSTORE PUSH1 0x20 PUSH1 0x0 KECCAK256 SWAP1 PUSH1 0x2 MUL ADD PUSH1 0x0 SWAP1 SWAP2 SWAP1 SWAP2 SWAP1 SWAP2 POP PUSH1 0x0 DUP3 ADD MLOAD DUP2 PUSH1 0x0 ADD SSTORE PUSH1 0x20 DUP3 ADD MLOAD DUP2 PUSH1 0x1 ADD SWAP1 DUP2 PUSH2 0x1B3 SWAP2 SWAP1 PUSH2 0x7E0 JUMP JUMPDEST POP POP POP DUP1 PUSH1 0x1 DUP4 PUSH1 0x40 MLOAD PUSH2 0x1C7 SWAP2 SWAP1 PUSH2 0x8EE JUMP JUMPDEST SWAP1 DUP2 MSTORE PUSH1 0x20 ADD PUSH1 0x40 MLOAD DUP1 SWAP2 SUB SWAP1 KECCAK256 DUP2 SWAP1 SSTORE POP POP POP JUMP JUMPDEST PUSH1 0x2 DUP2 DUP2 SLOAD DUP2 LT PUSH2 0x1ED JUMPI PUSH1 0x0 DUP1 REVERT JUMPDEST SWAP1 PUSH1 0x0 MSTORE PUSH1 0x20 PUSH1 0x0 KECCAK256 SWAP1 PUSH1 0x2 MUL ADD PUSH1 0x0 SWAP2 POP SWAP1 POP DUP1 PUSH1 0x0 ADD SLOAD SWAP1 DUP1 PUSH1 0x1 ADD DUP1 SLOAD PUSH2 0x216 SWAP1 PUSH2 0x603 JUMP JUMPDEST DUP1 PUSH1 0x1F ADD PUSH1 0x20 DUP1 SWAP2 DIV MUL PUSH1 0x20 ADD PUSH1 0x40 MLOAD SWAP1 DUP2 ADD PUSH1 0x40 MSTORE DUP1 SWAP3 SWAP2 SWAP1 DUP2 DUP2 MSTORE PUSH1 0x20 ADD DUP3 DUP1 SLOAD PUSH2 0x242 SWAP1 PUSH2 0x603 JUMP JUMPDEST DUP1 ISZERO PUSH2 0x28F JUMPI DUP1 PUSH1 0x1F LT PUSH2 0x264 JUMPI PUSH2 0x100 DUP1 DUP4 SLOAD DIV MUL DUP4 MSTORE SWAP2 PUSH1 0x20 ADD SWAP2 PUSH2 0x28F JUMP JUMPDEST DUP3 ADD SWAP2 SWAP1 PUSH1 0x0 MSTORE PUSH1 0x20 PUSH1 0x0 KECCAK256 SWAP1 JUMPDEST DUP2 SLOAD DUP2 MSTORE SWAP1 PUSH1 0x1 ADD SWAP1 PUSH1 0x20 ADD DUP1 DUP4 GT PUSH2 0x272 JUMPI DUP3 SWAP1 SUB PUSH1 0x1F AND DUP3 ADD SWAP2 JUMPDEST POP POP POP POP POP SWAP1 POP DUP3 JUMP JUMPDEST PUSH1 0x0 PUSH1 0x40 MLOAD SWAP1 POP SWAP1 JUMP JUMPDEST PUSH1 0x0 DUP1 REVERT JUMPDEST PUSH1 0x0 DUP1 REVERT JUMPDEST PUSH1 0x0 DUP1 REVERT JUMPDEST PUSH1 0x0 DUP1 REVERT JUMPDEST PUSH1 0x0 PUSH1 0x1F NOT PUSH1 0x1F DUP4 ADD AND SWAP1 POP SWAP2 SWAP1 POP JUMP JUMPDEST PUSH32 0x4E487B7100000000000000000000000000000000000000000000000000000000 PUSH1 0x0 MSTORE PUSH1 0x41 PUSH1 0x4 MSTORE PUSH1 0x24 PUSH1 0x0 REVERT JUMPDEST PUSH2 0x300 DUP3 PUSH2 0x2B7 JUMP JUMPDEST DUP2 ADD DUP2 DUP2 LT PUSH8 0xFFFFFFFFFFFFFFFF DUP3 GT OR ISZERO PUSH2 0x31F JUMPI PUSH2 0x31E PUSH2 0x2C8 JUMP JUMPDEST JUMPDEST DUP1 PUSH1 0x40 MSTORE POP POP POP JUMP JUMPDEST PUSH1 0x0 PUSH2 0x332 PUSH2 0x299 JUMP JUMPDEST SWAP1 POP PUSH2 0x33E DUP3 DUP3 PUSH2 0x2F7 JUMP JUMPDEST SWAP2 SWAP1 POP JUMP JUMPDEST PUSH1 0x0 PUSH8 0xFFFFFFFFFFFFFFFF DUP3 GT ISZERO PUSH2 0x35E JUMPI PUSH2 0x35D PUSH2 0x2C8 JUMP JUMPDEST JUMPDEST PUSH2 0x367 DUP3 PUSH2 0x2B7 JUMP JUMPDEST SWAP1 POP PUSH1 0x20 DUP2 ADD SWAP1 POP SWAP2 SWAP1 POP JUMP JUMPDEST DUP3 DUP2 DUP4 CALLDATACOPY PUSH1 0x0 DUP4 DUP4 ADD MSTORE POP POP POP JUMP JUMPDEST PUSH1 0x0 PUSH2 0x396 PUSH2 0x391 DUP5 PUSH2 0x343 JUMP JUMPDEST PUSH2 0x328 JUMP JUMPDEST SWAP1 POP DUP3 DUP2 MSTORE PUSH1 0x20 DUP2 ADD DUP5 DUP5 DUP5 ADD GT ISZERO PUSH2 0x3B2 JUMPI PUSH2 0x3B1 PUSH2 0x2B2 JUMP JUMPDEST JUMPDEST PUSH2 0x3BD DUP5 DUP3 DUP6 PUSH2 0x374 JUMP JUMPDEST POP SWAP4 SWAP3 POP POP POP JUMP JUMPDEST PUSH1 0x0 DUP3 PUSH1 0x1F DUP4 ADD SLT PUSH2 0x3DA JUMPI PUSH2 0x3D9 PUSH2 0x2AD JUMP JUMPDEST JUMPDEST DUP2 CALLDATALOAD PUSH2 0x3EA DUP5 DUP3 PUSH1 0x20 DUP7 ADD PUSH2 0x383 JUMP JUMPDEST SWAP2 POP POP SWAP3 SWAP2 POP POP JUMP JUMPDEST PUSH1 0x0 PUSH1 0x20 DUP3 DUP5 SUB SLT ISZERO PUSH2 0x409 JUMPI PUSH2 0x408 PUSH2 0x2A3 JUMP JUMPDEST JUMPDEST PUSH1 0x0 DUP3 ADD CALLDATALOAD PUSH8 0xFFFFFFFFFFFFFFFF DUP2 GT ISZERO PUSH2 0x427 JUMPI PUSH2 0x426 PUSH2 0x2A8 JUMP JUMPDEST JUMPDEST PUSH2 0x433 DUP5 DUP3 DUP6 ADD PUSH2 0x3C5 JUMP JUMPDEST SWAP2 POP POP SWAP3 SWAP2 POP POP JUMP JUMPDEST PUSH1 0x0 DUP2 SWAP1 POP SWAP2 SWAP1 POP JUMP JUMPDEST PUSH2 0x44F DUP2 PUSH2 0x43C JUMP JUMPDEST DUP3 MSTORE POP POP JUMP JUMPDEST PUSH1 0x0 PUSH1 0x20 DUP3 ADD SWAP1 POP PUSH2 0x46A PUSH1 0x0 DUP4 ADD DUP5 PUSH2 0x446 JUMP JUMPDEST SWAP3 SWAP2 POP POP JUMP JUMPDEST PUSH2 0x479 DUP2 PUSH2 0x43C JUMP JUMPDEST DUP2 EQ PUSH2 0x484 JUMPI PUSH1 0x0 DUP1 REVERT JUMPDEST POP JUMP JUMPDEST PUSH1 0x0 DUP2 CALLDATALOAD SWAP1 POP PUSH2 0x496 DUP2 PUSH2 0x470 JUMP JUMPDEST SWAP3 SWAP2 POP POP JUMP JUMPDEST PUSH1 0x0 PUSH1 0x20 DUP3 DUP5 SUB SLT ISZERO PUSH2 0x4B2 JUMPI PUSH2 0x4B1 PUSH2 0x2A3 JUMP JUMPDEST JUMPDEST PUSH1 0x0 PUSH2 0x4C0 DUP5 DUP3 DUP6 ADD PUSH2 0x487 JUMP JUMPDEST SWAP2 POP POP SWAP3 SWAP2 POP POP JUMP JUMPDEST PUSH1 0x0 DUP1 PUSH1 0x40 DUP4 DUP6 SUB SLT ISZERO PUSH2 0x4E0 JUMPI PUSH2 0x4DF PUSH2 0x2A3 JUMP JUMPDEST JUMPDEST PUSH1 0x0 DUP4 ADD CALLDATALOAD PUSH8 0xFFFFFFFFFFFFFFFF DUP2 GT ISZERO PUSH2 0x4FE JUMPI PUSH2 0x4FD PUSH2 0x2A8 JUMP JUMPDEST JUMPDEST PUSH2 0x50A DUP6 DUP3 DUP7 ADD PUSH2 0x3C5 JUMP JUMPDEST SWAP3 POP POP PUSH1 0x20 PUSH2 0x51B DUP6 DUP3 DUP7 ADD PUSH2 0x487 JUMP JUMPDEST SWAP2 POP POP SWAP3 POP SWAP3 SWAP1 POP JUMP JUMPDEST PUSH1 0x0 DUP2 MLOAD SWAP1 POP SWAP2 SWAP1 POP JUMP JUMPDEST PUSH1 0x0 DUP3 DUP3 MSTORE PUSH1 0x20 DUP3 ADD SWAP1 POP SWAP3 SWAP2 POP POP JUMP JUMPDEST PUSH1 0x0 JUMPDEST DUP4 DUP2 LT ISZERO PUSH2 0x55F JUMPI DUP1 DUP3 ADD MLOAD DUP2 DUP5 ADD MSTORE PUSH1 0x20 DUP2 ADD SWAP1 POP PUSH2 0x544 JUMP JUMPDEST PUSH1 0x0 DUP5 DUP5 ADD MSTORE POP POP POP POP JUMP JUMPDEST PUSH1 0x0 PUSH2 0x576 DUP3 PUSH2 0x525 JUMP JUMPDEST PUSH2 0x580 DUP2 DUP6 PUSH2 0x530 JUMP JUMPDEST SWAP4 POP PUSH2 0x590 DUP2 DUP6 PUSH1 0x20 DUP7 ADD PUSH2 0x541 JUMP JUMPDEST PUSH2 0x599 DUP2 PUSH2 0x2B7 JUMP JUMPDEST DUP5 ADD SWAP2 POP POP SWAP3 SWAP2 POP POP JUMP JUMPDEST PUSH1 0x0 PUSH1 0x40 DUP3 ADD SWAP1 POP PUSH2 0x5B9 PUSH1 0x0 DUP4 ADD DUP6 PUSH2 0x446 JUMP JUMPDEST DUP2 DUP2 SUB PUSH1 0x20 DUP4 ADD MSTORE PUSH2 0x5CB DUP2 DUP5 PUSH2 0x56B JUMP JUMPDEST SWAP1 POP SWAP4 SWAP3 POP POP POP JUMP JUMPDEST PUSH32 0x4E487B7100000000000000000000000000000000000000000000000000000000 PUSH1 0x0 MSTORE PUSH1 0x22 PUSH1 0x4 MSTORE PUSH1 0x24 PUSH1 0x0 REVERT JUMPDEST PUSH1 0x0 PUSH1 0x2 DUP3 DIV SWAP1 POP PUSH1 0x1 DUP3 AND DUP1 PUSH2 0x61B JUMPI PUSH1 0x7F DUP3 AND SWAP2 POP JUMPDEST PUSH1 0x20 DUP3 LT DUP2 SUB PUSH2 0x62E JUMPI PUSH2 0x62D PUSH2 0x5D4 JUMP JUMPDEST JUMPDEST POP SWAP2 SWAP1 POP JUMP JUMPDEST PUSH1 0x0 DUP2 SWAP1 POP DUP2 PUSH1 0x0 MSTORE PUSH1 0x20 PUSH1 0x0 KECCAK256 SWAP1 POP SWAP2 SWAP1 POP JUMP JUMPDEST PUSH1 0x0 PUSH1 0x20 PUSH1 0x1F DUP4 ADD DIV SWAP1 POP SWAP2 SWAP1 POP JUMP JUMPDEST PUSH1 0x0 DUP3 DUP3 SHL SWAP1 POP SWAP3 SWAP2 POP POP JUMP JUMPDEST PUSH1 0x0 PUSH1 0x8 DUP4 MUL PUSH2 0x696 PUSH32 0xFFFFFFFFFFFFFFFFFFFFFFFFFFFFFFFFFFFFFFFFFFFFFFFFFFFFFFFFFFFFFFFF DUP3 PUSH2 0x659 JUMP JUMPDEST PUSH2 0x6A0 DUP7 DUP4 PUSH2 0x659 JUMP JUMPDEST SWAP6 POP DUP1 NOT DUP5 AND SWAP4 POP DUP1 DUP7 AND DUP5 OR SWAP3 POP POP POP SWAP4 SWAP3 POP POP POP JUMP JUMPDEST PUSH1 0x0 DUP2 SWAP1 POP SWAP2 SWAP1 POP JUMP JUMPDEST PUSH1 0x0 PUSH2 0x6DD PUSH2 0x6D8 PUSH2 0x6D3 DUP5 PUSH2 0x43C JUMP JUMPDEST PUSH2 0x6B8 JUMP JUMPDEST PUSH2 0x43C JUMP JUMPDEST SWAP1 POP SWAP2 SWAP1 POP JUMP JUMPDEST PUSH1 0x0 DUP2 SWAP1 POP SWAP2 SWAP1 POP JUMP JUMPDEST PUSH2 0x6F7 DUP4 PUSH2 0x6C2 JUMP JUMPDEST PUSH2 0x70B PUSH2 0x703 DUP3 PUSH2 0x6E4 JUMP JUMPDEST DUP5 DUP5 SLOAD PUSH2 0x666 JUMP JUMPDEST DUP3 SSTORE POP POP POP POP JUMP JUMPDEST PUSH1 0x0 SWAP1 JUMP JUMPDEST PUSH2 0x720 PUSH2 0x713 JUMP JUMPDEST PUSH2 0x72B DUP2 DUP5 DUP5 PUSH2 0x6EE JUMP JUMPDEST POP POP POP JUMP JUMPDEST JUMPDEST DUP2 DUP2 LT ISZERO PUSH2 0x74F JUMPI PUSH2 0x744 PUSH1 0x0 DUP3 PUSH2 0x718 JUMP JUMPDEST PUSH1 0x1 DUP2 ADD SWAP1 POP PUSH2 0x731 JUMP JUMPDEST POP POP JUMP JUMPDEST PUSH1 0x1F DUP3 GT ISZERO PUSH2 0x794 JUMPI PUSH2 0x765 DUP2 PUSH2 0x634 JUMP JUMPDEST PUSH2 0x76E DUP5 PUSH2 0x649 JUMP JUMPDEST DUP2 ADD PUSH1 0x20 DUP6 LT ISZERO PUSH2 0x77D JUMPI DUP2 SWAP1 POP JUMPDEST PUSH2 0x791 PUSH2 0x789 DUP6 PUSH2 0x649 JUMP JUMPDEST DUP4 ADD DUP3 PUSH2 0x730 JUMP JUMPDEST POP POP JUMPDEST POP POP POP JUMP JUMPDEST PUSH1 0x0 DUP3 DUP3 SHR SWAP1 POP SWAP3 SWAP2 POP POP JUMP JUMPDEST PUSH1 0x0 PUSH2 0x7B7 PUSH1 0x0 NOT DUP5 PUSH1 0x8 MUL PUSH2 0x799 JUMP JUMPDEST NOT DUP1 DUP4 AND SWAP2 POP POP SWAP3 SWAP2 POP POP JUMP JUMPDEST PUSH1 0x0 PUSH2 0x7D0 DUP4 DUP4 PUSH2 0x7A6 JUMP JUMPDEST SWAP2 POP DUP3 PUSH1 0x2 MUL DUP3 OR SWAP1 POP SWAP3 SWAP2 POP POP JUMP JUMPDEST PUSH2 0x7E9 DUP3 PUSH2 0x525 JUMP JUMPDEST PUSH8 0xFFFFFFFFFFFFFFFF DUP2 GT ISZERO PUSH2 0x802 JUMPI PUSH2 0x801 PUSH2 0x2C8 JUMP JUMPDEST JUMPDEST PUSH2 0x80C DUP3 SLOAD PUSH2 0x603 JUMP JUMPDEST PUSH2 0x817 DUP3 DUP3 DUP6 PUSH2 0x753 JUMP JUMPDEST PUSH1 0x0 PUSH1 0x20 SWAP1 POP PUSH1 0x1F DUP4 GT PUSH1 0x1 DUP2 EQ PUSH2 0x84A JUMPI PUSH1 0x0 DUP5 ISZERO PUSH2 0x838 JUMPI DUP3 DUP8 ADD MLOAD SWAP1 POP JUMPDEST PUSH2 0x842 DUP6 DUP3 PUSH2 0x7C4 JUMP JUMPDEST DUP7 SSTORE POP PUSH2 0x8AA JUMP JUMPDEST PUSH1 0x1F NOT DUP5 AND PUSH2 0x858 DUP7 PUSH2 0x634 JUMP JUMPDEST PUSH1 0x0 JUMPDEST DUP3 DUP2 LT ISZERO PUSH2 0x880 JUMPI DUP5 DUP10 ADD MLOAD DUP3 SSTORE PUSH1 0x1 DUP3 ADD SWAP2 POP PUSH1 0x20 DUP6 ADD SWAP5 POP PUSH1 0x20 DUP2 ADD SWAP1 POP PUSH2 0x85B JUMP JUMPDEST DUP7 DUP4 LT ISZERO PUSH2 0x89D JUMPI DUP5 DUP10 ADD MLOAD PUSH2 0x899 PUSH1 0x1F DUP10 AND DUP3 PUSH2 0x7A6 JUMP JUMPDEST DUP4 SSTORE POP JUMPDEST PUSH1 0x1 PUSH1 0x2 DUP9 MUL ADD DUP9 SSTORE POP POP POP JUMPDEST POP POP POP POP POP POP JUMP JUMPDEST PUSH1 0x0 DUP2 SWAP1 POP SWAP3 SWAP2 POP POP JUMP JUMPDEST PUSH1 0x0 PUSH2 0x8C8 DUP3 PUSH2 0x525 JUMP JUMPDEST PUSH2 0x8D2 DUP2 DUP6 PUSH2 0x8B2 JUMP JUMPDEST SWAP4 POP PUSH2 0x8E2 DUP2 DUP6 PUSH1 0x20 DUP7 ADD PUSH2 0x541 JUMP JUMPDEST DUP1 DUP5 ADD SWAP2 POP POP SWAP3 SWAP2 POP POP JUMP JUMPDEST PUSH1 0x0 PUSH2 0x8FA DUP3 DUP5 PUSH2 0x8BD JUMP JUMPDEST SWAP2 POP DUP2 SWAP1 POP SWAP3 SWAP2 POP POP JUMP INVALID LOG2 PUSH5 0x6970667358 0x22 SLT KECCAK256 MLOAD 0x4C 0xC2 0xB1 GAS EQ 0xAC LOG1 0xF9 0xDB DUP12 0xE7 DUP2 0xE2 0xCF GAS 0x4D 0x4E BLOCKHASH 0xDB MLOAD SWAP3 0xD5 MSTORE8 0xAF 0xD9 PUSH32 0x69CB82ECE264736F6C634300081A003300000000000000000000000000000000 "
				},
				"gasEstimates": {
					"creation": {
						"codeDepositCost": "472600",
						"executionCost": "505",
						"totalCost": "473105"
					},
					"external": {
						"addPerson(string,uint256)": "infinite",
						"nameTofavoriteNumber(string)": "infinite",
						"people(uint256)": "infinite",
						"retrieve()": "2437",
						"store(uint256)": "22542"
					}
				},
				"methodIdentifiers": {
					"addPerson(string,uint256)": "6f760f41",
					"nameTofavoriteNumber(string)": "03a43009",
					"people(uint256)": "9e7a13ad",
					"retrieve()": "2e64cec1",
					"store(uint256)": "6057361d"
				}
			},
			"storageLayout": {
				"storage": [
					{
						"astId": 23,
						"contract": "contracts/SimpleStorage.sol:SimpleStorage",
						"label": "favoriteNumber",
						"offset": 0,
						"slot": "0",
						"type": "t_uint256"
					},
					{
						"astId": 32,
						"contract": "contracts/SimpleStorage.sol:SimpleStorage",
						"label": "nameTofavoriteNumber",
						"offset": 0,
						"slot": "1",
						"type": "t_mapping(t_string_memory_ptr,t_uint256)"
					},
					{
						"astId": 36,
						"contract": "contracts/SimpleStorage.sol:SimpleStorage",
						"label": "people",
						"offset": 0,
						"slot": "2",
						"type": "t_array(t_struct(People)28_storage)dyn_storage"
					}
				],
				"types": {
					"t_array(t_struct(People)28_storage)dyn_storage": {
						"base": "t_struct(People)28_storage",
						"encoding": "dynamic_array",
						"label": "struct SimpleStorage.People[]",
						"numberOfBytes": "32"
					},
					"t_mapping(t_string_memory_ptr,t_uint256)": {
						"encoding": "mapping",
						"key": "t_string_memory_ptr",
						"label": "mapping(string => uint256)",
						"numberOfBytes": "32",
						"value": "t_uint256"
					},
					"t_string_memory_ptr": {
						"encoding": "bytes",
						"label": "string",
						"numberOfBytes": "32"
					},
					"t_string_storage": {
						"encoding": "bytes",
						"label": "string",
						"numberOfBytes": "32"
					},
					"t_struct(People)28_storage": {
						"encoding": "inplace",
						"label": "struct SimpleStorage.People",
						"members": [
							{
								"astId": 25,
								"contract": "contracts/SimpleStorage.sol:SimpleStorage",
								"label": "favoriteNumber",
								"offset": 0,
								"slot": "0",
								"type": "t_uint256"
							},
							{
								"astId": 27,
								"contract": "contracts/SimpleStorage.sol:SimpleStorage",
								"label": "name",
								"offset": 0,
								"slot": "1",
								"type": "t_string_storage"
							}
						],
						"numberOfBytes": "64"
					},
					"t_uint256": {
						"encoding": "inplace",
						"label": "uint256",
						"numberOfBytes": "32"
					}
				}
			},
			"userdoc": {
				"kind": "user",
				"methods": {},
				"version": 1
			}
		}
	}
}